{
	"_format": "hh-sol-artifact-1",
	"contractName": "Quest",
	"sourceName": "contracts/Quest.sol",
	"abi": [
		{
			"inputs": [
				{
					"internalType": "address",
					"name": "_usdcToken",
					"type": "address"
				},
				{
					"internalType": "bool",
					"name": "_isFree",
					"type": "bool"
				},
				{
					"internalType": "uint256",
					"name": "stake_val",
					"type": "uint256"
				},
				{
					"internalType": "uint256",
					"name": "price",
					"type": "uint256"
				},
				{
					"internalType": "address",
					"name": "initialOwner",
					"type": "address"
				}
			],
			"stateMutability": "nonpayable",
			"type": "constructor"
		},
		{
			"inputs": [
				{
					"internalType": "address",
					"name": "sender",
					"type": "address"
				},
				{
					"internalType": "uint256",
					"name": "tokenId",
					"type": "uint256"
				},
				{
					"internalType": "address",
					"name": "owner",
					"type": "address"
				}
			],
			"name": "ERC721IncorrectOwner",
			"type": "error"
		},
		{
			"inputs": [
				{
					"internalType": "address",
					"name": "operator",
					"type": "address"
				},
				{
					"internalType": "uint256",
					"name": "tokenId",
					"type": "uint256"
				}
			],
			"name": "ERC721InsufficientApproval",
			"type": "error"
		},
		{
			"inputs": [
				{
					"internalType": "address",
					"name": "approver",
					"type": "address"
				}
			],
			"name": "ERC721InvalidApprover",
			"type": "error"
		},
		{
			"inputs": [
				{
					"internalType": "address",
					"name": "operator",
					"type": "address"
				}
			],
			"name": "ERC721InvalidOperator",
			"type": "error"
		},
		{
			"inputs": [
				{
					"internalType": "address",
					"name": "owner",
					"type": "address"
				}
			],
			"name": "ERC721InvalidOwner",
			"type": "error"
		},
		{
			"inputs": [
				{
					"internalType": "address",
					"name": "receiver",
					"type": "address"
				}
			],
			"name": "ERC721InvalidReceiver",
			"type": "error"
		},
		{
			"inputs": [
				{
					"internalType": "address",
					"name": "sender",
					"type": "address"
				}
			],
			"name": "ERC721InvalidSender",
			"type": "error"
		},
		{
			"inputs": [
				{
					"internalType": "uint256",
					"name": "tokenId",
					"type": "uint256"
				}
			],
			"name": "ERC721NonexistentToken",
			"type": "error"
		},
		{
			"inputs": [
				{
					"internalType": "address",
					"name": "owner",
					"type": "address"
				}
			],
			"name": "OwnableInvalidOwner",
			"type": "error"
		},
		{
			"inputs": [
				{
					"internalType": "address",
					"name": "account",
					"type": "address"
				}
			],
			"name": "OwnableUnauthorizedAccount",
			"type": "error"
		},
		{
			"anonymous": false,
			"inputs": [
				{
					"indexed": true,
					"internalType": "address",
					"name": "owner",
					"type": "address"
				},
				{
					"indexed": true,
					"internalType": "address",
					"name": "approved",
					"type": "address"
				},
				{
					"indexed": true,
					"internalType": "uint256",
					"name": "tokenId",
					"type": "uint256"
				}
			],
			"name": "Approval",
			"type": "event"
		},
		{
			"anonymous": false,
			"inputs": [
				{
					"indexed": true,
					"internalType": "address",
					"name": "owner",
					"type": "address"
				},
				{
					"indexed": true,
					"internalType": "address",
					"name": "operator",
					"type": "address"
				},
				{
					"indexed": false,
					"internalType": "bool",
					"name": "approved",
					"type": "bool"
				}
			],
			"name": "ApprovalForAll",
			"type": "event"
		},
		{
			"anonymous": false,
			"inputs": [
				{
					"indexed": true,
					"internalType": "address",
					"name": "user",
					"type": "address"
				},
				{
					"indexed": false,
					"internalType": "uint256",
					"name": "tokenId",
					"type": "uint256"
				},
				{
					"indexed": false,
					"internalType": "bool",
					"name": "isFree",
					"type": "bool"
				}
			],
			"name": "NFTMinted",
			"type": "event"
		},
		{
			"anonymous": false,
			"inputs": [
				{
					"indexed": true,
					"internalType": "address",
					"name": "previousOwner",
					"type": "address"
				},
				{
					"indexed": true,
					"internalType": "address",
					"name": "newOwner",
					"type": "address"
				}
			],
			"name": "OwnershipTransferred",
			"type": "event"
		},
		{
			"anonymous": false,
			"inputs": [
				{
					"indexed": true,
					"internalType": "address",
					"name": "user",
					"type": "address"
				},
				{
					"indexed": false,
					"internalType": "uint256",
					"name": "amount",
					"type": "uint256"
				}
			],
			"name": "Staked",
			"type": "event"
		},
		{
			"anonymous": false,
			"inputs": [
				{
					"indexed": true,
					"internalType": "address",
					"name": "from",
					"type": "address"
				},
				{
					"indexed": true,
					"internalType": "address",
					"name": "to",
					"type": "address"
				},
				{
					"indexed": true,
					"internalType": "uint256",
					"name": "tokenId",
					"type": "uint256"
				}
			],
			"name": "Transfer",
			"type": "event"
		},
		{
			"anonymous": false,
			"inputs": [
				{
					"indexed": true,
					"internalType": "address",
					"name": "user",
					"type": "address"
				},
				{
					"indexed": false,
					"internalType": "uint256",
					"name": "amount",
					"type": "uint256"
				}
			],
			"name": "Unstaked",
			"type": "event"
		},
		{
			"inputs": [],
			"name": "NFT_PRICE",
			"outputs": [
				{
					"internalType": "uint256",
					"name": "",
					"type": "uint256"
				}
			],
			"stateMutability": "view",
			"type": "function"
		},
		{
			"inputs": [],
			"name": "STAKE_AMOUNT",
			"outputs": [
				{
					"internalType": "uint256",
					"name": "",
					"type": "uint256"
				}
			],
			"stateMutability": "view",
			"type": "function"
		},
		{
			"inputs": [
				{
					"internalType": "address",
					"name": "to",
					"type": "address"
				},
				{
					"internalType": "uint256",
					"name": "tokenId",
					"type": "uint256"
				}
			],
			"name": "approve",
			"outputs": [],
			"stateMutability": "nonpayable",
			"type": "function"
		},
		{
			"inputs": [
				{
					"internalType": "address",
					"name": "owner",
					"type": "address"
				}
			],
			"name": "balanceOf",
			"outputs": [
				{
					"internalType": "uint256",
					"name": "",
					"type": "uint256"
				}
			],
			"stateMutability": "view",
			"type": "function"
		},
		{
			"inputs": [
				{
					"internalType": "uint256",
					"name": "tokenId",
					"type": "uint256"
				}
			],
			"name": "getApproved",
			"outputs": [
				{
					"internalType": "address",
					"name": "",
					"type": "address"
				}
			],
			"stateMutability": "view",
			"type": "function"
		},
		{
			"inputs": [
				{
					"internalType": "address",
					"name": "owner",
					"type": "address"
				},
				{
					"internalType": "address",
					"name": "operator",
					"type": "address"
				}
			],
			"name": "isApprovedForAll",
			"outputs": [
				{
					"internalType": "bool",
					"name": "",
					"type": "bool"
				}
			],
			"stateMutability": "view",
			"type": "function"
		},
		{
			"inputs": [],
			"name": "isFree",
			"outputs": [
				{
					"internalType": "bool",
					"name": "",
					"type": "bool"
				}
			],
			"stateMutability": "view",
			"type": "function"
		},
		{
			"inputs": [
				{
					"internalType": "address",
					"name": "",
					"type": "address"
				}
			],
			"name": "lastFreeMint",
			"outputs": [
				{
					"internalType": "uint256",
					"name": "",
					"type": "uint256"
				}
			],
			"stateMutability": "view",
			"type": "function"
		},
		{
			"inputs": [],
			"name": "mintFree",
			"outputs": [],
			"stateMutability": "nonpayable",
			"type": "function"
		},
		{
			"inputs": [],
			"name": "name",
			"outputs": [
				{
					"internalType": "string",
					"name": "",
					"type": "string"
				}
			],
			"stateMutability": "view",
			"type": "function"
		},
		{
			"inputs": [],
			"name": "owner",
			"outputs": [
				{
					"internalType": "address",
					"name": "",
					"type": "address"
				}
			],
			"stateMutability": "view",
			"type": "function"
		},
		{
			"inputs": [
				{
					"internalType": "uint256",
					"name": "tokenId",
					"type": "uint256"
				}
			],
			"name": "ownerOf",
			"outputs": [
				{
					"internalType": "address",
					"name": "",
					"type": "address"
				}
			],
			"stateMutability": "view",
			"type": "function"
		},
		{
			"inputs": [],
			"name": "renounceOwnership",
			"outputs": [],
			"stateMutability": "nonpayable",
			"type": "function"
		},
		{
			"inputs": [
				{
					"internalType": "address",
					"name": "from",
					"type": "address"
				},
				{
					"internalType": "address",
					"name": "to",
					"type": "address"
				},
				{
					"internalType": "uint256",
					"name": "tokenId",
					"type": "uint256"
				}
			],
			"name": "safeTransferFrom",
			"outputs": [],
			"stateMutability": "nonpayable",
			"type": "function"
		},
		{
			"inputs": [
				{
					"internalType": "address",
					"name": "from",
					"type": "address"
				},
				{
					"internalType": "address",
					"name": "to",
					"type": "address"
				},
				{
					"internalType": "uint256",
					"name": "tokenId",
					"type": "uint256"
				},
				{
					"internalType": "bytes",
					"name": "data",
					"type": "bytes"
				}
			],
			"name": "safeTransferFrom",
			"outputs": [],
			"stateMutability": "nonpayable",
			"type": "function"
		},
		{
			"inputs": [
				{
					"internalType": "address",
					"name": "operator",
					"type": "address"
				},
				{
					"internalType": "bool",
					"name": "approved",
					"type": "bool"
				}
			],
			"name": "setApprovalForAll",
			"outputs": [],
			"stateMutability": "nonpayable",
			"type": "function"
		},
		{
			"inputs": [
				{
					"internalType": "uint256",
					"name": "amount",
					"type": "uint256"
				}
			],
			"name": "stake",
			"outputs": [],
			"stateMutability": "nonpayable",
			"type": "function"
		},
		{
			"inputs": [
				{
					"internalType": "address",
					"name": "",
					"type": "address"
				}
			],
			"name": "stakedAmount",
			"outputs": [
				{
					"internalType": "uint256",
					"name": "",
					"type": "uint256"
				}
			],
			"stateMutability": "view",
			"type": "function"
		},
		{
			"inputs": [
				{
					"internalType": "bytes4",
					"name": "interfaceId",
					"type": "bytes4"
				}
			],
			"name": "supportsInterface",
			"outputs": [
				{
					"internalType": "bool",
					"name": "",
					"type": "bool"
				}
			],
			"stateMutability": "view",
			"type": "function"
		},
		{
			"inputs": [],
			"name": "symbol",
			"outputs": [
				{
					"internalType": "string",
					"name": "",
					"type": "string"
				}
			],
			"stateMutability": "view",
			"type": "function"
		},
		{
			"inputs": [
				{
					"internalType": "uint256",
					"name": "tokenId",
					"type": "uint256"
				}
			],
			"name": "tokenURI",
			"outputs": [
				{
					"internalType": "string",
					"name": "",
					"type": "string"
				}
			],
			"stateMutability": "view",
			"type": "function"
		},
		{
			"inputs": [
				{
					"internalType": "address",
					"name": "from",
					"type": "address"
				},
				{
					"internalType": "address",
					"name": "to",
					"type": "address"
				},
				{
					"internalType": "uint256",
					"name": "tokenId",
					"type": "uint256"
				}
			],
			"name": "transferFrom",
			"outputs": [],
			"stateMutability": "nonpayable",
			"type": "function"
		},
		{
			"inputs": [
				{
					"internalType": "address",
					"name": "newOwner",
					"type": "address"
				}
			],
			"name": "transferOwnership",
			"outputs": [],
			"stateMutability": "nonpayable",
			"type": "function"
		},
		{
			"inputs": [
				{
					"internalType": "address",
					"name": "to",
					"type": "address"
				},
				{
					"internalType": "uint256",
					"name": "amount",
					"type": "uint256"
				}
			],
			"name": "unstake",
			"outputs": [],
			"stateMutability": "nonpayable",
			"type": "function"
		},
		{
			"inputs": [],
			"name": "usdcToken",
			"outputs": [
				{
					"internalType": "contract IERC20",
					"name": "",
					"type": "address"
				}
			],
			"stateMutability": "view",
			"type": "function"
		}
	],
	"bytecode": "0x60c06040523480156200001157600080fd5b5060405162001af638038062001af6833981016040819052620000349162000181565b806040518060400160405280600a81526020016914dd185ada5b99d3919560b21b8152506040518060400160405280600481526020016314d3919560e21b81525081600090816200008691906200028b565b5060016200009582826200028b565b5050506001600160a01b038116620000c757604051631e4fbdf760e01b81526000600482015260240160405180910390fd5b620000d28162000112565b505060088054931515600160a01b026001600160a81b03199094166001600160a01b03909516949094179290921790925560809190915260a05262000357565b600680546001600160a01b038381166001600160a01b0319831681179093556040519116919082907f8be0079c531659141344cd1fd0a4f28419497f9722a3daafe3b4186f6b6457e090600090a35050565b80516001600160a01b03811681146200017c57600080fd5b919050565b600080600080600060a086880312156200019a57600080fd5b620001a58662000164565b945060208601518015158114620001bb57600080fd5b6040870151606088015191955093509150620001da6080870162000164565b90509295509295909350565b634e487b7160e01b600052604160045260246000fd5b600181811c908216806200021157607f821691505b6020821081036200023257634e487b7160e01b600052602260045260246000fd5b50919050565b601f8211156200028657600081815260208120601f850160051c81016020861015620002615750805b601f850160051c820191505b8181101562000282578281556001016200026d565b5050505b505050565b81516001600160401b03811115620002a757620002a7620001e6565b620002bf81620002b88454620001fc565b8462000238565b602080601f831160018114620002f75760008415620002de5750858301515b600019600386901b1c1916600185901b17855562000282565b600085815260208120601f198616915b82811015620003285788860151825594840194600190910190840162000307565b5085821015620003475787850151600019600388901b60f8161c191681555b5050505050600190811b01905550565b60805160a051611764620003926000396000818161025a01526106d9015260008181610390015281816105f7015261080201526117646000f3fe608060405234801561001057600080fd5b50600436106101735760003560e01c80638ab53447116100de578063b88d4fde11610097578063e985e9c511610071578063e985e9c514610345578063f2fde38b14610358578063f99318551461036b578063faf5625f1461038b57600080fd5b8063b88d4fde1461030c578063c2a672e01461031f578063c87b56dd1461033257600080fd5b80638ab53447146102a55780638da5cb5b146102ad57806395d89b41146102be578063a22cb465146102c6578063a693b19f146102d9578063a694fc3a146102f957600080fd5b80633c0d0cb8116101305780633c0d0cb81461021b57806342842e0e1461022f5780636352211e14610242578063676dd5631461025557806370a082311461028a578063715018a61461029d57600080fd5b806301ffc9a71461017857806306fdde03146101a0578063081812fc146101b5578063095ea7b3146101e057806311eac855146101f557806323b872dd14610208575b600080fd5b61018b610186366004611330565b6103b2565b60405190151581526020015b60405180910390f35b6101a8610404565b604051610197919061139d565b6101c86101c33660046113b0565b610496565b6040516001600160a01b039091168152602001610197565b6101f36101ee3660046113e5565b6104bf565b005b6008546101c8906001600160a01b031681565b6101f361021636600461140f565b6104ce565b60085461018b90600160a01b900460ff1681565b6101f361023d36600461140f565b61055e565b6101c86102503660046113b0565b61057e565b61027c7f000000000000000000000000000000000000000000000000000000000000000081565b604051908152602001610197565b61027c61029836600461144b565b610589565b6101f36105d1565b6101f36105e5565b6006546001600160a01b03166101c8565b6101a86107e6565b6101f36102d4366004611474565b6107f5565b61027c6102e736600461144b565b600a6020526000908152604090205481565b6101f36103073660046113b0565b610800565b6101f361031a3660046114c1565b610954565b6101f361032d3660046113e5565b61096b565b6101a86103403660046113b0565b610ae2565b61018b61035336600461159d565b610b57565b6101f361036636600461144b565b610b85565b61027c61037936600461144b565b60096020526000908152604090205481565b61027c7f000000000000000000000000000000000000000000000000000000000000000081565b60006001600160e01b031982166380ac58cd60e01b14806103e357506001600160e01b03198216635b5e139f60e01b145b806103fe57506301ffc9a760e01b6001600160e01b03198316145b92915050565b606060008054610413906115d0565b80601f016020809104026020016040519081016040528092919081815260200182805461043f906115d0565b801561048c5780601f106104615761010080835404028352916020019161048c565b820191906000526020600020905b81548152906001019060200180831161046f57829003601f168201915b5050505050905090565b60006104a182610bc3565b506000828152600460205260409020546001600160a01b03166103fe565b6104ca828233610bfc565b5050565b6001600160a01b0382166104fd57604051633250574960e11b8152600060048201526024015b60405180910390fd5b600061050a838333610c09565b9050836001600160a01b0316816001600160a01b031614610558576040516364283d7b60e01b81526001600160a01b03808616600483015260248201849052821660448201526064016104f4565b50505050565b61057983838360405180602001604052806000815250610954565b505050565b60006103fe82610bc3565b60006001600160a01b0382166105b5576040516322718ad960e21b8152600060048201526024016104f4565b506001600160a01b031660009081526003602052604090205490565b6105d9610d02565b6105e36000610d2f565b565b336000908152600960205260409020547f000000000000000000000000000000000000000000000000000000000000000011156106585760405162461bcd60e51b8152602060048201526011602482015270139bdd08195b9bdd59da081cdd185ad959607a1b60448201526064016104f4565b61066133610589565b156106a55760405162461bcd60e51b815260206004820152601460248201527310dbdbdb191bdddb881b9bdd08195b185c1cd95960621b60448201526064016104f4565b600854600160a01b900460ff161515600003610771576008546040516323b872dd60e01b81523360048201523060248201527f000000000000000000000000000000000000000000000000000000000000000060448201526001600160a01b03909116906323b872dd906064016020604051808303816000875af1158015610731573d6000803e3d6000fd5b505050506040513d601f19601f82011682018060405250810190610755919061160a565b6107715760405162461bcd60e51b81526004016104f490611627565b6007805490600061078183611666565b90915550506007546107933382610d81565b336000818152600a602090815260409182902042905581518481526001918101919091527f8fa3ff725d2f7190c5e5dd9bc88f241a72b239e127e347dccdfc28e44e5e096391015b60405180910390a250565b606060018054610413906115d0565b6104ca338383610d9b565b7f00000000000000000000000000000000000000000000000000000000000000008110156108675760405162461bcd60e51b81526020600482015260146024820152735374616b6520616d6f756e7420746f6f206c6f7760601b60448201526064016104f4565b6008546040516323b872dd60e01b8152336004820152306024820152604481018390526001600160a01b03909116906323b872dd906064016020604051808303816000875af11580156108be573d6000803e3d6000fd5b505050506040513d601f19601f820116820180604052508101906108e2919061160a565b6108fe5760405162461bcd60e51b81526004016104f490611627565b336000908152600960205260408120805483929061091d90849061167f565b909155505060405181815233907f9e71bc8eea02a63969f509818f2dafb9254532904319f9dbda79b67bd34a5f3d906020016107db565b61095f8484846104ce565b61055884848484610e3a565b610973610d02565b6001600160a01b0382166000908152600960205260409020548111156109db5760405162461bcd60e51b815260206004820152601a60248201527f496e73756666696369656e74207374616b656420616d6f756e7400000000000060448201526064016104f4565b6001600160a01b03821660009081526009602052604081208054839290610a03908490611692565b909155505060085460405163a9059cbb60e01b81526001600160a01b038481166004830152602482018490529091169063a9059cbb906044016020604051808303816000875af1158015610a5b573d6000803e3d6000fd5b505050506040513d601f19601f82011682018060405250810190610a7f919061160a565b610a9b5760405162461bcd60e51b81526004016104f490611627565b816001600160a01b03167f0f5bb82176feb1b5e747e28471aa92156a04d9f3ab9f45f28e2d704232b93f7582604051610ad691815260200190565b60405180910390a25050565b6060610aed82610bc3565b506000610b0560408051602081019091526000815290565b90506000815111610b255760405180602001604052806000815250610b50565b80610b2f84610f63565b604051602001610b409291906116a5565b6040516020818303038152906040525b9392505050565b6001600160a01b03918216600090815260056020908152604080832093909416825291909152205460ff1690565b610b8d610d02565b6001600160a01b038116610bb757604051631e4fbdf760e01b8152600060048201526024016104f4565b610bc081610d2f565b50565b6000818152600260205260408120546001600160a01b0316806103fe57604051637e27328960e01b8152600481018490526024016104f4565b6105798383836001610ff6565b6000828152600260205260408120546001600160a01b0390811690831615610c3657610c368184866110fc565b6001600160a01b03811615610c7457610c53600085600080610ff6565b6001600160a01b038116600090815260036020526040902080546000190190555b6001600160a01b03851615610ca3576001600160a01b0385166000908152600360205260409020805460010190555b60008481526002602052604080822080546001600160a01b0319166001600160a01b0389811691821790925591518793918516917fddf252ad1be2c89b69c2b068fc378daa952ba7f163c4a11628f55a4df523b3ef91a4949350505050565b6006546001600160a01b031633146105e35760405163118cdaa760e01b81523360048201526024016104f4565b600680546001600160a01b038381166001600160a01b0319831681179093556040519116919082907f8be0079c531659141344cd1fd0a4f28419497f9722a3daafe3b4186f6b6457e090600090a35050565b6104ca828260405180602001604052806000815250611160565b6001600160a01b038216610dcd57604051630b61174360e31b81526001600160a01b03831660048201526024016104f4565b6001600160a01b03838116600081815260056020908152604080832094871680845294825291829020805460ff191686151590811790915591519182527f17307eab39ab6107e8899845ad3d59bd9653f200f220920489ca2b5937696c31910160405180910390a3505050565b6001600160a01b0383163b1561055857604051630a85bd0160e11b81526001600160a01b0384169063150b7a0290610e7c9033908890879087906004016116d4565b6020604051808303816000875af1925050508015610eb7575060408051601f3d908101601f19168201909252610eb491810190611711565b60015b610f20573d808015610ee5576040519150601f19603f3d011682016040523d82523d6000602084013e610eea565b606091505b508051600003610f1857604051633250574960e11b81526001600160a01b03851660048201526024016104f4565b805181602001fd5b6001600160e01b03198116630a85bd0160e11b14610f5c57604051633250574960e11b81526001600160a01b03851660048201526024016104f4565b5050505050565b60606000610f7083611177565b600101905060008167ffffffffffffffff811115610f9057610f906114ab565b6040519080825280601f01601f191660200182016040528015610fba576020820181803683370190505b5090508181016020015b600019016f181899199a1a9b1b9c1cb0b131b232b360811b600a86061a8153600a8504945084610fc457509392505050565b808061100a57506001600160a01b03821615155b156110cc57600061101a84610bc3565b90506001600160a01b038316158015906110465750826001600160a01b0316816001600160a01b031614155b801561105957506110578184610b57565b155b156110825760405163a9fbf51f60e01b81526001600160a01b03841660048201526024016104f4565b81156110ca5783856001600160a01b0316826001600160a01b03167f8c5be1e5ebec7d5bd14f71427d1e84f3dd0314c0f7b2291e5b200ac8c7c3b92560405160405180910390a45b505b5050600090815260046020526040902080546001600160a01b0319166001600160a01b0392909216919091179055565b61110783838361124f565b610579576001600160a01b03831661113557604051637e27328960e01b8152600481018290526024016104f4565b60405163177e802f60e01b81526001600160a01b0383166004820152602481018290526044016104f4565b61116a83836112b5565b6105796000848484610e3a565b60008072184f03e93ff9f4daa797ed6e38ed64bf6a1f0160401b83106111b65772184f03e93ff9f4daa797ed6e38ed64bf6a1f0160401b830492506040015b6d04ee2d6d415b85acef810000000083106111e2576d04ee2d6d415b85acef8100000000830492506020015b662386f26fc10000831061120057662386f26fc10000830492506010015b6305f5e1008310611218576305f5e100830492506008015b612710831061122c57612710830492506004015b6064831061123e576064830492506002015b600a83106103fe5760010192915050565b60006001600160a01b038316158015906112ad5750826001600160a01b0316846001600160a01b0316148061128957506112898484610b57565b806112ad57506000828152600460205260409020546001600160a01b038481169116145b949350505050565b6001600160a01b0382166112df57604051633250574960e11b8152600060048201526024016104f4565b60006112ed83836000610c09565b90506001600160a01b03811615610579576040516339e3563760e11b8152600060048201526024016104f4565b6001600160e01b031981168114610bc057600080fd5b60006020828403121561134257600080fd5b8135610b508161131a565b60005b83811015611368578181015183820152602001611350565b50506000910152565b6000815180845261138981602086016020860161134d565b601f01601f19169290920160200192915050565b602081526000610b506020830184611371565b6000602082840312156113c257600080fd5b5035919050565b80356001600160a01b03811681146113e057600080fd5b919050565b600080604083850312156113f857600080fd5b611401836113c9565b946020939093013593505050565b60008060006060848603121561142457600080fd5b61142d846113c9565b925061143b602085016113c9565b9150604084013590509250925092565b60006020828403121561145d57600080fd5b610b50826113c9565b8015158114610bc057600080fd5b6000806040838503121561148757600080fd5b611490836113c9565b915060208301356114a081611466565b809150509250929050565b634e487b7160e01b600052604160045260246000fd5b600080600080608085870312156114d757600080fd5b6114e0856113c9565b93506114ee602086016113c9565b925060408501359150606085013567ffffffffffffffff8082111561151257600080fd5b818701915087601f83011261152657600080fd5b813581811115611538576115386114ab565b604051601f8201601f19908116603f01168101908382118183101715611560576115606114ab565b816040528281528a602084870101111561157957600080fd5b82602086016020830137600060208483010152809550505050505092959194509250565b600080604083850312156115b057600080fd5b6115b9836113c9565b91506115c7602084016113c9565b90509250929050565b600181811c908216806115e457607f821691505b60208210810361160457634e487b7160e01b600052602260045260246000fd5b50919050565b60006020828403121561161c57600080fd5b8151610b5081611466565b6020808252600f908201526e151c985b9cd9995c8819985a5b1959608a1b604082015260600190565b634e487b7160e01b600052601160045260246000fd5b60006001820161167857611678611650565b5060010190565b808201808211156103fe576103fe611650565b818103818111156103fe576103fe611650565b600083516116b781846020880161134d565b8351908301906116cb81836020880161134d565b01949350505050565b6001600160a01b038581168252841660208201526040810183905260806060820181905260009061170790830184611371565b9695505050505050565b60006020828403121561172357600080fd5b8151610b508161131a56fea2646970667358221220a61d4a02dcc9f0902a605b52c0c4057aaa947368ae4073c1d41293436615ef5664736f6c63430008140033",
	"linkReferences": {},
	"deployedLinkReferences": {}
}