{
	"compilerInput": "{\"language\":\"Solidity\",\"sources\":{\"contracts/Quest.sol\":{\"content\":\"// SPDX-License-Identifier: MIT\\npragma solidity ^0.8.0;\\n\\nimport \\\"@openzeppelin/contracts/token/ERC721/ERC721.sol\\\";\\nimport \\\"@openzeppelin/contracts/access/Ownable.sol\\\";\\n\\ncontract Quest is ERC721, Ownable {\\n    uint256 private _tokenIds;\\n    uint256 public immutable NFT_PRICE; // .10 ETH\\n\\n    mapping(address => uint256) public stakedAmount;\\n    mapping(address => uint256) public lastFreeMint;\\n\\n    event Staked(address indexed user, uint256 amount);\\n    event Unstaked(address indexed user, uint256 amount);\\n    event NFTMinted(address indexed user, uint256 tokenId, bool isFree);\\n\\n    constructor(\\n        uint256 price,\\n        address initialOwner\\n    ) ERC721(\\\"QuestNFT\\\", \\\"QNFT\\\") Ownable(initialOwner) {\\n        NFT_PRICE = price;\\n    }\\n\\n    function mint() external {\\n        _tokenIds++;\\n        uint256 newTokenId = _tokenIds;\\n        _safeMint(msg.sender, newTokenId);\\n\\n        lastFreeMint[msg.sender] = block.timestamp;\\n        emit NFTMinted(msg.sender, newTokenId, true);\\n    }\\n}\"},\"@openzeppelin/contracts/access/Ownable.sol\":{\"content\":\"// SPDX-License-Identifier: MIT\\n// OpenZeppelin Contracts (last updated v5.0.0) (access/Ownable.sol)\\n\\npragma solidity ^0.8.20;\\n\\nimport {Context} from \\\"../utils/Context.sol\\\";\\n\\n/**\\n * @dev Contract module which provides a basic access control mechanism, where\\n * there is an account (an owner) that can be granted exclusive access to\\n * specific functions.\\n *\\n * The initial owner is set to the address provided by the deployer. This can\\n * later be changed with {transferOwnership}.\\n *\\n * This module is used through inheritance. It will make available the modifier\\n * `onlyOwner`, which can be applied to your functions to restrict their use to\\n * the owner.\\n */\\nabstract contract Ownable is Context {\\n    address private _owner;\\n\\n    /**\\n     * @dev The caller account is not authorized to perform an operation.\\n     */\\n    error OwnableUnauthorizedAccount(address account);\\n\\n    /**\\n     * @dev The owner is not a valid owner account. (eg. `address(0)`)\\n     */\\n    error OwnableInvalidOwner(address owner);\\n\\n    event OwnershipTransferred(address indexed previousOwner, address indexed newOwner);\\n\\n    /**\\n     * @dev Initializes the contract setting the address provided by the deployer as the initial owner.\\n     */\\n    constructor(address initialOwner) {\\n        if (initialOwner == address(0)) {\\n            revert OwnableInvalidOwner(address(0));\\n        }\\n        _transferOwnership(initialOwner);\\n    }\\n\\n    /**\\n     * @dev Throws if called by any account other than the owner.\\n     */\\n    modifier onlyOwner() {\\n        _checkOwner();\\n        _;\\n    }\\n\\n    /**\\n     * @dev Returns the address of the current owner.\\n     */\\n    function owner() public view virtual returns (address) {\\n        return _owner;\\n    }\\n\\n    /**\\n     * @dev Throws if the sender is not the owner.\\n     */\\n    function _checkOwner() internal view virtual {\\n        if (owner() != _msgSender()) {\\n            revert OwnableUnauthorizedAccount(_msgSender());\\n        }\\n    }\\n\\n    /**\\n     * @dev Leaves the contract without owner. It will not be possible to call\\n     * `onlyOwner` functions. Can only be called by the current owner.\\n     *\\n     * NOTE: Renouncing ownership will leave the contract without an owner,\\n     * thereby disabling any functionality that is only available to the owner.\\n     */\\n    function renounceOwnership() public virtual onlyOwner {\\n        _transferOwnership(address(0));\\n    }\\n\\n    /**\\n     * @dev Transfers ownership of the contract to a new account (`newOwner`).\\n     * Can only be called by the current owner.\\n     */\\n    function transferOwnership(address newOwner) public virtual onlyOwner {\\n        if (newOwner == address(0)) {\\n            revert OwnableInvalidOwner(address(0));\\n        }\\n        _transferOwnership(newOwner);\\n    }\\n\\n    /**\\n     * @dev Transfers ownership of the contract to a new account (`newOwner`).\\n     * Internal function without access restriction.\\n     */\\n    function _transferOwnership(address newOwner) internal virtual {\\n        address oldOwner = _owner;\\n        _owner = newOwner;\\n        emit OwnershipTransferred(oldOwner, newOwner);\\n    }\\n}\\n\"},\"@openzeppelin/contracts/token/ERC721/ERC721.sol\":{\"content\":\"// SPDX-License-Identifier: MIT\\n// OpenZeppelin Contracts (last updated v5.0.0) (token/ERC721/ERC721.sol)\\n\\npragma solidity ^0.8.20;\\n\\nimport {IERC721} from \\\"./IERC721.sol\\\";\\nimport {IERC721Receiver} from \\\"./IERC721Receiver.sol\\\";\\nimport {IERC721Metadata} from \\\"./extensions/IERC721Metadata.sol\\\";\\nimport {Context} from \\\"../../utils/Context.sol\\\";\\nimport {Strings} from \\\"../../utils/Strings.sol\\\";\\nimport {IERC165, ERC165} from \\\"../../utils/introspection/ERC165.sol\\\";\\nimport {IERC721Errors} from \\\"../../interfaces/draft-IERC6093.sol\\\";\\n\\n/**\\n * @dev Implementation of https://eips.ethereum.org/EIPS/eip-721[ERC721] Non-Fungible Token Standard, including\\n * the Metadata extension, but not including the Enumerable extension, which is available separately as\\n * {ERC721Enumerable}.\\n */\\nabstract contract ERC721 is Context, ERC165, IERC721, IERC721Metadata, IERC721Errors {\\n    using Strings for uint256;\\n\\n    // Token name\\n    string private _name;\\n\\n    // Token symbol\\n    string private _symbol;\\n\\n    mapping(uint256 tokenId => address) private _owners;\\n\\n    mapping(address owner => uint256) private _balances;\\n\\n    mapping(uint256 tokenId => address) private _tokenApprovals;\\n\\n    mapping(address owner => mapping(address operator => bool)) private _operatorApprovals;\\n\\n    /**\\n     * @dev Initializes the contract by setting a `name` and a `symbol` to the token collection.\\n     */\\n    constructor(string memory name_, string memory symbol_) {\\n        _name = name_;\\n        _symbol = symbol_;\\n    }\\n\\n    /**\\n     * @dev See {IERC165-supportsInterface}.\\n     */\\n    function supportsInterface(bytes4 interfaceId) public view virtual override(ERC165, IERC165) returns (bool) {\\n        return\\n            interfaceId == type(IERC721).interfaceId ||\\n            interfaceId == type(IERC721Metadata).interfaceId ||\\n            super.supportsInterface(interfaceId);\\n    }\\n\\n    /**\\n     * @dev See {IERC721-balanceOf}.\\n     */\\n    function balanceOf(address owner) public view virtual returns (uint256) {\\n        if (owner == address(0)) {\\n            revert ERC721InvalidOwner(address(0));\\n        }\\n        return _balances[owner];\\n    }\\n\\n    /**\\n     * @dev See {IERC721-ownerOf}.\\n     */\\n    function ownerOf(uint256 tokenId) public view virtual returns (address) {\\n        return _requireOwned(tokenId);\\n    }\\n\\n    /**\\n     * @dev See {IERC721Metadata-name}.\\n     */\\n    function name() public view virtual returns (string memory) {\\n        return _name;\\n    }\\n\\n    /**\\n     * @dev See {IERC721Metadata-symbol}.\\n     */\\n    function symbol() public view virtual returns (string memory) {\\n        return _symbol;\\n    }\\n\\n    /**\\n     * @dev See {IERC721Metadata-tokenURI}.\\n     */\\n    function tokenURI(uint256 tokenId) public view virtual returns (string memory) {\\n        _requireOwned(tokenId);\\n\\n        string memory baseURI = _baseURI();\\n        return bytes(baseURI).length > 0 ? string.concat(baseURI, tokenId.toString()) : \\\"\\\";\\n    }\\n\\n    /**\\n     * @dev Base URI for computing {tokenURI}. If set, the resulting URI for each\\n     * token will be the concatenation of the `baseURI` and the `tokenId`. Empty\\n     * by default, can be overridden in child contracts.\\n     */\\n    function _baseURI() internal view virtual returns (string memory) {\\n        return \\\"\\\";\\n    }\\n\\n    /**\\n     * @dev See {IERC721-approve}.\\n     */\\n    function approve(address to, uint256 tokenId) public virtual {\\n        _approve(to, tokenId, _msgSender());\\n    }\\n\\n    /**\\n     * @dev See {IERC721-getApproved}.\\n     */\\n    function getApproved(uint256 tokenId) public view virtual returns (address) {\\n        _requireOwned(tokenId);\\n\\n        return _getApproved(tokenId);\\n    }\\n\\n    /**\\n     * @dev See {IERC721-setApprovalForAll}.\\n     */\\n    function setApprovalForAll(address operator, bool approved) public virtual {\\n        _setApprovalForAll(_msgSender(), operator, approved);\\n    }\\n\\n    /**\\n     * @dev See {IERC721-isApprovedForAll}.\\n     */\\n    function isApprovedForAll(address owner, address operator) public view virtual returns (bool) {\\n        return _operatorApprovals[owner][operator];\\n    }\\n\\n    /**\\n     * @dev See {IERC721-transferFrom}.\\n     */\\n    function transferFrom(address from, address to, uint256 tokenId) public virtual {\\n        if (to == address(0)) {\\n            revert ERC721InvalidReceiver(address(0));\\n        }\\n        // Setting an \\\"auth\\\" arguments enables the `_isAuthorized` check which verifies that the token exists\\n        // (from != 0). Therefore, it is not needed to verify that the return value is not 0 here.\\n        address previousOwner = _update(to, tokenId, _msgSender());\\n        if (previousOwner != from) {\\n            revert ERC721IncorrectOwner(from, tokenId, previousOwner);\\n        }\\n    }\\n\\n    /**\\n     * @dev See {IERC721-safeTransferFrom}.\\n     */\\n    function safeTransferFrom(address from, address to, uint256 tokenId) public {\\n        safeTransferFrom(from, to, tokenId, \\\"\\\");\\n    }\\n\\n    /**\\n     * @dev See {IERC721-safeTransferFrom}.\\n     */\\n    function safeTransferFrom(address from, address to, uint256 tokenId, bytes memory data) public virtual {\\n        transferFrom(from, to, tokenId);\\n        _checkOnERC721Received(from, to, tokenId, data);\\n    }\\n\\n    /**\\n     * @dev Returns the owner of the `tokenId`. Does NOT revert if token doesn't exist\\n     *\\n     * IMPORTANT: Any overrides to this function that add ownership of tokens not tracked by the\\n     * core ERC721 logic MUST be matched with the use of {_increaseBalance} to keep balances\\n     * consistent with ownership. The invariant to preserve is that for any address `a` the value returned by\\n     * `balanceOf(a)` must be equal to the number of tokens such that `_ownerOf(tokenId)` is `a`.\\n     */\\n    function _ownerOf(uint256 tokenId) internal view virtual returns (address) {\\n        return _owners[tokenId];\\n    }\\n\\n    /**\\n     * @dev Returns the approved address for `tokenId`. Returns 0 if `tokenId` is not minted.\\n     */\\n    function _getApproved(uint256 tokenId) internal view virtual returns (address) {\\n        return _tokenApprovals[tokenId];\\n    }\\n\\n    /**\\n     * @dev Returns whether `spender` is allowed to manage `owner`'s tokens, or `tokenId` in\\n     * particular (ignoring whether it is owned by `owner`).\\n     *\\n     * WARNING: This function assumes that `owner` is the actual owner of `tokenId` and does not verify this\\n     * assumption.\\n     */\\n    function _isAuthorized(address owner, address spender, uint256 tokenId) internal view virtual returns (bool) {\\n        return\\n            spender != address(0) &&\\n            (owner == spender || isApprovedForAll(owner, spender) || _getApproved(tokenId) == spender);\\n    }\\n\\n    /**\\n     * @dev Checks if `spender` can operate on `tokenId`, assuming the provided `owner` is the actual owner.\\n     * Reverts if `spender` does not have approval from the provided `owner` for the given token or for all its assets\\n     * the `spender` for the specific `tokenId`.\\n     *\\n     * WARNING: This function assumes that `owner` is the actual owner of `tokenId` and does not verify this\\n     * assumption.\\n     */\\n    function _checkAuthorized(address owner, address spender, uint256 tokenId) internal view virtual {\\n        if (!_isAuthorized(owner, spender, tokenId)) {\\n            if (owner == address(0)) {\\n                revert ERC721NonexistentToken(tokenId);\\n            } else {\\n                revert ERC721InsufficientApproval(spender, tokenId);\\n            }\\n        }\\n    }\\n\\n    /**\\n     * @dev Unsafe write access to the balances, used by extensions that \\\"mint\\\" tokens using an {ownerOf} override.\\n     *\\n     * NOTE: the value is limited to type(uint128).max. This protect against _balance overflow. It is unrealistic that\\n     * a uint256 would ever overflow from increments when these increments are bounded to uint128 values.\\n     *\\n     * WARNING: Increasing an account's balance using this function tends to be paired with an override of the\\n     * {_ownerOf} function to resolve the ownership of the corresponding tokens so that balances and ownership\\n     * remain consistent with one another.\\n     */\\n    function _increaseBalance(address account, uint128 value) internal virtual {\\n        unchecked {\\n            _balances[account] += value;\\n        }\\n    }\\n\\n    /**\\n     * @dev Transfers `tokenId` from its current owner to `to`, or alternatively mints (or burns) if the current owner\\n     * (or `to`) is the zero address. Returns the owner of the `tokenId` before the update.\\n     *\\n     * The `auth` argument is optional. If the value passed is non 0, then this function will check that\\n     * `auth` is either the owner of the token, or approved to operate on the token (by the owner).\\n     *\\n     * Emits a {Transfer} event.\\n     *\\n     * NOTE: If overriding this function in a way that tracks balances, see also {_increaseBalance}.\\n     */\\n    function _update(address to, uint256 tokenId, address auth) internal virtual returns (address) {\\n        address from = _ownerOf(tokenId);\\n\\n        // Perform (optional) operator check\\n        if (auth != address(0)) {\\n            _checkAuthorized(from, auth, tokenId);\\n        }\\n\\n        // Execute the update\\n        if (from != address(0)) {\\n            // Clear approval. No need to re-authorize or emit the Approval event\\n            _approve(address(0), tokenId, address(0), false);\\n\\n            unchecked {\\n                _balances[from] -= 1;\\n            }\\n        }\\n\\n        if (to != address(0)) {\\n            unchecked {\\n                _balances[to] += 1;\\n            }\\n        }\\n\\n        _owners[tokenId] = to;\\n\\n        emit Transfer(from, to, tokenId);\\n\\n        return from;\\n    }\\n\\n    /**\\n     * @dev Mints `tokenId` and transfers it to `to`.\\n     *\\n     * WARNING: Usage of this method is discouraged, use {_safeMint} whenever possible\\n     *\\n     * Requirements:\\n     *\\n     * - `tokenId` must not exist.\\n     * - `to` cannot be the zero address.\\n     *\\n     * Emits a {Transfer} event.\\n     */\\n    function _mint(address to, uint256 tokenId) internal {\\n        if (to == address(0)) {\\n            revert ERC721InvalidReceiver(address(0));\\n        }\\n        address previousOwner = _update(to, tokenId, address(0));\\n        if (previousOwner != address(0)) {\\n            revert ERC721InvalidSender(address(0));\\n        }\\n    }\\n\\n    /**\\n     * @dev Mints `tokenId`, transfers it to `to` and checks for `to` acceptance.\\n     *\\n     * Requirements:\\n     *\\n     * - `tokenId` must not exist.\\n     * - If `to` refers to a smart contract, it must implement {IERC721Receiver-onERC721Received}, which is called upon a safe transfer.\\n     *\\n     * Emits a {Transfer} event.\\n     */\\n    function _safeMint(address to, uint256 tokenId) internal {\\n        _safeMint(to, tokenId, \\\"\\\");\\n    }\\n\\n    /**\\n     * @dev Same as {xref-ERC721-_safeMint-address-uint256-}[`_safeMint`], with an additional `data` parameter which is\\n     * forwarded in {IERC721Receiver-onERC721Received} to contract recipients.\\n     */\\n    function _safeMint(address to, uint256 tokenId, bytes memory data) internal virtual {\\n        _mint(to, tokenId);\\n        _checkOnERC721Received(address(0), to, tokenId, data);\\n    }\\n\\n    /**\\n     * @dev Destroys `tokenId`.\\n     * The approval is cleared when the token is burned.\\n     * This is an internal function that does not check if the sender is authorized to operate on the token.\\n     *\\n     * Requirements:\\n     *\\n     * - `tokenId` must exist.\\n     *\\n     * Emits a {Transfer} event.\\n     */\\n    function _burn(uint256 tokenId) internal {\\n        address previousOwner = _update(address(0), tokenId, address(0));\\n        if (previousOwner == address(0)) {\\n            revert ERC721NonexistentToken(tokenId);\\n        }\\n    }\\n\\n    /**\\n     * @dev Transfers `tokenId` from `from` to `to`.\\n     *  As opposed to {transferFrom}, this imposes no restrictions on msg.sender.\\n     *\\n     * Requirements:\\n     *\\n     * - `to` cannot be the zero address.\\n     * - `tokenId` token must be owned by `from`.\\n     *\\n     * Emits a {Transfer} event.\\n     */\\n    function _transfer(address from, address to, uint256 tokenId) internal {\\n        if (to == address(0)) {\\n            revert ERC721InvalidReceiver(address(0));\\n        }\\n        address previousOwner = _update(to, tokenId, address(0));\\n        if (previousOwner == address(0)) {\\n            revert ERC721NonexistentToken(tokenId);\\n        } else if (previousOwner != from) {\\n            revert ERC721IncorrectOwner(from, tokenId, previousOwner);\\n        }\\n    }\\n\\n    /**\\n     * @dev Safely transfers `tokenId` token from `from` to `to`, checking that contract recipients\\n     * are aware of the ERC721 standard to prevent tokens from being forever locked.\\n     *\\n     * `data` is additional data, it has no specified format and it is sent in call to `to`.\\n     *\\n     * This internal function is like {safeTransferFrom} in the sense that it invokes\\n     * {IERC721Receiver-onERC721Received} on the receiver, and can be used to e.g.\\n     * implement alternative mechanisms to perform token transfer, such as signature-based.\\n     *\\n     * Requirements:\\n     *\\n     * - `tokenId` token must exist and be owned by `from`.\\n     * - `to` cannot be the zero address.\\n     * - `from` cannot be the zero address.\\n     * - If `to` refers to a smart contract, it must implement {IERC721Receiver-onERC721Received}, which is called upon a safe transfer.\\n     *\\n     * Emits a {Transfer} event.\\n     */\\n    function _safeTransfer(address from, address to, uint256 tokenId) internal {\\n        _safeTransfer(from, to, tokenId, \\\"\\\");\\n    }\\n\\n    /**\\n     * @dev Same as {xref-ERC721-_safeTransfer-address-address-uint256-}[`_safeTransfer`], with an additional `data` parameter which is\\n     * forwarded in {IERC721Receiver-onERC721Received} to contract recipients.\\n     */\\n    function _safeTransfer(address from, address to, uint256 tokenId, bytes memory data) internal virtual {\\n        _transfer(from, to, tokenId);\\n        _checkOnERC721Received(from, to, tokenId, data);\\n    }\\n\\n    /**\\n     * @dev Approve `to` to operate on `tokenId`\\n     *\\n     * The `auth` argument is optional. If the value passed is non 0, then this function will check that `auth` is\\n     * either the owner of the token, or approved to operate on all tokens held by this owner.\\n     *\\n     * Emits an {Approval} event.\\n     *\\n     * Overrides to this logic should be done to the variant with an additional `bool emitEvent` argument.\\n     */\\n    function _approve(address to, uint256 tokenId, address auth) internal {\\n        _approve(to, tokenId, auth, true);\\n    }\\n\\n    /**\\n     * @dev Variant of `_approve` with an optional flag to enable or disable the {Approval} event. The event is not\\n     * emitted in the context of transfers.\\n     */\\n    function _approve(address to, uint256 tokenId, address auth, bool emitEvent) internal virtual {\\n        // Avoid reading the owner unless necessary\\n        if (emitEvent || auth != address(0)) {\\n            address owner = _requireOwned(tokenId);\\n\\n            // We do not use _isAuthorized because single-token approvals should not be able to call approve\\n            if (auth != address(0) && owner != auth && !isApprovedForAll(owner, auth)) {\\n                revert ERC721InvalidApprover(auth);\\n            }\\n\\n            if (emitEvent) {\\n                emit Approval(owner, to, tokenId);\\n            }\\n        }\\n\\n        _tokenApprovals[tokenId] = to;\\n    }\\n\\n    /**\\n     * @dev Approve `operator` to operate on all of `owner` tokens\\n     *\\n     * Requirements:\\n     * - operator can't be the address zero.\\n     *\\n     * Emits an {ApprovalForAll} event.\\n     */\\n    function _setApprovalForAll(address owner, address operator, bool approved) internal virtual {\\n        if (operator == address(0)) {\\n            revert ERC721InvalidOperator(operator);\\n        }\\n        _operatorApprovals[owner][operator] = approved;\\n        emit ApprovalForAll(owner, operator, approved);\\n    }\\n\\n    /**\\n     * @dev Reverts if the `tokenId` doesn't have a current owner (it hasn't been minted, or it has been burned).\\n     * Returns the owner.\\n     *\\n     * Overrides to ownership logic should be done to {_ownerOf}.\\n     */\\n    function _requireOwned(uint256 tokenId) internal view returns (address) {\\n        address owner = _ownerOf(tokenId);\\n        if (owner == address(0)) {\\n            revert ERC721NonexistentToken(tokenId);\\n        }\\n        return owner;\\n    }\\n\\n    /**\\n     * @dev Private function to invoke {IERC721Receiver-onERC721Received} on a target address. This will revert if the\\n     * recipient doesn't accept the token transfer. The call is not executed if the target address is not a contract.\\n     *\\n     * @param from address representing the previous owner of the given token ID\\n     * @param to target address that will receive the tokens\\n     * @param tokenId uint256 ID of the token to be transferred\\n     * @param data bytes optional data to send along with the call\\n     */\\n    function _checkOnERC721Received(address from, address to, uint256 tokenId, bytes memory data) private {\\n        if (to.code.length > 0) {\\n            try IERC721Receiver(to).onERC721Received(_msgSender(), from, tokenId, data) returns (bytes4 retval) {\\n                if (retval != IERC721Receiver.onERC721Received.selector) {\\n                    revert ERC721InvalidReceiver(to);\\n                }\\n            } catch (bytes memory reason) {\\n                if (reason.length == 0) {\\n                    revert ERC721InvalidReceiver(to);\\n                } else {\\n                    /// @solidity memory-safe-assembly\\n                    assembly {\\n                        revert(add(32, reason), mload(reason))\\n                    }\\n                }\\n            }\\n        }\\n    }\\n}\\n\"},\"@openzeppelin/contracts/interfaces/draft-IERC6093.sol\":{\"content\":\"// SPDX-License-Identifier: MIT\\n// OpenZeppelin Contracts (last updated v5.0.0) (interfaces/draft-IERC6093.sol)\\npragma solidity ^0.8.20;\\n\\n/**\\n * @dev Standard ERC20 Errors\\n * Interface of the https://eips.ethereum.org/EIPS/eip-6093[ERC-6093] custom errors for ERC20 tokens.\\n */\\ninterface IERC20Errors {\\n    /**\\n     * @dev Indicates an error related to the current `balance` of a `sender`. Used in transfers.\\n     * @param sender Address whose tokens are being transferred.\\n     * @param balance Current balance for the interacting account.\\n     * @param needed Minimum amount required to perform a transfer.\\n     */\\n    error ERC20InsufficientBalance(address sender, uint256 balance, uint256 needed);\\n\\n    /**\\n     * @dev Indicates a failure with the token `sender`. Used in transfers.\\n     * @param sender Address whose tokens are being transferred.\\n     */\\n    error ERC20InvalidSender(address sender);\\n\\n    /**\\n     * @dev Indicates a failure with the token `receiver`. Used in transfers.\\n     * @param receiver Address to which tokens are being transferred.\\n     */\\n    error ERC20InvalidReceiver(address receiver);\\n\\n    /**\\n     * @dev Indicates a failure with the `spender`’s `allowance`. Used in transfers.\\n     * @param spender Address that may be allowed to operate on tokens without being their owner.\\n     * @param allowance Amount of tokens a `spender` is allowed to operate with.\\n     * @param needed Minimum amount required to perform a transfer.\\n     */\\n    error ERC20InsufficientAllowance(address spender, uint256 allowance, uint256 needed);\\n\\n    /**\\n     * @dev Indicates a failure with the `approver` of a token to be approved. Used in approvals.\\n     * @param approver Address initiating an approval operation.\\n     */\\n    error ERC20InvalidApprover(address approver);\\n\\n    /**\\n     * @dev Indicates a failure with the `spender` to be approved. Used in approvals.\\n     * @param spender Address that may be allowed to operate on tokens without being their owner.\\n     */\\n    error ERC20InvalidSpender(address spender);\\n}\\n\\n/**\\n * @dev Standard ERC721 Errors\\n * Interface of the https://eips.ethereum.org/EIPS/eip-6093[ERC-6093] custom errors for ERC721 tokens.\\n */\\ninterface IERC721Errors {\\n    /**\\n     * @dev Indicates that an address can't be an owner. For example, `address(0)` is a forbidden owner in EIP-20.\\n     * Used in balance queries.\\n     * @param owner Address of the current owner of a token.\\n     */\\n    error ERC721InvalidOwner(address owner);\\n\\n    /**\\n     * @dev Indicates a `tokenId` whose `owner` is the zero address.\\n     * @param tokenId Identifier number of a token.\\n     */\\n    error ERC721NonexistentToken(uint256 tokenId);\\n\\n    /**\\n     * @dev Indicates an error related to the ownership over a particular token. Used in transfers.\\n     * @param sender Address whose tokens are being transferred.\\n     * @param tokenId Identifier number of a token.\\n     * @param owner Address of the current owner of a token.\\n     */\\n    error ERC721IncorrectOwner(address sender, uint256 tokenId, address owner);\\n\\n    /**\\n     * @dev Indicates a failure with the token `sender`. Used in transfers.\\n     * @param sender Address whose tokens are being transferred.\\n     */\\n    error ERC721InvalidSender(address sender);\\n\\n    /**\\n     * @dev Indicates a failure with the token `receiver`. Used in transfers.\\n     * @param receiver Address to which tokens are being transferred.\\n     */\\n    error ERC721InvalidReceiver(address receiver);\\n\\n    /**\\n     * @dev Indicates a failure with the `operator`’s approval. Used in transfers.\\n     * @param operator Address that may be allowed to operate on tokens without being their owner.\\n     * @param tokenId Identifier number of a token.\\n     */\\n    error ERC721InsufficientApproval(address operator, uint256 tokenId);\\n\\n    /**\\n     * @dev Indicates a failure with the `approver` of a token to be approved. Used in approvals.\\n     * @param approver Address initiating an approval operation.\\n     */\\n    error ERC721InvalidApprover(address approver);\\n\\n    /**\\n     * @dev Indicates a failure with the `operator` to be approved. Used in approvals.\\n     * @param operator Address that may be allowed to operate on tokens without being their owner.\\n     */\\n    error ERC721InvalidOperator(address operator);\\n}\\n\\n/**\\n * @dev Standard ERC1155 Errors\\n * Interface of the https://eips.ethereum.org/EIPS/eip-6093[ERC-6093] custom errors for ERC1155 tokens.\\n */\\ninterface IERC1155Errors {\\n    /**\\n     * @dev Indicates an error related to the current `balance` of a `sender`. Used in transfers.\\n     * @param sender Address whose tokens are being transferred.\\n     * @param balance Current balance for the interacting account.\\n     * @param needed Minimum amount required to perform a transfer.\\n     * @param tokenId Identifier number of a token.\\n     */\\n    error ERC1155InsufficientBalance(address sender, uint256 balance, uint256 needed, uint256 tokenId);\\n\\n    /**\\n     * @dev Indicates a failure with the token `sender`. Used in transfers.\\n     * @param sender Address whose tokens are being transferred.\\n     */\\n    error ERC1155InvalidSender(address sender);\\n\\n    /**\\n     * @dev Indicates a failure with the token `receiver`. Used in transfers.\\n     * @param receiver Address to which tokens are being transferred.\\n     */\\n    error ERC1155InvalidReceiver(address receiver);\\n\\n    /**\\n     * @dev Indicates a failure with the `operator`’s approval. Used in transfers.\\n     * @param operator Address that may be allowed to operate on tokens without being their owner.\\n     * @param owner Address of the current owner of a token.\\n     */\\n    error ERC1155MissingApprovalForAll(address operator, address owner);\\n\\n    /**\\n     * @dev Indicates a failure with the `approver` of a token to be approved. Used in approvals.\\n     * @param approver Address initiating an approval operation.\\n     */\\n    error ERC1155InvalidApprover(address approver);\\n\\n    /**\\n     * @dev Indicates a failure with the `operator` to be approved. Used in approvals.\\n     * @param operator Address that may be allowed to operate on tokens without being their owner.\\n     */\\n    error ERC1155InvalidOperator(address operator);\\n\\n    /**\\n     * @dev Indicates an array length mismatch between ids and values in a safeBatchTransferFrom operation.\\n     * Used in batch transfers.\\n     * @param idsLength Length of the array of token identifiers\\n     * @param valuesLength Length of the array of token amounts\\n     */\\n    error ERC1155InvalidArrayLength(uint256 idsLength, uint256 valuesLength);\\n}\\n\"},\"@openzeppelin/contracts/utils/introspection/ERC165.sol\":{\"content\":\"// SPDX-License-Identifier: MIT\\n// OpenZeppelin Contracts (last updated v5.0.0) (utils/introspection/ERC165.sol)\\n\\npragma solidity ^0.8.20;\\n\\nimport {IERC165} from \\\"./IERC165.sol\\\";\\n\\n/**\\n * @dev Implementation of the {IERC165} interface.\\n *\\n * Contracts that want to implement ERC165 should inherit from this contract and override {supportsInterface} to check\\n * for the additional interface id that will be supported. For example:\\n *\\n * ```solidity\\n * function supportsInterface(bytes4 interfaceId) public view virtual override returns (bool) {\\n *     return interfaceId == type(MyInterface).interfaceId || super.supportsInterface(interfaceId);\\n * }\\n * ```\\n */\\nabstract contract ERC165 is IERC165 {\\n    /**\\n     * @dev See {IERC165-supportsInterface}.\\n     */\\n    function supportsInterface(bytes4 interfaceId) public view virtual returns (bool) {\\n        return interfaceId == type(IERC165).interfaceId;\\n    }\\n}\\n\"},\"@openzeppelin/contracts/utils/Strings.sol\":{\"content\":\"// SPDX-License-Identifier: MIT\\n// OpenZeppelin Contracts (last updated v5.0.0) (utils/Strings.sol)\\n\\npragma solidity ^0.8.20;\\n\\nimport {Math} from \\\"./math/Math.sol\\\";\\nimport {SignedMath} from \\\"./math/SignedMath.sol\\\";\\n\\n/**\\n * @dev String operations.\\n */\\nlibrary Strings {\\n    bytes16 private constant HEX_DIGITS = \\\"0123456789abcdef\\\";\\n    uint8 private constant ADDRESS_LENGTH = 20;\\n\\n    /**\\n     * @dev The `value` string doesn't fit in the specified `length`.\\n     */\\n    error StringsInsufficientHexLength(uint256 value, uint256 length);\\n\\n    /**\\n     * @dev Converts a `uint256` to its ASCII `string` decimal representation.\\n     */\\n    function toString(uint256 value) internal pure returns (string memory) {\\n        unchecked {\\n            uint256 length = Math.log10(value) + 1;\\n            string memory buffer = new string(length);\\n            uint256 ptr;\\n            /// @solidity memory-safe-assembly\\n            assembly {\\n                ptr := add(buffer, add(32, length))\\n            }\\n            while (true) {\\n                ptr--;\\n                /// @solidity memory-safe-assembly\\n                assembly {\\n                    mstore8(ptr, byte(mod(value, 10), HEX_DIGITS))\\n                }\\n                value /= 10;\\n                if (value == 0) break;\\n            }\\n            return buffer;\\n        }\\n    }\\n\\n    /**\\n     * @dev Converts a `int256` to its ASCII `string` decimal representation.\\n     */\\n    function toStringSigned(int256 value) internal pure returns (string memory) {\\n        return string.concat(value < 0 ? \\\"-\\\" : \\\"\\\", toString(SignedMath.abs(value)));\\n    }\\n\\n    /**\\n     * @dev Converts a `uint256` to its ASCII `string` hexadecimal representation.\\n     */\\n    function toHexString(uint256 value) internal pure returns (string memory) {\\n        unchecked {\\n            return toHexString(value, Math.log256(value) + 1);\\n        }\\n    }\\n\\n    /**\\n     * @dev Converts a `uint256` to its ASCII `string` hexadecimal representation with fixed length.\\n     */\\n    function toHexString(uint256 value, uint256 length) internal pure returns (string memory) {\\n        uint256 localValue = value;\\n        bytes memory buffer = new bytes(2 * length + 2);\\n        buffer[0] = \\\"0\\\";\\n        buffer[1] = \\\"x\\\";\\n        for (uint256 i = 2 * length + 1; i > 1; --i) {\\n            buffer[i] = HEX_DIGITS[localValue & 0xf];\\n            localValue >>= 4;\\n        }\\n        if (localValue != 0) {\\n            revert StringsInsufficientHexLength(value, length);\\n        }\\n        return string(buffer);\\n    }\\n\\n    /**\\n     * @dev Converts an `address` with fixed length of 20 bytes to its not checksummed ASCII `string` hexadecimal\\n     * representation.\\n     */\\n    function toHexString(address addr) internal pure returns (string memory) {\\n        return toHexString(uint256(uint160(addr)), ADDRESS_LENGTH);\\n    }\\n\\n    /**\\n     * @dev Returns true if the two strings are equal.\\n     */\\n    function equal(string memory a, string memory b) internal pure returns (bool) {\\n        return bytes(a).length == bytes(b).length && keccak256(bytes(a)) == keccak256(bytes(b));\\n    }\\n}\\n\"},\"@openzeppelin/contracts/utils/Context.sol\":{\"content\":\"// SPDX-License-Identifier: MIT\\n// OpenZeppelin Contracts (last updated v5.0.1) (utils/Context.sol)\\n\\npragma solidity ^0.8.20;\\n\\n/**\\n * @dev Provides information about the current execution context, including the\\n * sender of the transaction and its data. While these are generally available\\n * via msg.sender and msg.data, they should not be accessed in such a direct\\n * manner, since when dealing with meta-transactions the account sending and\\n * paying for execution may not be the actual sender (as far as an application\\n * is concerned).\\n *\\n * This contract is only required for intermediate, library-like contracts.\\n */\\nabstract contract Context {\\n    function _msgSender() internal view virtual returns (address) {\\n        return msg.sender;\\n    }\\n\\n    function _msgData() internal view virtual returns (bytes calldata) {\\n        return msg.data;\\n    }\\n\\n    function _contextSuffixLength() internal view virtual returns (uint256) {\\n        return 0;\\n    }\\n}\\n\"},\"@openzeppelin/contracts/token/ERC721/extensions/IERC721Metadata.sol\":{\"content\":\"// SPDX-License-Identifier: MIT\\n// OpenZeppelin Contracts (last updated v5.0.0) (token/ERC721/extensions/IERC721Metadata.sol)\\n\\npragma solidity ^0.8.20;\\n\\nimport {IERC721} from \\\"../IERC721.sol\\\";\\n\\n/**\\n * @title ERC-721 Non-Fungible Token Standard, optional metadata extension\\n * @dev See https://eips.ethereum.org/EIPS/eip-721\\n */\\ninterface IERC721Metadata is IERC721 {\\n    /**\\n     * @dev Returns the token collection name.\\n     */\\n    function name() external view returns (string memory);\\n\\n    /**\\n     * @dev Returns the token collection symbol.\\n     */\\n    function symbol() external view returns (string memory);\\n\\n    /**\\n     * @dev Returns the Uniform Resource Identifier (URI) for `tokenId` token.\\n     */\\n    function tokenURI(uint256 tokenId) external view returns (string memory);\\n}\\n\"},\"@openzeppelin/contracts/token/ERC721/IERC721Receiver.sol\":{\"content\":\"// SPDX-License-Identifier: MIT\\n// OpenZeppelin Contracts (last updated v5.0.0) (token/ERC721/IERC721Receiver.sol)\\n\\npragma solidity ^0.8.20;\\n\\n/**\\n * @title ERC721 token receiver interface\\n * @dev Interface for any contract that wants to support safeTransfers\\n * from ERC721 asset contracts.\\n */\\ninterface IERC721Receiver {\\n    /**\\n     * @dev Whenever an {IERC721} `tokenId` token is transferred to this contract via {IERC721-safeTransferFrom}\\n     * by `operator` from `from`, this function is called.\\n     *\\n     * It must return its Solidity selector to confirm the token transfer.\\n     * If any other value is returned or the interface is not implemented by the recipient, the transfer will be\\n     * reverted.\\n     *\\n     * The selector can be obtained in Solidity with `IERC721Receiver.onERC721Received.selector`.\\n     */\\n    function onERC721Received(\\n        address operator,\\n        address from,\\n        uint256 tokenId,\\n        bytes calldata data\\n    ) external returns (bytes4);\\n}\\n\"},\"@openzeppelin/contracts/token/ERC721/IERC721.sol\":{\"content\":\"// SPDX-License-Identifier: MIT\\n// OpenZeppelin Contracts (last updated v5.0.0) (token/ERC721/IERC721.sol)\\n\\npragma solidity ^0.8.20;\\n\\nimport {IERC165} from \\\"../../utils/introspection/IERC165.sol\\\";\\n\\n/**\\n * @dev Required interface of an ERC721 compliant contract.\\n */\\ninterface IERC721 is IERC165 {\\n    /**\\n     * @dev Emitted when `tokenId` token is transferred from `from` to `to`.\\n     */\\n    event Transfer(address indexed from, address indexed to, uint256 indexed tokenId);\\n\\n    /**\\n     * @dev Emitted when `owner` enables `approved` to manage the `tokenId` token.\\n     */\\n    event Approval(address indexed owner, address indexed approved, uint256 indexed tokenId);\\n\\n    /**\\n     * @dev Emitted when `owner` enables or disables (`approved`) `operator` to manage all of its assets.\\n     */\\n    event ApprovalForAll(address indexed owner, address indexed operator, bool approved);\\n\\n    /**\\n     * @dev Returns the number of tokens in ``owner``'s account.\\n     */\\n    function balanceOf(address owner) external view returns (uint256 balance);\\n\\n    /**\\n     * @dev Returns the owner of the `tokenId` token.\\n     *\\n     * Requirements:\\n     *\\n     * - `tokenId` must exist.\\n     */\\n    function ownerOf(uint256 tokenId) external view returns (address owner);\\n\\n    /**\\n     * @dev Safely transfers `tokenId` token from `from` to `to`.\\n     *\\n     * Requirements:\\n     *\\n     * - `from` cannot be the zero address.\\n     * - `to` cannot be the zero address.\\n     * - `tokenId` token must exist and be owned by `from`.\\n     * - If the caller is not `from`, it must be approved to move this token by either {approve} or {setApprovalForAll}.\\n     * - If `to` refers to a smart contract, it must implement {IERC721Receiver-onERC721Received}, which is called upon\\n     *   a safe transfer.\\n     *\\n     * Emits a {Transfer} event.\\n     */\\n    function safeTransferFrom(address from, address to, uint256 tokenId, bytes calldata data) external;\\n\\n    /**\\n     * @dev Safely transfers `tokenId` token from `from` to `to`, checking first that contract recipients\\n     * are aware of the ERC721 protocol to prevent tokens from being forever locked.\\n     *\\n     * Requirements:\\n     *\\n     * - `from` cannot be the zero address.\\n     * - `to` cannot be the zero address.\\n     * - `tokenId` token must exist and be owned by `from`.\\n     * - If the caller is not `from`, it must have been allowed to move this token by either {approve} or\\n     *   {setApprovalForAll}.\\n     * - If `to` refers to a smart contract, it must implement {IERC721Receiver-onERC721Received}, which is called upon\\n     *   a safe transfer.\\n     *\\n     * Emits a {Transfer} event.\\n     */\\n    function safeTransferFrom(address from, address to, uint256 tokenId) external;\\n\\n    /**\\n     * @dev Transfers `tokenId` token from `from` to `to`.\\n     *\\n     * WARNING: Note that the caller is responsible to confirm that the recipient is capable of receiving ERC721\\n     * or else they may be permanently lost. Usage of {safeTransferFrom} prevents loss, though the caller must\\n     * understand this adds an external call which potentially creates a reentrancy vulnerability.\\n     *\\n     * Requirements:\\n     *\\n     * - `from` cannot be the zero address.\\n     * - `to` cannot be the zero address.\\n     * - `tokenId` token must be owned by `from`.\\n     * - If the caller is not `from`, it must be approved to move this token by either {approve} or {setApprovalForAll}.\\n     *\\n     * Emits a {Transfer} event.\\n     */\\n    function transferFrom(address from, address to, uint256 tokenId) external;\\n\\n    /**\\n     * @dev Gives permission to `to` to transfer `tokenId` token to another account.\\n     * The approval is cleared when the token is transferred.\\n     *\\n     * Only a single account can be approved at a time, so approving the zero address clears previous approvals.\\n     *\\n     * Requirements:\\n     *\\n     * - The caller must own the token or be an approved operator.\\n     * - `tokenId` must exist.\\n     *\\n     * Emits an {Approval} event.\\n     */\\n    function approve(address to, uint256 tokenId) external;\\n\\n    /**\\n     * @dev Approve or remove `operator` as an operator for the caller.\\n     * Operators can call {transferFrom} or {safeTransferFrom} for any token owned by the caller.\\n     *\\n     * Requirements:\\n     *\\n     * - The `operator` cannot be the address zero.\\n     *\\n     * Emits an {ApprovalForAll} event.\\n     */\\n    function setApprovalForAll(address operator, bool approved) external;\\n\\n    /**\\n     * @dev Returns the account approved for `tokenId` token.\\n     *\\n     * Requirements:\\n     *\\n     * - `tokenId` must exist.\\n     */\\n    function getApproved(uint256 tokenId) external view returns (address operator);\\n\\n    /**\\n     * @dev Returns if the `operator` is allowed to manage all of the assets of `owner`.\\n     *\\n     * See {setApprovalForAll}\\n     */\\n    function isApprovedForAll(address owner, address operator) external view returns (bool);\\n}\\n\"},\"@openzeppelin/contracts/utils/introspection/IERC165.sol\":{\"content\":\"// SPDX-License-Identifier: MIT\\n// OpenZeppelin Contracts (last updated v5.0.0) (utils/introspection/IERC165.sol)\\n\\npragma solidity ^0.8.20;\\n\\n/**\\n * @dev Interface of the ERC165 standard, as defined in the\\n * https://eips.ethereum.org/EIPS/eip-165[EIP].\\n *\\n * Implementers can declare support of contract interfaces, which can then be\\n * queried by others ({ERC165Checker}).\\n *\\n * For an implementation, see {ERC165}.\\n */\\ninterface IERC165 {\\n    /**\\n     * @dev Returns true if this contract implements the interface defined by\\n     * `interfaceId`. See the corresponding\\n     * https://eips.ethereum.org/EIPS/eip-165#how-interfaces-are-identified[EIP section]\\n     * to learn more about how these ids are created.\\n     *\\n     * This function call must use less than 30 000 gas.\\n     */\\n    function supportsInterface(bytes4 interfaceId) external view returns (bool);\\n}\\n\"},\"@openzeppelin/contracts/utils/math/SignedMath.sol\":{\"content\":\"// SPDX-License-Identifier: MIT\\n// OpenZeppelin Contracts (last updated v5.0.0) (utils/math/SignedMath.sol)\\n\\npragma solidity ^0.8.20;\\n\\n/**\\n * @dev Standard signed math utilities missing in the Solidity language.\\n */\\nlibrary SignedMath {\\n    /**\\n     * @dev Returns the largest of two signed numbers.\\n     */\\n    function max(int256 a, int256 b) internal pure returns (int256) {\\n        return a > b ? a : b;\\n    }\\n\\n    /**\\n     * @dev Returns the smallest of two signed numbers.\\n     */\\n    function min(int256 a, int256 b) internal pure returns (int256) {\\n        return a < b ? a : b;\\n    }\\n\\n    /**\\n     * @dev Returns the average of two signed numbers without overflow.\\n     * The result is rounded towards zero.\\n     */\\n    function average(int256 a, int256 b) internal pure returns (int256) {\\n        // Formula from the book \\\"Hacker's Delight\\\"\\n        int256 x = (a & b) + ((a ^ b) >> 1);\\n        return x + (int256(uint256(x) >> 255) & (a ^ b));\\n    }\\n\\n    /**\\n     * @dev Returns the absolute unsigned value of a signed value.\\n     */\\n    function abs(int256 n) internal pure returns (uint256) {\\n        unchecked {\\n            // must be unchecked in order to support `n = type(int256).min`\\n            return uint256(n >= 0 ? n : -n);\\n        }\\n    }\\n}\\n\"},\"@openzeppelin/contracts/utils/math/Math.sol\":{\"content\":\"// SPDX-License-Identifier: MIT\\n// OpenZeppelin Contracts (last updated v5.0.0) (utils/math/Math.sol)\\n\\npragma solidity ^0.8.20;\\n\\n/**\\n * @dev Standard math utilities missing in the Solidity language.\\n */\\nlibrary Math {\\n    /**\\n     * @dev Muldiv operation overflow.\\n     */\\n    error MathOverflowedMulDiv();\\n\\n    enum Rounding {\\n        Floor, // Toward negative infinity\\n        Ceil, // Toward positive infinity\\n        Trunc, // Toward zero\\n        Expand // Away from zero\\n    }\\n\\n    /**\\n     * @dev Returns the addition of two unsigned integers, with an overflow flag.\\n     */\\n    function tryAdd(uint256 a, uint256 b) internal pure returns (bool, uint256) {\\n        unchecked {\\n            uint256 c = a + b;\\n            if (c < a) return (false, 0);\\n            return (true, c);\\n        }\\n    }\\n\\n    /**\\n     * @dev Returns the subtraction of two unsigned integers, with an overflow flag.\\n     */\\n    function trySub(uint256 a, uint256 b) internal pure returns (bool, uint256) {\\n        unchecked {\\n            if (b > a) return (false, 0);\\n            return (true, a - b);\\n        }\\n    }\\n\\n    /**\\n     * @dev Returns the multiplication of two unsigned integers, with an overflow flag.\\n     */\\n    function tryMul(uint256 a, uint256 b) internal pure returns (bool, uint256) {\\n        unchecked {\\n            // Gas optimization: this is cheaper than requiring 'a' not being zero, but the\\n            // benefit is lost if 'b' is also tested.\\n            // See: https://github.com/OpenZeppelin/openzeppelin-contracts/pull/522\\n            if (a == 0) return (true, 0);\\n            uint256 c = a * b;\\n            if (c / a != b) return (false, 0);\\n            return (true, c);\\n        }\\n    }\\n\\n    /**\\n     * @dev Returns the division of two unsigned integers, with a division by zero flag.\\n     */\\n    function tryDiv(uint256 a, uint256 b) internal pure returns (bool, uint256) {\\n        unchecked {\\n            if (b == 0) return (false, 0);\\n            return (true, a / b);\\n        }\\n    }\\n\\n    /**\\n     * @dev Returns the remainder of dividing two unsigned integers, with a division by zero flag.\\n     */\\n    function tryMod(uint256 a, uint256 b) internal pure returns (bool, uint256) {\\n        unchecked {\\n            if (b == 0) return (false, 0);\\n            return (true, a % b);\\n        }\\n    }\\n\\n    /**\\n     * @dev Returns the largest of two numbers.\\n     */\\n    function max(uint256 a, uint256 b) internal pure returns (uint256) {\\n        return a > b ? a : b;\\n    }\\n\\n    /**\\n     * @dev Returns the smallest of two numbers.\\n     */\\n    function min(uint256 a, uint256 b) internal pure returns (uint256) {\\n        return a < b ? a : b;\\n    }\\n\\n    /**\\n     * @dev Returns the average of two numbers. The result is rounded towards\\n     * zero.\\n     */\\n    function average(uint256 a, uint256 b) internal pure returns (uint256) {\\n        // (a + b) / 2 can overflow.\\n        return (a & b) + (a ^ b) / 2;\\n    }\\n\\n    /**\\n     * @dev Returns the ceiling of the division of two numbers.\\n     *\\n     * This differs from standard division with `/` in that it rounds towards infinity instead\\n     * of rounding towards zero.\\n     */\\n    function ceilDiv(uint256 a, uint256 b) internal pure returns (uint256) {\\n        if (b == 0) {\\n            // Guarantee the same behavior as in a regular Solidity division.\\n            return a / b;\\n        }\\n\\n        // (a + b - 1) / b can overflow on addition, so we distribute.\\n        return a == 0 ? 0 : (a - 1) / b + 1;\\n    }\\n\\n    /**\\n     * @notice Calculates floor(x * y / denominator) with full precision. Throws if result overflows a uint256 or\\n     * denominator == 0.\\n     * @dev Original credit to Remco Bloemen under MIT license (https://xn--2-umb.com/21/muldiv) with further edits by\\n     * Uniswap Labs also under MIT license.\\n     */\\n    function mulDiv(uint256 x, uint256 y, uint256 denominator) internal pure returns (uint256 result) {\\n        unchecked {\\n            // 512-bit multiply [prod1 prod0] = x * y. Compute the product mod 2^256 and mod 2^256 - 1, then use\\n            // use the Chinese Remainder Theorem to reconstruct the 512 bit result. The result is stored in two 256\\n            // variables such that product = prod1 * 2^256 + prod0.\\n            uint256 prod0 = x * y; // Least significant 256 bits of the product\\n            uint256 prod1; // Most significant 256 bits of the product\\n            assembly {\\n                let mm := mulmod(x, y, not(0))\\n                prod1 := sub(sub(mm, prod0), lt(mm, prod0))\\n            }\\n\\n            // Handle non-overflow cases, 256 by 256 division.\\n            if (prod1 == 0) {\\n                // Solidity will revert if denominator == 0, unlike the div opcode on its own.\\n                // The surrounding unchecked block does not change this fact.\\n                // See https://docs.soliditylang.org/en/latest/control-structures.html#checked-or-unchecked-arithmetic.\\n                return prod0 / denominator;\\n            }\\n\\n            // Make sure the result is less than 2^256. Also prevents denominator == 0.\\n            if (denominator <= prod1) {\\n                revert MathOverflowedMulDiv();\\n            }\\n\\n            ///////////////////////////////////////////////\\n            // 512 by 256 division.\\n            ///////////////////////////////////////////////\\n\\n            // Make division exact by subtracting the remainder from [prod1 prod0].\\n            uint256 remainder;\\n            assembly {\\n                // Compute remainder using mulmod.\\n                remainder := mulmod(x, y, denominator)\\n\\n                // Subtract 256 bit number from 512 bit number.\\n                prod1 := sub(prod1, gt(remainder, prod0))\\n                prod0 := sub(prod0, remainder)\\n            }\\n\\n            // Factor powers of two out of denominator and compute largest power of two divisor of denominator.\\n            // Always >= 1. See https://cs.stackexchange.com/q/138556/92363.\\n\\n            uint256 twos = denominator & (0 - denominator);\\n            assembly {\\n                // Divide denominator by twos.\\n                denominator := div(denominator, twos)\\n\\n                // Divide [prod1 prod0] by twos.\\n                prod0 := div(prod0, twos)\\n\\n                // Flip twos such that it is 2^256 / twos. If twos is zero, then it becomes one.\\n                twos := add(div(sub(0, twos), twos), 1)\\n            }\\n\\n            // Shift in bits from prod1 into prod0.\\n            prod0 |= prod1 * twos;\\n\\n            // Invert denominator mod 2^256. Now that denominator is an odd number, it has an inverse modulo 2^256 such\\n            // that denominator * inv = 1 mod 2^256. Compute the inverse by starting with a seed that is correct for\\n            // four bits. That is, denominator * inv = 1 mod 2^4.\\n            uint256 inverse = (3 * denominator) ^ 2;\\n\\n            // Use the Newton-Raphson iteration to improve the precision. Thanks to Hensel's lifting lemma, this also\\n            // works in modular arithmetic, doubling the correct bits in each step.\\n            inverse *= 2 - denominator * inverse; // inverse mod 2^8\\n            inverse *= 2 - denominator * inverse; // inverse mod 2^16\\n            inverse *= 2 - denominator * inverse; // inverse mod 2^32\\n            inverse *= 2 - denominator * inverse; // inverse mod 2^64\\n            inverse *= 2 - denominator * inverse; // inverse mod 2^128\\n            inverse *= 2 - denominator * inverse; // inverse mod 2^256\\n\\n            // Because the division is now exact we can divide by multiplying with the modular inverse of denominator.\\n            // This will give us the correct result modulo 2^256. Since the preconditions guarantee that the outcome is\\n            // less than 2^256, this is the final result. We don't need to compute the high bits of the result and prod1\\n            // is no longer required.\\n            result = prod0 * inverse;\\n            return result;\\n        }\\n    }\\n\\n    /**\\n     * @notice Calculates x * y / denominator with full precision, following the selected rounding direction.\\n     */\\n    function mulDiv(uint256 x, uint256 y, uint256 denominator, Rounding rounding) internal pure returns (uint256) {\\n        uint256 result = mulDiv(x, y, denominator);\\n        if (unsignedRoundsUp(rounding) && mulmod(x, y, denominator) > 0) {\\n            result += 1;\\n        }\\n        return result;\\n    }\\n\\n    /**\\n     * @dev Returns the square root of a number. If the number is not a perfect square, the value is rounded\\n     * towards zero.\\n     *\\n     * Inspired by Henry S. Warren, Jr.'s \\\"Hacker's Delight\\\" (Chapter 11).\\n     */\\n    function sqrt(uint256 a) internal pure returns (uint256) {\\n        if (a == 0) {\\n            return 0;\\n        }\\n\\n        // For our first guess, we get the biggest power of 2 which is smaller than the square root of the target.\\n        //\\n        // We know that the \\\"msb\\\" (most significant bit) of our target number `a` is a power of 2 such that we have\\n        // `msb(a) <= a < 2*msb(a)`. This value can be written `msb(a)=2**k` with `k=log2(a)`.\\n        //\\n        // This can be rewritten `2**log2(a) <= a < 2**(log2(a) + 1)`\\n        // → `sqrt(2**k) <= sqrt(a) < sqrt(2**(k+1))`\\n        // → `2**(k/2) <= sqrt(a) < 2**((k+1)/2) <= 2**(k/2 + 1)`\\n        //\\n        // Consequently, `2**(log2(a) / 2)` is a good first approximation of `sqrt(a)` with at least 1 correct bit.\\n        uint256 result = 1 << (log2(a) >> 1);\\n\\n        // At this point `result` is an estimation with one bit of precision. We know the true value is a uint128,\\n        // since it is the square root of a uint256. Newton's method converges quadratically (precision doubles at\\n        // every iteration). We thus need at most 7 iteration to turn our partial result with one bit of precision\\n        // into the expected uint128 result.\\n        unchecked {\\n            result = (result + a / result) >> 1;\\n            result = (result + a / result) >> 1;\\n            result = (result + a / result) >> 1;\\n            result = (result + a / result) >> 1;\\n            result = (result + a / result) >> 1;\\n            result = (result + a / result) >> 1;\\n            result = (result + a / result) >> 1;\\n            return min(result, a / result);\\n        }\\n    }\\n\\n    /**\\n     * @notice Calculates sqrt(a), following the selected rounding direction.\\n     */\\n    function sqrt(uint256 a, Rounding rounding) internal pure returns (uint256) {\\n        unchecked {\\n            uint256 result = sqrt(a);\\n            return result + (unsignedRoundsUp(rounding) && result * result < a ? 1 : 0);\\n        }\\n    }\\n\\n    /**\\n     * @dev Return the log in base 2 of a positive value rounded towards zero.\\n     * Returns 0 if given 0.\\n     */\\n    function log2(uint256 value) internal pure returns (uint256) {\\n        uint256 result = 0;\\n        unchecked {\\n            if (value >> 128 > 0) {\\n                value >>= 128;\\n                result += 128;\\n            }\\n            if (value >> 64 > 0) {\\n                value >>= 64;\\n                result += 64;\\n            }\\n            if (value >> 32 > 0) {\\n                value >>= 32;\\n                result += 32;\\n            }\\n            if (value >> 16 > 0) {\\n                value >>= 16;\\n                result += 16;\\n            }\\n            if (value >> 8 > 0) {\\n                value >>= 8;\\n                result += 8;\\n            }\\n            if (value >> 4 > 0) {\\n                value >>= 4;\\n                result += 4;\\n            }\\n            if (value >> 2 > 0) {\\n                value >>= 2;\\n                result += 2;\\n            }\\n            if (value >> 1 > 0) {\\n                result += 1;\\n            }\\n        }\\n        return result;\\n    }\\n\\n    /**\\n     * @dev Return the log in base 2, following the selected rounding direction, of a positive value.\\n     * Returns 0 if given 0.\\n     */\\n    function log2(uint256 value, Rounding rounding) internal pure returns (uint256) {\\n        unchecked {\\n            uint256 result = log2(value);\\n            return result + (unsignedRoundsUp(rounding) && 1 << result < value ? 1 : 0);\\n        }\\n    }\\n\\n    /**\\n     * @dev Return the log in base 10 of a positive value rounded towards zero.\\n     * Returns 0 if given 0.\\n     */\\n    function log10(uint256 value) internal pure returns (uint256) {\\n        uint256 result = 0;\\n        unchecked {\\n            if (value >= 10 ** 64) {\\n                value /= 10 ** 64;\\n                result += 64;\\n            }\\n            if (value >= 10 ** 32) {\\n                value /= 10 ** 32;\\n                result += 32;\\n            }\\n            if (value >= 10 ** 16) {\\n                value /= 10 ** 16;\\n                result += 16;\\n            }\\n            if (value >= 10 ** 8) {\\n                value /= 10 ** 8;\\n                result += 8;\\n            }\\n            if (value >= 10 ** 4) {\\n                value /= 10 ** 4;\\n                result += 4;\\n            }\\n            if (value >= 10 ** 2) {\\n                value /= 10 ** 2;\\n                result += 2;\\n            }\\n            if (value >= 10 ** 1) {\\n                result += 1;\\n            }\\n        }\\n        return result;\\n    }\\n\\n    /**\\n     * @dev Return the log in base 10, following the selected rounding direction, of a positive value.\\n     * Returns 0 if given 0.\\n     */\\n    function log10(uint256 value, Rounding rounding) internal pure returns (uint256) {\\n        unchecked {\\n            uint256 result = log10(value);\\n            return result + (unsignedRoundsUp(rounding) && 10 ** result < value ? 1 : 0);\\n        }\\n    }\\n\\n    /**\\n     * @dev Return the log in base 256 of a positive value rounded towards zero.\\n     * Returns 0 if given 0.\\n     *\\n     * Adding one to the result gives the number of pairs of hex symbols needed to represent `value` as a hex string.\\n     */\\n    function log256(uint256 value) internal pure returns (uint256) {\\n        uint256 result = 0;\\n        unchecked {\\n            if (value >> 128 > 0) {\\n                value >>= 128;\\n                result += 16;\\n            }\\n            if (value >> 64 > 0) {\\n                value >>= 64;\\n                result += 8;\\n            }\\n            if (value >> 32 > 0) {\\n                value >>= 32;\\n                result += 4;\\n            }\\n            if (value >> 16 > 0) {\\n                value >>= 16;\\n                result += 2;\\n            }\\n            if (value >> 8 > 0) {\\n                result += 1;\\n            }\\n        }\\n        return result;\\n    }\\n\\n    /**\\n     * @dev Return the log in base 256, following the selected rounding direction, of a positive value.\\n     * Returns 0 if given 0.\\n     */\\n    function log256(uint256 value, Rounding rounding) internal pure returns (uint256) {\\n        unchecked {\\n            uint256 result = log256(value);\\n            return result + (unsignedRoundsUp(rounding) && 1 << (result << 3) < value ? 1 : 0);\\n        }\\n    }\\n\\n    /**\\n     * @dev Returns whether a provided rounding mode is considered rounding up for unsigned integers.\\n     */\\n    function unsignedRoundsUp(Rounding rounding) internal pure returns (bool) {\\n        return uint8(rounding) % 2 == 1;\\n    }\\n}\\n\"}},\"settings\":{\"optimizer\":{\"enabled\":true,\"runs\":200},\"outputSelection\":{\"*\":{\"\":[\"ast\"],\"*\":[\"abi\",\"metadata\",\"devdoc\",\"userdoc\",\"storageLayout\",\"evm.legacyAssembly\",\"evm.bytecode\",\"evm.deployedBytecode\",\"evm.methodIdentifiers\",\"evm.gasEstimates\",\"evm.assembly\"]}},\"remappings\":[]}}",
	"name": "Quest",
	"bytecode": {
		"linkReferences": {},
		"object": "60a060405234801562000010575f80fd5b506040516200145938038062001459833981016040819052620000339162000129565b8060405180604001604052806008815260200167145d595cdd13919560c21b815250604051806040016040528060048152602001631453919560e21b815250815f908162000082919062000205565b50600162000091828262000205565b5050506001600160a01b038116620000c257604051631e4fbdf760e01b81525f600482015260240160405180910390fd5b620000cd81620000d8565b5050608052620002cd565b600680546001600160a01b038381166001600160a01b0319831681179093556040519116919082907f8be0079c531659141344cd1fd0a4f28419497f9722a3daafe3b4186f6b6457e0905f90a35050565b5f80604083850312156200013b575f80fd5b825160208401519092506001600160a01b03811681146200015a575f80fd5b809150509250929050565b634e487b7160e01b5f52604160045260245ffd5b600181811c908216806200018e57607f821691505b602082108103620001ad57634e487b7160e01b5f52602260045260245ffd5b50919050565b601f82111562000200575f81815260208120601f850160051c81016020861015620001db5750805b601f850160051c820191505b81811015620001fc57828155600101620001e7565b5050505b505050565b81516001600160401b0381111562000221576200022162000165565b620002398162000232845462000179565b84620001b3565b602080601f8311600181146200026f575f8415620002575750858301515b5f19600386901b1c1916600185901b178555620001fc565b5f85815260208120601f198616915b828110156200029f578886015182559484019460019091019084016200027e565b5085821015620002bd57878501515f19600388901b60f8161c191681555b5050505050600190811b01905550565b608051611173620002e65f395f6101ee01526111735ff3fe608060405234801561000f575f80fd5b5060043610610127575f3560e01c8063715018a6116100a9578063b88d4fde1161006e578063b88d4fde14610284578063c87b56dd14610297578063e985e9c5146102aa578063f2fde38b146102bd578063f9931855146102d0575f80fd5b8063715018a6146102315780638da5cb5b1461023957806395d89b411461024a578063a22cb46514610252578063a693b19f14610265575f80fd5b806323b872dd116100ef57806323b872dd146101b057806342842e0e146101c35780636352211e146101d6578063676dd563146101e957806370a082311461021e575f80fd5b806301ffc9a71461012b57806306fdde0314610153578063081812fc14610168578063095ea7b3146101935780631249c58b146101a8575b5f80fd5b61013e610139366004610de3565b6102ef565b60405190151581526020015b60405180910390f35b61015b610340565b60405161014a9190610e4b565b61017b610176366004610e5d565b6103cf565b6040516001600160a01b03909116815260200161014a565b6101a66101a1366004610e8f565b6103f6565b005b6101a6610405565b6101a66101be366004610eb7565b610477565b6101a66101d1366004610eb7565b610505565b61017b6101e4366004610e5d565b610524565b6102107f000000000000000000000000000000000000000000000000000000000000000081565b60405190815260200161014a565b61021061022c366004610ef0565b61052e565b6101a6610573565b6006546001600160a01b031661017b565b61015b610586565b6101a6610260366004610f09565b610595565b610210610273366004610ef0565b60096020525f908152604090205481565b6101a6610292366004610f56565b6105a0565b61015b6102a5366004610e5d565b6105b7565b61013e6102b836600461102b565b610628565b6101a66102cb366004610ef0565b610655565b6102106102de366004610ef0565b60086020525f908152604090205481565b5f6001600160e01b031982166380ac58cd60e01b148061031f57506001600160e01b03198216635b5e139f60e01b145b8061033a57506301ffc9a760e01b6001600160e01b03198316145b92915050565b60605f805461034e9061105c565b80601f016020809104026020016040519081016040528092919081815260200182805461037a9061105c565b80156103c55780601f1061039c576101008083540402835291602001916103c5565b820191905f5260205f20905b8154815290600101906020018083116103a857829003601f168201915b5050505050905090565b5f6103d982610692565b505f828152600460205260409020546001600160a01b031661033a565b6104018282336106ca565b5050565b60078054905f61041483611094565b909155505060075461042633826106d7565b335f8181526009602090815260409182902042905581518481526001918101919091527f8fa3ff725d2f7190c5e5dd9bc88f241a72b239e127e347dccdfc28e44e5e0963910160405180910390a250565b6001600160a01b0382166104a557604051633250574960e11b81525f60048201526024015b60405180910390fd5b5f6104b18383336106f0565b9050836001600160a01b0316816001600160a01b0316146104ff576040516364283d7b60e01b81526001600160a01b038086166004830152602482018490528216604482015260640161049c565b50505050565b61051f83838360405180602001604052805f8152506105a0565b505050565b5f61033a82610692565b5f6001600160a01b038216610558576040516322718ad960e21b81525f600482015260240161049c565b506001600160a01b03165f9081526003602052604090205490565b61057b6107e2565b6105845f61080f565b565b60606001805461034e9061105c565b610401338383610860565b6105ab848484610477565b6104ff848484846108fe565b60606105c282610692565b505f6105d860408051602081019091525f815290565b90505f8151116105f65760405180602001604052805f815250610621565b8061060084610a24565b6040516020016106119291906110b8565b6040516020818303038152906040525b9392505050565b6001600160a01b039182165f90815260056020908152604080832093909416825291909152205460ff1690565b61065d6107e2565b6001600160a01b03811661068657604051631e4fbdf760e01b81525f600482015260240161049c565b61068f8161080f565b50565b5f818152600260205260408120546001600160a01b03168061033a57604051637e27328960e01b81526004810184905260240161049c565b61051f8383836001610ab4565b610401828260405180602001604052805f815250610bb8565b5f828152600260205260408120546001600160a01b039081169083161561071c5761071c818486610bce565b6001600160a01b03811615610756576107375f855f80610ab4565b6001600160a01b0381165f90815260036020526040902080545f190190555b6001600160a01b03851615610784576001600160a01b0385165f908152600360205260409020805460010190555b5f8481526002602052604080822080546001600160a01b0319166001600160a01b0389811691821790925591518793918516917fddf252ad1be2c89b69c2b068fc378daa952ba7f163c4a11628f55a4df523b3ef91a4949350505050565b6006546001600160a01b031633146105845760405163118cdaa760e01b815233600482015260240161049c565b600680546001600160a01b038381166001600160a01b0319831681179093556040519116919082907f8be0079c531659141344cd1fd0a4f28419497f9722a3daafe3b4186f6b6457e0905f90a35050565b6001600160a01b03821661089257604051630b61174360e31b81526001600160a01b038316600482015260240161049c565b6001600160a01b038381165f81815260056020908152604080832094871680845294825291829020805460ff191686151590811790915591519182527f17307eab39ab6107e8899845ad3d59bd9653f200f220920489ca2b5937696c31910160405180910390a3505050565b6001600160a01b0383163b156104ff57604051630a85bd0160e11b81526001600160a01b0384169063150b7a02906109409033908890879087906004016110e6565b6020604051808303815f875af192505050801561097a575060408051601f3d908101601f1916820190925261097791810190611122565b60015b6109e1573d8080156109a7576040519150601f19603f3d011682016040523d82523d5f602084013e6109ac565b606091505b5080515f036109d957604051633250574960e11b81526001600160a01b038516600482015260240161049c565b805181602001fd5b6001600160e01b03198116630a85bd0160e11b14610a1d57604051633250574960e11b81526001600160a01b038516600482015260240161049c565b5050505050565b60605f610a3083610c32565b60010190505f8167ffffffffffffffff811115610a4f57610a4f610f42565b6040519080825280601f01601f191660200182016040528015610a79576020820181803683370190505b5090508181016020015b5f19016f181899199a1a9b1b9c1cb0b131b232b360811b600a86061a8153600a8504945084610a8357509392505050565b8080610ac857506001600160a01b03821615155b15610b89575f610ad784610692565b90506001600160a01b03831615801590610b035750826001600160a01b0316816001600160a01b031614155b8015610b165750610b148184610628565b155b15610b3f5760405163a9fbf51f60e01b81526001600160a01b038416600482015260240161049c565b8115610b875783856001600160a01b0316826001600160a01b03167f8c5be1e5ebec7d5bd14f71427d1e84f3dd0314c0f7b2291e5b200ac8c7c3b92560405160405180910390a45b505b50505f90815260046020526040902080546001600160a01b0319166001600160a01b0392909216919091179055565b610bc28383610d09565b61051f5f8484846108fe565b610bd9838383610d6a565b61051f576001600160a01b038316610c0757604051637e27328960e01b81526004810182905260240161049c565b60405163177e802f60e01b81526001600160a01b03831660048201526024810182905260440161049c565b5f8072184f03e93ff9f4daa797ed6e38ed64bf6a1f0160401b8310610c705772184f03e93ff9f4daa797ed6e38ed64bf6a1f0160401b830492506040015b6d04ee2d6d415b85acef81000000008310610c9c576d04ee2d6d415b85acef8100000000830492506020015b662386f26fc100008310610cba57662386f26fc10000830492506010015b6305f5e1008310610cd2576305f5e100830492506008015b6127108310610ce657612710830492506004015b60648310610cf8576064830492506002015b600a831061033a5760010192915050565b6001600160a01b038216610d3257604051633250574960e11b81525f600482015260240161049c565b5f610d3e83835f6106f0565b90506001600160a01b0381161561051f576040516339e3563760e11b81525f600482015260240161049c565b5f6001600160a01b03831615801590610dc65750826001600160a01b0316846001600160a01b03161480610da35750610da38484610628565b80610dc657505f828152600460205260409020546001600160a01b038481169116145b949350505050565b6001600160e01b03198116811461068f575f80fd5b5f60208284031215610df3575f80fd5b813561062181610dce565b5f5b83811015610e18578181015183820152602001610e00565b50505f910152565b5f8151808452610e37816020860160208601610dfe565b601f01601f19169290920160200192915050565b602081525f6106216020830184610e20565b5f60208284031215610e6d575f80fd5b5035919050565b80356001600160a01b0381168114610e8a575f80fd5b919050565b5f8060408385031215610ea0575f80fd5b610ea983610e74565b946020939093013593505050565b5f805f60608486031215610ec9575f80fd5b610ed284610e74565b9250610ee060208501610e74565b9150604084013590509250925092565b5f60208284031215610f00575f80fd5b61062182610e74565b5f8060408385031215610f1a575f80fd5b610f2383610e74565b915060208301358015158114610f37575f80fd5b809150509250929050565b634e487b7160e01b5f52604160045260245ffd5b5f805f8060808587031215610f69575f80fd5b610f7285610e74565b9350610f8060208601610e74565b925060408501359150606085013567ffffffffffffffff80821115610fa3575f80fd5b818701915087601f830112610fb6575f80fd5b813581811115610fc857610fc8610f42565b604051601f8201601f19908116603f01168101908382118183101715610ff057610ff0610f42565b816040528281528a6020848701011115611008575f80fd5b826020860160208301375f60208483010152809550505050505092959194509250565b5f806040838503121561103c575f80fd5b61104583610e74565b915061105360208401610e74565b90509250929050565b600181811c9082168061107057607f821691505b60208210810361108e57634e487b7160e01b5f52602260045260245ffd5b50919050565b5f600182016110b157634e487b7160e01b5f52601160045260245ffd5b5060010190565b5f83516110c9818460208801610dfe565b8351908301906110dd818360208801610dfe565b01949350505050565b6001600160a01b03858116825284166020820152604081018390526080606082018190525f9061111890830184610e20565b9695505050505050565b5f60208284031215611132575f80fd5b815161062181610dce56fea2646970667358221220a64cba6b232d169afbfbb9c78424acc9bd37b4eea8882368d78ad1162a5ea47064736f6c63430008140033",
		"opcodes": "PUSH1 0xA0 PUSH1 0x40 MSTORE CALLVALUE DUP1 ISZERO PUSH3 0x10 JUMPI PUSH0 DUP1 REVERT JUMPDEST POP PUSH1 0x40 MLOAD PUSH3 0x1459 CODESIZE SUB DUP1 PUSH3 0x1459 DUP4 CODECOPY DUP2 ADD PUSH1 0x40 DUP2 SWAP1 MSTORE PUSH3 0x33 SWAP2 PUSH3 0x129 JUMP JUMPDEST DUP1 PUSH1 0x40 MLOAD DUP1 PUSH1 0x40 ADD PUSH1 0x40 MSTORE DUP1 PUSH1 0x8 DUP2 MSTORE PUSH1 0x20 ADD PUSH8 0x145D595CDD139195 PUSH1 0xC2 SHL DUP2 MSTORE POP PUSH1 0x40 MLOAD DUP1 PUSH1 0x40 ADD PUSH1 0x40 MSTORE DUP1 PUSH1 0x4 DUP2 MSTORE PUSH1 0x20 ADD PUSH4 0x14539195 PUSH1 0xE2 SHL DUP2 MSTORE POP DUP2 PUSH0 SWAP1 DUP2 PUSH3 0x82 SWAP2 SWAP1 PUSH3 0x205 JUMP JUMPDEST POP PUSH1 0x1 PUSH3 0x91 DUP3 DUP3 PUSH3 0x205 JUMP JUMPDEST POP POP POP PUSH1 0x1 PUSH1 0x1 PUSH1 0xA0 SHL SUB DUP2 AND PUSH3 0xC2 JUMPI PUSH1 0x40 MLOAD PUSH4 0x1E4FBDF7 PUSH1 0xE0 SHL DUP2 MSTORE PUSH0 PUSH1 0x4 DUP3 ADD MSTORE PUSH1 0x24 ADD PUSH1 0x40 MLOAD DUP1 SWAP2 SUB SWAP1 REVERT JUMPDEST PUSH3 0xCD DUP2 PUSH3 0xD8 JUMP JUMPDEST POP POP PUSH1 0x80 MSTORE PUSH3 0x2CD JUMP JUMPDEST PUSH1 0x6 DUP1 SLOAD PUSH1 0x1 PUSH1 0x1 PUSH1 0xA0 SHL SUB DUP4 DUP2 AND PUSH1 0x1 PUSH1 0x1 PUSH1 0xA0 SHL SUB NOT DUP4 AND DUP2 OR SWAP1 SWAP4 SSTORE PUSH1 0x40 MLOAD SWAP2 AND SWAP2 SWAP1 DUP3 SWAP1 PUSH32 0x8BE0079C531659141344CD1FD0A4F28419497F9722A3DAAFE3B4186F6B6457E0 SWAP1 PUSH0 SWAP1 LOG3 POP POP JUMP JUMPDEST PUSH0 DUP1 PUSH1 0x40 DUP4 DUP6 SUB SLT ISZERO PUSH3 0x13B JUMPI PUSH0 DUP1 REVERT JUMPDEST DUP3 MLOAD PUSH1 0x20 DUP5 ADD MLOAD SWAP1 SWAP3 POP PUSH1 0x1 PUSH1 0x1 PUSH1 0xA0 SHL SUB DUP2 AND DUP2 EQ PUSH3 0x15A JUMPI PUSH0 DUP1 REVERT JUMPDEST DUP1 SWAP2 POP POP SWAP3 POP SWAP3 SWAP1 POP JUMP JUMPDEST PUSH4 0x4E487B71 PUSH1 0xE0 SHL PUSH0 MSTORE PUSH1 0x41 PUSH1 0x4 MSTORE PUSH1 0x24 PUSH0 REVERT JUMPDEST PUSH1 0x1 DUP2 DUP2 SHR SWAP1 DUP3 AND DUP1 PUSH3 0x18E JUMPI PUSH1 0x7F DUP3 AND SWAP2 POP JUMPDEST PUSH1 0x20 DUP3 LT DUP2 SUB PUSH3 0x1AD JUMPI PUSH4 0x4E487B71 PUSH1 0xE0 SHL PUSH0 MSTORE PUSH1 0x22 PUSH1 0x4 MSTORE PUSH1 0x24 PUSH0 REVERT JUMPDEST POP SWAP2 SWAP1 POP JUMP JUMPDEST PUSH1 0x1F DUP3 GT ISZERO PUSH3 0x200 JUMPI PUSH0 DUP2 DUP2 MSTORE PUSH1 0x20 DUP2 KECCAK256 PUSH1 0x1F DUP6 ADD PUSH1 0x5 SHR DUP2 ADD PUSH1 0x20 DUP7 LT ISZERO PUSH3 0x1DB JUMPI POP DUP1 JUMPDEST PUSH1 0x1F DUP6 ADD PUSH1 0x5 SHR DUP3 ADD SWAP2 POP JUMPDEST DUP2 DUP2 LT ISZERO PUSH3 0x1FC JUMPI DUP3 DUP2 SSTORE PUSH1 0x1 ADD PUSH3 0x1E7 JUMP JUMPDEST POP POP POP JUMPDEST POP POP POP JUMP JUMPDEST DUP2 MLOAD PUSH1 0x1 PUSH1 0x1 PUSH1 0x40 SHL SUB DUP2 GT ISZERO PUSH3 0x221 JUMPI PUSH3 0x221 PUSH3 0x165 JUMP JUMPDEST PUSH3 0x239 DUP2 PUSH3 0x232 DUP5 SLOAD PUSH3 0x179 JUMP JUMPDEST DUP5 PUSH3 0x1B3 JUMP JUMPDEST PUSH1 0x20 DUP1 PUSH1 0x1F DUP4 GT PUSH1 0x1 DUP2 EQ PUSH3 0x26F JUMPI PUSH0 DUP5 ISZERO PUSH3 0x257 JUMPI POP DUP6 DUP4 ADD MLOAD JUMPDEST PUSH0 NOT PUSH1 0x3 DUP7 SWAP1 SHL SHR NOT AND PUSH1 0x1 DUP6 SWAP1 SHL OR DUP6 SSTORE PUSH3 0x1FC JUMP JUMPDEST PUSH0 DUP6 DUP2 MSTORE PUSH1 0x20 DUP2 KECCAK256 PUSH1 0x1F NOT DUP7 AND SWAP2 JUMPDEST DUP3 DUP2 LT ISZERO PUSH3 0x29F JUMPI DUP9 DUP7 ADD MLOAD DUP3 SSTORE SWAP5 DUP5 ADD SWAP5 PUSH1 0x1 SWAP1 SWAP2 ADD SWAP1 DUP5 ADD PUSH3 0x27E JUMP JUMPDEST POP DUP6 DUP3 LT ISZERO PUSH3 0x2BD JUMPI DUP8 DUP6 ADD MLOAD PUSH0 NOT PUSH1 0x3 DUP9 SWAP1 SHL PUSH1 0xF8 AND SHR NOT AND DUP2 SSTORE JUMPDEST POP POP POP POP POP PUSH1 0x1 SWAP1 DUP2 SHL ADD SWAP1 SSTORE POP JUMP JUMPDEST PUSH1 0x80 MLOAD PUSH2 0x1173 PUSH3 0x2E6 PUSH0 CODECOPY PUSH0 PUSH2 0x1EE ADD MSTORE PUSH2 0x1173 PUSH0 RETURN INVALID PUSH1 0x80 PUSH1 0x40 MSTORE CALLVALUE DUP1 ISZERO PUSH2 0xF JUMPI PUSH0 DUP1 REVERT JUMPDEST POP PUSH1 0x4 CALLDATASIZE LT PUSH2 0x127 JUMPI PUSH0 CALLDATALOAD PUSH1 0xE0 SHR DUP1 PUSH4 0x715018A6 GT PUSH2 0xA9 JUMPI DUP1 PUSH4 0xB88D4FDE GT PUSH2 0x6E JUMPI DUP1 PUSH4 0xB88D4FDE EQ PUSH2 0x284 JUMPI DUP1 PUSH4 0xC87B56DD EQ PUSH2 0x297 JUMPI DUP1 PUSH4 0xE985E9C5 EQ PUSH2 0x2AA JUMPI DUP1 PUSH4 0xF2FDE38B EQ PUSH2 0x2BD JUMPI DUP1 PUSH4 0xF9931855 EQ PUSH2 0x2D0 JUMPI PUSH0 DUP1 REVERT JUMPDEST DUP1 PUSH4 0x715018A6 EQ PUSH2 0x231 JUMPI DUP1 PUSH4 0x8DA5CB5B EQ PUSH2 0x239 JUMPI DUP1 PUSH4 0x95D89B41 EQ PUSH2 0x24A JUMPI DUP1 PUSH4 0xA22CB465 EQ PUSH2 0x252 JUMPI DUP1 PUSH4 0xA693B19F EQ PUSH2 0x265 JUMPI PUSH0 DUP1 REVERT JUMPDEST DUP1 PUSH4 0x23B872DD GT PUSH2 0xEF JUMPI DUP1 PUSH4 0x23B872DD EQ PUSH2 0x1B0 JUMPI DUP1 PUSH4 0x42842E0E EQ PUSH2 0x1C3 JUMPI DUP1 PUSH4 0x6352211E EQ PUSH2 0x1D6 JUMPI DUP1 PUSH4 0x676DD563 EQ PUSH2 0x1E9 JUMPI DUP1 PUSH4 0x70A08231 EQ PUSH2 0x21E JUMPI PUSH0 DUP1 REVERT JUMPDEST DUP1 PUSH4 0x1FFC9A7 EQ PUSH2 0x12B JUMPI DUP1 PUSH4 0x6FDDE03 EQ PUSH2 0x153 JUMPI DUP1 PUSH4 0x81812FC EQ PUSH2 0x168 JUMPI DUP1 PUSH4 0x95EA7B3 EQ PUSH2 0x193 JUMPI DUP1 PUSH4 0x1249C58B EQ PUSH2 0x1A8 JUMPI JUMPDEST PUSH0 DUP1 REVERT JUMPDEST PUSH2 0x13E PUSH2 0x139 CALLDATASIZE PUSH1 0x4 PUSH2 0xDE3 JUMP JUMPDEST PUSH2 0x2EF JUMP JUMPDEST PUSH1 0x40 MLOAD SWAP1 ISZERO ISZERO DUP2 MSTORE PUSH1 0x20 ADD JUMPDEST PUSH1 0x40 MLOAD DUP1 SWAP2 SUB SWAP1 RETURN JUMPDEST PUSH2 0x15B PUSH2 0x340 JUMP JUMPDEST PUSH1 0x40 MLOAD PUSH2 0x14A SWAP2 SWAP1 PUSH2 0xE4B JUMP JUMPDEST PUSH2 0x17B PUSH2 0x176 CALLDATASIZE PUSH1 0x4 PUSH2 0xE5D JUMP JUMPDEST PUSH2 0x3CF JUMP JUMPDEST PUSH1 0x40 MLOAD PUSH1 0x1 PUSH1 0x1 PUSH1 0xA0 SHL SUB SWAP1 SWAP2 AND DUP2 MSTORE PUSH1 0x20 ADD PUSH2 0x14A JUMP JUMPDEST PUSH2 0x1A6 PUSH2 0x1A1 CALLDATASIZE PUSH1 0x4 PUSH2 0xE8F JUMP JUMPDEST PUSH2 0x3F6 JUMP JUMPDEST STOP JUMPDEST PUSH2 0x1A6 PUSH2 0x405 JUMP JUMPDEST PUSH2 0x1A6 PUSH2 0x1BE CALLDATASIZE PUSH1 0x4 PUSH2 0xEB7 JUMP JUMPDEST PUSH2 0x477 JUMP JUMPDEST PUSH2 0x1A6 PUSH2 0x1D1 CALLDATASIZE PUSH1 0x4 PUSH2 0xEB7 JUMP JUMPDEST PUSH2 0x505 JUMP JUMPDEST PUSH2 0x17B PUSH2 0x1E4 CALLDATASIZE PUSH1 0x4 PUSH2 0xE5D JUMP JUMPDEST PUSH2 0x524 JUMP JUMPDEST PUSH2 0x210 PUSH32 0x0 DUP2 JUMP JUMPDEST PUSH1 0x40 MLOAD SWAP1 DUP2 MSTORE PUSH1 0x20 ADD PUSH2 0x14A JUMP JUMPDEST PUSH2 0x210 PUSH2 0x22C CALLDATASIZE PUSH1 0x4 PUSH2 0xEF0 JUMP JUMPDEST PUSH2 0x52E JUMP JUMPDEST PUSH2 0x1A6 PUSH2 0x573 JUMP JUMPDEST PUSH1 0x6 SLOAD PUSH1 0x1 PUSH1 0x1 PUSH1 0xA0 SHL SUB AND PUSH2 0x17B JUMP JUMPDEST PUSH2 0x15B PUSH2 0x586 JUMP JUMPDEST PUSH2 0x1A6 PUSH2 0x260 CALLDATASIZE PUSH1 0x4 PUSH2 0xF09 JUMP JUMPDEST PUSH2 0x595 JUMP JUMPDEST PUSH2 0x210 PUSH2 0x273 CALLDATASIZE PUSH1 0x4 PUSH2 0xEF0 JUMP JUMPDEST PUSH1 0x9 PUSH1 0x20 MSTORE PUSH0 SWAP1 DUP2 MSTORE PUSH1 0x40 SWAP1 KECCAK256 SLOAD DUP2 JUMP JUMPDEST PUSH2 0x1A6 PUSH2 0x292 CALLDATASIZE PUSH1 0x4 PUSH2 0xF56 JUMP JUMPDEST PUSH2 0x5A0 JUMP JUMPDEST PUSH2 0x15B PUSH2 0x2A5 CALLDATASIZE PUSH1 0x4 PUSH2 0xE5D JUMP JUMPDEST PUSH2 0x5B7 JUMP JUMPDEST PUSH2 0x13E PUSH2 0x2B8 CALLDATASIZE PUSH1 0x4 PUSH2 0x102B JUMP JUMPDEST PUSH2 0x628 JUMP JUMPDEST PUSH2 0x1A6 PUSH2 0x2CB CALLDATASIZE PUSH1 0x4 PUSH2 0xEF0 JUMP JUMPDEST PUSH2 0x655 JUMP JUMPDEST PUSH2 0x210 PUSH2 0x2DE CALLDATASIZE PUSH1 0x4 PUSH2 0xEF0 JUMP JUMPDEST PUSH1 0x8 PUSH1 0x20 MSTORE PUSH0 SWAP1 DUP2 MSTORE PUSH1 0x40 SWAP1 KECCAK256 SLOAD DUP2 JUMP JUMPDEST PUSH0 PUSH1 0x1 PUSH1 0x1 PUSH1 0xE0 SHL SUB NOT DUP3 AND PUSH4 0x80AC58CD PUSH1 0xE0 SHL EQ DUP1 PUSH2 0x31F JUMPI POP PUSH1 0x1 PUSH1 0x1 PUSH1 0xE0 SHL SUB NOT DUP3 AND PUSH4 0x5B5E139F PUSH1 0xE0 SHL EQ JUMPDEST DUP1 PUSH2 0x33A JUMPI POP PUSH4 0x1FFC9A7 PUSH1 0xE0 SHL PUSH1 0x1 PUSH1 0x1 PUSH1 0xE0 SHL SUB NOT DUP4 AND EQ JUMPDEST SWAP3 SWAP2 POP POP JUMP JUMPDEST PUSH1 0x60 PUSH0 DUP1 SLOAD PUSH2 0x34E SWAP1 PUSH2 0x105C JUMP JUMPDEST DUP1 PUSH1 0x1F ADD PUSH1 0x20 DUP1 SWAP2 DIV MUL PUSH1 0x20 ADD PUSH1 0x40 MLOAD SWAP1 DUP2 ADD PUSH1 0x40 MSTORE DUP1 SWAP3 SWAP2 SWAP1 DUP2 DUP2 MSTORE PUSH1 0x20 ADD DUP3 DUP1 SLOAD PUSH2 0x37A SWAP1 PUSH2 0x105C JUMP JUMPDEST DUP1 ISZERO PUSH2 0x3C5 JUMPI DUP1 PUSH1 0x1F LT PUSH2 0x39C JUMPI PUSH2 0x100 DUP1 DUP4 SLOAD DIV MUL DUP4 MSTORE SWAP2 PUSH1 0x20 ADD SWAP2 PUSH2 0x3C5 JUMP JUMPDEST DUP3 ADD SWAP2 SWAP1 PUSH0 MSTORE PUSH1 0x20 PUSH0 KECCAK256 SWAP1 JUMPDEST DUP2 SLOAD DUP2 MSTORE SWAP1 PUSH1 0x1 ADD SWAP1 PUSH1 0x20 ADD DUP1 DUP4 GT PUSH2 0x3A8 JUMPI DUP3 SWAP1 SUB PUSH1 0x1F AND DUP3 ADD SWAP2 JUMPDEST POP POP POP POP POP SWAP1 POP SWAP1 JUMP JUMPDEST PUSH0 PUSH2 0x3D9 DUP3 PUSH2 0x692 JUMP JUMPDEST POP PUSH0 DUP3 DUP2 MSTORE PUSH1 0x4 PUSH1 0x20 MSTORE PUSH1 0x40 SWAP1 KECCAK256 SLOAD PUSH1 0x1 PUSH1 0x1 PUSH1 0xA0 SHL SUB AND PUSH2 0x33A JUMP JUMPDEST PUSH2 0x401 DUP3 DUP3 CALLER PUSH2 0x6CA JUMP JUMPDEST POP POP JUMP JUMPDEST PUSH1 0x7 DUP1 SLOAD SWAP1 PUSH0 PUSH2 0x414 DUP4 PUSH2 0x1094 JUMP JUMPDEST SWAP1 SWAP2 SSTORE POP POP PUSH1 0x7 SLOAD PUSH2 0x426 CALLER DUP3 PUSH2 0x6D7 JUMP JUMPDEST CALLER PUSH0 DUP2 DUP2 MSTORE PUSH1 0x9 PUSH1 0x20 SWAP1 DUP2 MSTORE PUSH1 0x40 SWAP2 DUP3 SWAP1 KECCAK256 TIMESTAMP SWAP1 SSTORE DUP2 MLOAD DUP5 DUP2 MSTORE PUSH1 0x1 SWAP2 DUP2 ADD SWAP2 SWAP1 SWAP2 MSTORE PUSH32 0x8FA3FF725D2F7190C5E5DD9BC88F241A72B239E127E347DCCDFC28E44E5E0963 SWAP2 ADD PUSH1 0x40 MLOAD DUP1 SWAP2 SUB SWAP1 LOG2 POP JUMP JUMPDEST PUSH1 0x1 PUSH1 0x1 PUSH1 0xA0 SHL SUB DUP3 AND PUSH2 0x4A5 JUMPI PUSH1 0x40 MLOAD PUSH4 0x32505749 PUSH1 0xE1 SHL DUP2 MSTORE PUSH0 PUSH1 0x4 DUP3 ADD MSTORE PUSH1 0x24 ADD JUMPDEST PUSH1 0x40 MLOAD DUP1 SWAP2 SUB SWAP1 REVERT JUMPDEST PUSH0 PUSH2 0x4B1 DUP4 DUP4 CALLER PUSH2 0x6F0 JUMP JUMPDEST SWAP1 POP DUP4 PUSH1 0x1 PUSH1 0x1 PUSH1 0xA0 SHL SUB AND DUP2 PUSH1 0x1 PUSH1 0x1 PUSH1 0xA0 SHL SUB AND EQ PUSH2 0x4FF JUMPI PUSH1 0x40 MLOAD PUSH4 0x64283D7B PUSH1 0xE0 SHL DUP2 MSTORE PUSH1 0x1 PUSH1 0x1 PUSH1 0xA0 SHL SUB DUP1 DUP7 AND PUSH1 0x4 DUP4 ADD MSTORE PUSH1 0x24 DUP3 ADD DUP5 SWAP1 MSTORE DUP3 AND PUSH1 0x44 DUP3 ADD MSTORE PUSH1 0x64 ADD PUSH2 0x49C JUMP JUMPDEST POP POP POP POP JUMP JUMPDEST PUSH2 0x51F DUP4 DUP4 DUP4 PUSH1 0x40 MLOAD DUP1 PUSH1 0x20 ADD PUSH1 0x40 MSTORE DUP1 PUSH0 DUP2 MSTORE POP PUSH2 0x5A0 JUMP JUMPDEST POP POP POP JUMP JUMPDEST PUSH0 PUSH2 0x33A DUP3 PUSH2 0x692 JUMP JUMPDEST PUSH0 PUSH1 0x1 PUSH1 0x1 PUSH1 0xA0 SHL SUB DUP3 AND PUSH2 0x558 JUMPI PUSH1 0x40 MLOAD PUSH4 0x22718AD9 PUSH1 0xE2 SHL DUP2 MSTORE PUSH0 PUSH1 0x4 DUP3 ADD MSTORE PUSH1 0x24 ADD PUSH2 0x49C JUMP JUMPDEST POP PUSH1 0x1 PUSH1 0x1 PUSH1 0xA0 SHL SUB AND PUSH0 SWAP1 DUP2 MSTORE PUSH1 0x3 PUSH1 0x20 MSTORE PUSH1 0x40 SWAP1 KECCAK256 SLOAD SWAP1 JUMP JUMPDEST PUSH2 0x57B PUSH2 0x7E2 JUMP JUMPDEST PUSH2 0x584 PUSH0 PUSH2 0x80F JUMP JUMPDEST JUMP JUMPDEST PUSH1 0x60 PUSH1 0x1 DUP1 SLOAD PUSH2 0x34E SWAP1 PUSH2 0x105C JUMP JUMPDEST PUSH2 0x401 CALLER DUP4 DUP4 PUSH2 0x860 JUMP JUMPDEST PUSH2 0x5AB DUP5 DUP5 DUP5 PUSH2 0x477 JUMP JUMPDEST PUSH2 0x4FF DUP5 DUP5 DUP5 DUP5 PUSH2 0x8FE JUMP JUMPDEST PUSH1 0x60 PUSH2 0x5C2 DUP3 PUSH2 0x692 JUMP JUMPDEST POP PUSH0 PUSH2 0x5D8 PUSH1 0x40 DUP1 MLOAD PUSH1 0x20 DUP2 ADD SWAP1 SWAP2 MSTORE PUSH0 DUP2 MSTORE SWAP1 JUMP JUMPDEST SWAP1 POP PUSH0 DUP2 MLOAD GT PUSH2 0x5F6 JUMPI PUSH1 0x40 MLOAD DUP1 PUSH1 0x20 ADD PUSH1 0x40 MSTORE DUP1 PUSH0 DUP2 MSTORE POP PUSH2 0x621 JUMP JUMPDEST DUP1 PUSH2 0x600 DUP5 PUSH2 0xA24 JUMP JUMPDEST PUSH1 0x40 MLOAD PUSH1 0x20 ADD PUSH2 0x611 SWAP3 SWAP2 SWAP1 PUSH2 0x10B8 JUMP JUMPDEST PUSH1 0x40 MLOAD PUSH1 0x20 DUP2 DUP4 SUB SUB DUP2 MSTORE SWAP1 PUSH1 0x40 MSTORE JUMPDEST SWAP4 SWAP3 POP POP POP JUMP JUMPDEST PUSH1 0x1 PUSH1 0x1 PUSH1 0xA0 SHL SUB SWAP2 DUP3 AND PUSH0 SWAP1 DUP2 MSTORE PUSH1 0x5 PUSH1 0x20 SWAP1 DUP2 MSTORE PUSH1 0x40 DUP1 DUP4 KECCAK256 SWAP4 SWAP1 SWAP5 AND DUP3 MSTORE SWAP2 SWAP1 SWAP2 MSTORE KECCAK256 SLOAD PUSH1 0xFF AND SWAP1 JUMP JUMPDEST PUSH2 0x65D PUSH2 0x7E2 JUMP JUMPDEST PUSH1 0x1 PUSH1 0x1 PUSH1 0xA0 SHL SUB DUP2 AND PUSH2 0x686 JUMPI PUSH1 0x40 MLOAD PUSH4 0x1E4FBDF7 PUSH1 0xE0 SHL DUP2 MSTORE PUSH0 PUSH1 0x4 DUP3 ADD MSTORE PUSH1 0x24 ADD PUSH2 0x49C JUMP JUMPDEST PUSH2 0x68F DUP2 PUSH2 0x80F JUMP JUMPDEST POP JUMP JUMPDEST PUSH0 DUP2 DUP2 MSTORE PUSH1 0x2 PUSH1 0x20 MSTORE PUSH1 0x40 DUP2 KECCAK256 SLOAD PUSH1 0x1 PUSH1 0x1 PUSH1 0xA0 SHL SUB AND DUP1 PUSH2 0x33A JUMPI PUSH1 0x40 MLOAD PUSH4 0x7E273289 PUSH1 0xE0 SHL DUP2 MSTORE PUSH1 0x4 DUP2 ADD DUP5 SWAP1 MSTORE PUSH1 0x24 ADD PUSH2 0x49C JUMP JUMPDEST PUSH2 0x51F DUP4 DUP4 DUP4 PUSH1 0x1 PUSH2 0xAB4 JUMP JUMPDEST PUSH2 0x401 DUP3 DUP3 PUSH1 0x40 MLOAD DUP1 PUSH1 0x20 ADD PUSH1 0x40 MSTORE DUP1 PUSH0 DUP2 MSTORE POP PUSH2 0xBB8 JUMP JUMPDEST PUSH0 DUP3 DUP2 MSTORE PUSH1 0x2 PUSH1 0x20 MSTORE PUSH1 0x40 DUP2 KECCAK256 SLOAD PUSH1 0x1 PUSH1 0x1 PUSH1 0xA0 SHL SUB SWAP1 DUP2 AND SWAP1 DUP4 AND ISZERO PUSH2 0x71C JUMPI PUSH2 0x71C DUP2 DUP5 DUP7 PUSH2 0xBCE JUMP JUMPDEST PUSH1 0x1 PUSH1 0x1 PUSH1 0xA0 SHL SUB DUP2 AND ISZERO PUSH2 0x756 JUMPI PUSH2 0x737 PUSH0 DUP6 PUSH0 DUP1 PUSH2 0xAB4 JUMP JUMPDEST PUSH1 0x1 PUSH1 0x1 PUSH1 0xA0 SHL SUB DUP2 AND PUSH0 SWAP1 DUP2 MSTORE PUSH1 0x3 PUSH1 0x20 MSTORE PUSH1 0x40 SWAP1 KECCAK256 DUP1 SLOAD PUSH0 NOT ADD SWAP1 SSTORE JUMPDEST PUSH1 0x1 PUSH1 0x1 PUSH1 0xA0 SHL SUB DUP6 AND ISZERO PUSH2 0x784 JUMPI PUSH1 0x1 PUSH1 0x1 PUSH1 0xA0 SHL SUB DUP6 AND PUSH0 SWAP1 DUP2 MSTORE PUSH1 0x3 PUSH1 0x20 MSTORE PUSH1 0x40 SWAP1 KECCAK256 DUP1 SLOAD PUSH1 0x1 ADD SWAP1 SSTORE JUMPDEST PUSH0 DUP5 DUP2 MSTORE PUSH1 0x2 PUSH1 0x20 MSTORE PUSH1 0x40 DUP1 DUP3 KECCAK256 DUP1 SLOAD PUSH1 0x1 PUSH1 0x1 PUSH1 0xA0 SHL SUB NOT AND PUSH1 0x1 PUSH1 0x1 PUSH1 0xA0 SHL SUB DUP10 DUP2 AND SWAP2 DUP3 OR SWAP1 SWAP3 SSTORE SWAP2 MLOAD DUP8 SWAP4 SWAP2 DUP6 AND SWAP2 PUSH32 0xDDF252AD1BE2C89B69C2B068FC378DAA952BA7F163C4A11628F55A4DF523B3EF SWAP2 LOG4 SWAP5 SWAP4 POP POP POP POP JUMP JUMPDEST PUSH1 0x6 SLOAD PUSH1 0x1 PUSH1 0x1 PUSH1 0xA0 SHL SUB AND CALLER EQ PUSH2 0x584 JUMPI PUSH1 0x40 MLOAD PUSH4 0x118CDAA7 PUSH1 0xE0 SHL DUP2 MSTORE CALLER PUSH1 0x4 DUP3 ADD MSTORE PUSH1 0x24 ADD PUSH2 0x49C JUMP JUMPDEST PUSH1 0x6 DUP1 SLOAD PUSH1 0x1 PUSH1 0x1 PUSH1 0xA0 SHL SUB DUP4 DUP2 AND PUSH1 0x1 PUSH1 0x1 PUSH1 0xA0 SHL SUB NOT DUP4 AND DUP2 OR SWAP1 SWAP4 SSTORE PUSH1 0x40 MLOAD SWAP2 AND SWAP2 SWAP1 DUP3 SWAP1 PUSH32 0x8BE0079C531659141344CD1FD0A4F28419497F9722A3DAAFE3B4186F6B6457E0 SWAP1 PUSH0 SWAP1 LOG3 POP POP JUMP JUMPDEST PUSH1 0x1 PUSH1 0x1 PUSH1 0xA0 SHL SUB DUP3 AND PUSH2 0x892 JUMPI PUSH1 0x40 MLOAD PUSH4 0xB611743 PUSH1 0xE3 SHL DUP2 MSTORE PUSH1 0x1 PUSH1 0x1 PUSH1 0xA0 SHL SUB DUP4 AND PUSH1 0x4 DUP3 ADD MSTORE PUSH1 0x24 ADD PUSH2 0x49C JUMP JUMPDEST PUSH1 0x1 PUSH1 0x1 PUSH1 0xA0 SHL SUB DUP4 DUP2 AND PUSH0 DUP2 DUP2 MSTORE PUSH1 0x5 PUSH1 0x20 SWAP1 DUP2 MSTORE PUSH1 0x40 DUP1 DUP4 KECCAK256 SWAP5 DUP8 AND DUP1 DUP5 MSTORE SWAP5 DUP3 MSTORE SWAP2 DUP3 SWAP1 KECCAK256 DUP1 SLOAD PUSH1 0xFF NOT AND DUP7 ISZERO ISZERO SWAP1 DUP2 OR SWAP1 SWAP2 SSTORE SWAP2 MLOAD SWAP2 DUP3 MSTORE PUSH32 0x17307EAB39AB6107E8899845AD3D59BD9653F200F220920489CA2B5937696C31 SWAP2 ADD PUSH1 0x40 MLOAD DUP1 SWAP2 SUB SWAP1 LOG3 POP POP POP JUMP JUMPDEST PUSH1 0x1 PUSH1 0x1 PUSH1 0xA0 SHL SUB DUP4 AND EXTCODESIZE ISZERO PUSH2 0x4FF JUMPI PUSH1 0x40 MLOAD PUSH4 0xA85BD01 PUSH1 0xE1 SHL DUP2 MSTORE PUSH1 0x1 PUSH1 0x1 PUSH1 0xA0 SHL SUB DUP5 AND SWAP1 PUSH4 0x150B7A02 SWAP1 PUSH2 0x940 SWAP1 CALLER SWAP1 DUP9 SWAP1 DUP8 SWAP1 DUP8 SWAP1 PUSH1 0x4 ADD PUSH2 0x10E6 JUMP JUMPDEST PUSH1 0x20 PUSH1 0x40 MLOAD DUP1 DUP4 SUB DUP2 PUSH0 DUP8 GAS CALL SWAP3 POP POP POP DUP1 ISZERO PUSH2 0x97A JUMPI POP PUSH1 0x40 DUP1 MLOAD PUSH1 0x1F RETURNDATASIZE SWAP1 DUP2 ADD PUSH1 0x1F NOT AND DUP3 ADD SWAP1 SWAP3 MSTORE PUSH2 0x977 SWAP2 DUP2 ADD SWAP1 PUSH2 0x1122 JUMP JUMPDEST PUSH1 0x1 JUMPDEST PUSH2 0x9E1 JUMPI RETURNDATASIZE DUP1 DUP1 ISZERO PUSH2 0x9A7 JUMPI PUSH1 0x40 MLOAD SWAP2 POP PUSH1 0x1F NOT PUSH1 0x3F RETURNDATASIZE ADD AND DUP3 ADD PUSH1 0x40 MSTORE RETURNDATASIZE DUP3 MSTORE RETURNDATASIZE PUSH0 PUSH1 0x20 DUP5 ADD RETURNDATACOPY PUSH2 0x9AC JUMP JUMPDEST PUSH1 0x60 SWAP2 POP JUMPDEST POP DUP1 MLOAD PUSH0 SUB PUSH2 0x9D9 JUMPI PUSH1 0x40 MLOAD PUSH4 0x32505749 PUSH1 0xE1 SHL DUP2 MSTORE PUSH1 0x1 PUSH1 0x1 PUSH1 0xA0 SHL SUB DUP6 AND PUSH1 0x4 DUP3 ADD MSTORE PUSH1 0x24 ADD PUSH2 0x49C JUMP JUMPDEST DUP1 MLOAD DUP2 PUSH1 0x20 ADD REVERT JUMPDEST PUSH1 0x1 PUSH1 0x1 PUSH1 0xE0 SHL SUB NOT DUP2 AND PUSH4 0xA85BD01 PUSH1 0xE1 SHL EQ PUSH2 0xA1D JUMPI PUSH1 0x40 MLOAD PUSH4 0x32505749 PUSH1 0xE1 SHL DUP2 MSTORE PUSH1 0x1 PUSH1 0x1 PUSH1 0xA0 SHL SUB DUP6 AND PUSH1 0x4 DUP3 ADD MSTORE PUSH1 0x24 ADD PUSH2 0x49C JUMP JUMPDEST POP POP POP POP POP JUMP JUMPDEST PUSH1 0x60 PUSH0 PUSH2 0xA30 DUP4 PUSH2 0xC32 JUMP JUMPDEST PUSH1 0x1 ADD SWAP1 POP PUSH0 DUP2 PUSH8 0xFFFFFFFFFFFFFFFF DUP2 GT ISZERO PUSH2 0xA4F JUMPI PUSH2 0xA4F PUSH2 0xF42 JUMP JUMPDEST PUSH1 0x40 MLOAD SWAP1 DUP1 DUP3 MSTORE DUP1 PUSH1 0x1F ADD PUSH1 0x1F NOT AND PUSH1 0x20 ADD DUP3 ADD PUSH1 0x40 MSTORE DUP1 ISZERO PUSH2 0xA79 JUMPI PUSH1 0x20 DUP3 ADD DUP2 DUP1 CALLDATASIZE DUP4 CALLDATACOPY ADD SWAP1 POP JUMPDEST POP SWAP1 POP DUP2 DUP2 ADD PUSH1 0x20 ADD JUMPDEST PUSH0 NOT ADD PUSH16 0x181899199A1A9B1B9C1CB0B131B232B3 PUSH1 0x81 SHL PUSH1 0xA DUP7 MOD BYTE DUP2 MSTORE8 PUSH1 0xA DUP6 DIV SWAP5 POP DUP5 PUSH2 0xA83 JUMPI POP SWAP4 SWAP3 POP POP POP JUMP JUMPDEST DUP1 DUP1 PUSH2 0xAC8 JUMPI POP PUSH1 0x1 PUSH1 0x1 PUSH1 0xA0 SHL SUB DUP3 AND ISZERO ISZERO JUMPDEST ISZERO PUSH2 0xB89 JUMPI PUSH0 PUSH2 0xAD7 DUP5 PUSH2 0x692 JUMP JUMPDEST SWAP1 POP PUSH1 0x1 PUSH1 0x1 PUSH1 0xA0 SHL SUB DUP4 AND ISZERO DUP1 ISZERO SWAP1 PUSH2 0xB03 JUMPI POP DUP3 PUSH1 0x1 PUSH1 0x1 PUSH1 0xA0 SHL SUB AND DUP2 PUSH1 0x1 PUSH1 0x1 PUSH1 0xA0 SHL SUB AND EQ ISZERO JUMPDEST DUP1 ISZERO PUSH2 0xB16 JUMPI POP PUSH2 0xB14 DUP2 DUP5 PUSH2 0x628 JUMP JUMPDEST ISZERO JUMPDEST ISZERO PUSH2 0xB3F JUMPI PUSH1 0x40 MLOAD PUSH4 0xA9FBF51F PUSH1 0xE0 SHL DUP2 MSTORE PUSH1 0x1 PUSH1 0x1 PUSH1 0xA0 SHL SUB DUP5 AND PUSH1 0x4 DUP3 ADD MSTORE PUSH1 0x24 ADD PUSH2 0x49C JUMP JUMPDEST DUP2 ISZERO PUSH2 0xB87 JUMPI DUP4 DUP6 PUSH1 0x1 PUSH1 0x1 PUSH1 0xA0 SHL SUB AND DUP3 PUSH1 0x1 PUSH1 0x1 PUSH1 0xA0 SHL SUB AND PUSH32 0x8C5BE1E5EBEC7D5BD14F71427D1E84F3DD0314C0F7B2291E5B200AC8C7C3B925 PUSH1 0x40 MLOAD PUSH1 0x40 MLOAD DUP1 SWAP2 SUB SWAP1 LOG4 JUMPDEST POP JUMPDEST POP POP PUSH0 SWAP1 DUP2 MSTORE PUSH1 0x4 PUSH1 0x20 MSTORE PUSH1 0x40 SWAP1 KECCAK256 DUP1 SLOAD PUSH1 0x1 PUSH1 0x1 PUSH1 0xA0 SHL SUB NOT AND PUSH1 0x1 PUSH1 0x1 PUSH1 0xA0 SHL SUB SWAP3 SWAP1 SWAP3 AND SWAP2 SWAP1 SWAP2 OR SWAP1 SSTORE JUMP JUMPDEST PUSH2 0xBC2 DUP4 DUP4 PUSH2 0xD09 JUMP JUMPDEST PUSH2 0x51F PUSH0 DUP5 DUP5 DUP5 PUSH2 0x8FE JUMP JUMPDEST PUSH2 0xBD9 DUP4 DUP4 DUP4 PUSH2 0xD6A JUMP JUMPDEST PUSH2 0x51F JUMPI PUSH1 0x1 PUSH1 0x1 PUSH1 0xA0 SHL SUB DUP4 AND PUSH2 0xC07 JUMPI PUSH1 0x40 MLOAD PUSH4 0x7E273289 PUSH1 0xE0 SHL DUP2 MSTORE PUSH1 0x4 DUP2 ADD DUP3 SWAP1 MSTORE PUSH1 0x24 ADD PUSH2 0x49C JUMP JUMPDEST PUSH1 0x40 MLOAD PUSH4 0x177E802F PUSH1 0xE0 SHL DUP2 MSTORE PUSH1 0x1 PUSH1 0x1 PUSH1 0xA0 SHL SUB DUP4 AND PUSH1 0x4 DUP3 ADD MSTORE PUSH1 0x24 DUP2 ADD DUP3 SWAP1 MSTORE PUSH1 0x44 ADD PUSH2 0x49C JUMP JUMPDEST PUSH0 DUP1 PUSH19 0x184F03E93FF9F4DAA797ED6E38ED64BF6A1F01 PUSH1 0x40 SHL DUP4 LT PUSH2 0xC70 JUMPI PUSH19 0x184F03E93FF9F4DAA797ED6E38ED64BF6A1F01 PUSH1 0x40 SHL DUP4 DIV SWAP3 POP PUSH1 0x40 ADD JUMPDEST PUSH14 0x4EE2D6D415B85ACEF8100000000 DUP4 LT PUSH2 0xC9C JUMPI PUSH14 0x4EE2D6D415B85ACEF8100000000 DUP4 DIV SWAP3 POP PUSH1 0x20 ADD JUMPDEST PUSH7 0x2386F26FC10000 DUP4 LT PUSH2 0xCBA JUMPI PUSH7 0x2386F26FC10000 DUP4 DIV SWAP3 POP PUSH1 0x10 ADD JUMPDEST PUSH4 0x5F5E100 DUP4 LT PUSH2 0xCD2 JUMPI PUSH4 0x5F5E100 DUP4 DIV SWAP3 POP PUSH1 0x8 ADD JUMPDEST PUSH2 0x2710 DUP4 LT PUSH2 0xCE6 JUMPI PUSH2 0x2710 DUP4 DIV SWAP3 POP PUSH1 0x4 ADD JUMPDEST PUSH1 0x64 DUP4 LT PUSH2 0xCF8 JUMPI PUSH1 0x64 DUP4 DIV SWAP3 POP PUSH1 0x2 ADD JUMPDEST PUSH1 0xA DUP4 LT PUSH2 0x33A JUMPI PUSH1 0x1 ADD SWAP3 SWAP2 POP POP JUMP JUMPDEST PUSH1 0x1 PUSH1 0x1 PUSH1 0xA0 SHL SUB DUP3 AND PUSH2 0xD32 JUMPI PUSH1 0x40 MLOAD PUSH4 0x32505749 PUSH1 0xE1 SHL DUP2 MSTORE PUSH0 PUSH1 0x4 DUP3 ADD MSTORE PUSH1 0x24 ADD PUSH2 0x49C JUMP JUMPDEST PUSH0 PUSH2 0xD3E DUP4 DUP4 PUSH0 PUSH2 0x6F0 JUMP JUMPDEST SWAP1 POP PUSH1 0x1 PUSH1 0x1 PUSH1 0xA0 SHL SUB DUP2 AND ISZERO PUSH2 0x51F JUMPI PUSH1 0x40 MLOAD PUSH4 0x39E35637 PUSH1 0xE1 SHL DUP2 MSTORE PUSH0 PUSH1 0x4 DUP3 ADD MSTORE PUSH1 0x24 ADD PUSH2 0x49C JUMP JUMPDEST PUSH0 PUSH1 0x1 PUSH1 0x1 PUSH1 0xA0 SHL SUB DUP4 AND ISZERO DUP1 ISZERO SWAP1 PUSH2 0xDC6 JUMPI POP DUP3 PUSH1 0x1 PUSH1 0x1 PUSH1 0xA0 SHL SUB AND DUP5 PUSH1 0x1 PUSH1 0x1 PUSH1 0xA0 SHL SUB AND EQ DUP1 PUSH2 0xDA3 JUMPI POP PUSH2 0xDA3 DUP5 DUP5 PUSH2 0x628 JUMP JUMPDEST DUP1 PUSH2 0xDC6 JUMPI POP PUSH0 DUP3 DUP2 MSTORE PUSH1 0x4 PUSH1 0x20 MSTORE PUSH1 0x40 SWAP1 KECCAK256 SLOAD PUSH1 0x1 PUSH1 0x1 PUSH1 0xA0 SHL SUB DUP5 DUP2 AND SWAP2 AND EQ JUMPDEST SWAP5 SWAP4 POP POP POP POP JUMP JUMPDEST PUSH1 0x1 PUSH1 0x1 PUSH1 0xE0 SHL SUB NOT DUP2 AND DUP2 EQ PUSH2 0x68F JUMPI PUSH0 DUP1 REVERT JUMPDEST PUSH0 PUSH1 0x20 DUP3 DUP5 SUB SLT ISZERO PUSH2 0xDF3 JUMPI PUSH0 DUP1 REVERT JUMPDEST DUP2 CALLDATALOAD PUSH2 0x621 DUP2 PUSH2 0xDCE JUMP JUMPDEST PUSH0 JUMPDEST DUP4 DUP2 LT ISZERO PUSH2 0xE18 JUMPI DUP2 DUP2 ADD MLOAD DUP4 DUP3 ADD MSTORE PUSH1 0x20 ADD PUSH2 0xE00 JUMP JUMPDEST POP POP PUSH0 SWAP2 ADD MSTORE JUMP JUMPDEST PUSH0 DUP2 MLOAD DUP1 DUP5 MSTORE PUSH2 0xE37 DUP2 PUSH1 0x20 DUP7 ADD PUSH1 0x20 DUP7 ADD PUSH2 0xDFE JUMP JUMPDEST PUSH1 0x1F ADD PUSH1 0x1F NOT AND SWAP3 SWAP1 SWAP3 ADD PUSH1 0x20 ADD SWAP3 SWAP2 POP POP JUMP JUMPDEST PUSH1 0x20 DUP2 MSTORE PUSH0 PUSH2 0x621 PUSH1 0x20 DUP4 ADD DUP5 PUSH2 0xE20 JUMP JUMPDEST PUSH0 PUSH1 0x20 DUP3 DUP5 SUB SLT ISZERO PUSH2 0xE6D JUMPI PUSH0 DUP1 REVERT JUMPDEST POP CALLDATALOAD SWAP2 SWAP1 POP JUMP JUMPDEST DUP1 CALLDATALOAD PUSH1 0x1 PUSH1 0x1 PUSH1 0xA0 SHL SUB DUP2 AND DUP2 EQ PUSH2 0xE8A JUMPI PUSH0 DUP1 REVERT JUMPDEST SWAP2 SWAP1 POP JUMP JUMPDEST PUSH0 DUP1 PUSH1 0x40 DUP4 DUP6 SUB SLT ISZERO PUSH2 0xEA0 JUMPI PUSH0 DUP1 REVERT JUMPDEST PUSH2 0xEA9 DUP4 PUSH2 0xE74 JUMP JUMPDEST SWAP5 PUSH1 0x20 SWAP4 SWAP1 SWAP4 ADD CALLDATALOAD SWAP4 POP POP POP JUMP JUMPDEST PUSH0 DUP1 PUSH0 PUSH1 0x60 DUP5 DUP7 SUB SLT ISZERO PUSH2 0xEC9 JUMPI PUSH0 DUP1 REVERT JUMPDEST PUSH2 0xED2 DUP5 PUSH2 0xE74 JUMP JUMPDEST SWAP3 POP PUSH2 0xEE0 PUSH1 0x20 DUP6 ADD PUSH2 0xE74 JUMP JUMPDEST SWAP2 POP PUSH1 0x40 DUP5 ADD CALLDATALOAD SWAP1 POP SWAP3 POP SWAP3 POP SWAP3 JUMP JUMPDEST PUSH0 PUSH1 0x20 DUP3 DUP5 SUB SLT ISZERO PUSH2 0xF00 JUMPI PUSH0 DUP1 REVERT JUMPDEST PUSH2 0x621 DUP3 PUSH2 0xE74 JUMP JUMPDEST PUSH0 DUP1 PUSH1 0x40 DUP4 DUP6 SUB SLT ISZERO PUSH2 0xF1A JUMPI PUSH0 DUP1 REVERT JUMPDEST PUSH2 0xF23 DUP4 PUSH2 0xE74 JUMP JUMPDEST SWAP2 POP PUSH1 0x20 DUP4 ADD CALLDATALOAD DUP1 ISZERO ISZERO DUP2 EQ PUSH2 0xF37 JUMPI PUSH0 DUP1 REVERT JUMPDEST DUP1 SWAP2 POP POP SWAP3 POP SWAP3 SWAP1 POP JUMP JUMPDEST PUSH4 0x4E487B71 PUSH1 0xE0 SHL PUSH0 MSTORE PUSH1 0x41 PUSH1 0x4 MSTORE PUSH1 0x24 PUSH0 REVERT JUMPDEST PUSH0 DUP1 PUSH0 DUP1 PUSH1 0x80 DUP6 DUP8 SUB SLT ISZERO PUSH2 0xF69 JUMPI PUSH0 DUP1 REVERT JUMPDEST PUSH2 0xF72 DUP6 PUSH2 0xE74 JUMP JUMPDEST SWAP4 POP PUSH2 0xF80 PUSH1 0x20 DUP7 ADD PUSH2 0xE74 JUMP JUMPDEST SWAP3 POP PUSH1 0x40 DUP6 ADD CALLDATALOAD SWAP2 POP PUSH1 0x60 DUP6 ADD CALLDATALOAD PUSH8 0xFFFFFFFFFFFFFFFF DUP1 DUP3 GT ISZERO PUSH2 0xFA3 JUMPI PUSH0 DUP1 REVERT JUMPDEST DUP2 DUP8 ADD SWAP2 POP DUP8 PUSH1 0x1F DUP4 ADD SLT PUSH2 0xFB6 JUMPI PUSH0 DUP1 REVERT JUMPDEST DUP2 CALLDATALOAD DUP2 DUP2 GT ISZERO PUSH2 0xFC8 JUMPI PUSH2 0xFC8 PUSH2 0xF42 JUMP JUMPDEST PUSH1 0x40 MLOAD PUSH1 0x1F DUP3 ADD PUSH1 0x1F NOT SWAP1 DUP2 AND PUSH1 0x3F ADD AND DUP2 ADD SWAP1 DUP4 DUP3 GT DUP2 DUP4 LT OR ISZERO PUSH2 0xFF0 JUMPI PUSH2 0xFF0 PUSH2 0xF42 JUMP JUMPDEST DUP2 PUSH1 0x40 MSTORE DUP3 DUP2 MSTORE DUP11 PUSH1 0x20 DUP5 DUP8 ADD ADD GT ISZERO PUSH2 0x1008 JUMPI PUSH0 DUP1 REVERT JUMPDEST DUP3 PUSH1 0x20 DUP7 ADD PUSH1 0x20 DUP4 ADD CALLDATACOPY PUSH0 PUSH1 0x20 DUP5 DUP4 ADD ADD MSTORE DUP1 SWAP6 POP POP POP POP POP POP SWAP3 SWAP6 SWAP2 SWAP5 POP SWAP3 POP JUMP JUMPDEST PUSH0 DUP1 PUSH1 0x40 DUP4 DUP6 SUB SLT ISZERO PUSH2 0x103C JUMPI PUSH0 DUP1 REVERT JUMPDEST PUSH2 0x1045 DUP4 PUSH2 0xE74 JUMP JUMPDEST SWAP2 POP PUSH2 0x1053 PUSH1 0x20 DUP5 ADD PUSH2 0xE74 JUMP JUMPDEST SWAP1 POP SWAP3 POP SWAP3 SWAP1 POP JUMP JUMPDEST PUSH1 0x1 DUP2 DUP2 SHR SWAP1 DUP3 AND DUP1 PUSH2 0x1070 JUMPI PUSH1 0x7F DUP3 AND SWAP2 POP JUMPDEST PUSH1 0x20 DUP3 LT DUP2 SUB PUSH2 0x108E JUMPI PUSH4 0x4E487B71 PUSH1 0xE0 SHL PUSH0 MSTORE PUSH1 0x22 PUSH1 0x4 MSTORE PUSH1 0x24 PUSH0 REVERT JUMPDEST POP SWAP2 SWAP1 POP JUMP JUMPDEST PUSH0 PUSH1 0x1 DUP3 ADD PUSH2 0x10B1 JUMPI PUSH4 0x4E487B71 PUSH1 0xE0 SHL PUSH0 MSTORE PUSH1 0x11 PUSH1 0x4 MSTORE PUSH1 0x24 PUSH0 REVERT JUMPDEST POP PUSH1 0x1 ADD SWAP1 JUMP JUMPDEST PUSH0 DUP4 MLOAD PUSH2 0x10C9 DUP2 DUP5 PUSH1 0x20 DUP9 ADD PUSH2 0xDFE JUMP JUMPDEST DUP4 MLOAD SWAP1 DUP4 ADD SWAP1 PUSH2 0x10DD DUP2 DUP4 PUSH1 0x20 DUP9 ADD PUSH2 0xDFE JUMP JUMPDEST ADD SWAP5 SWAP4 POP POP POP POP JUMP JUMPDEST PUSH1 0x1 PUSH1 0x1 PUSH1 0xA0 SHL SUB DUP6 DUP2 AND DUP3 MSTORE DUP5 AND PUSH1 0x20 DUP3 ADD MSTORE PUSH1 0x40 DUP2 ADD DUP4 SWAP1 MSTORE PUSH1 0x80 PUSH1 0x60 DUP3 ADD DUP2 SWAP1 MSTORE PUSH0 SWAP1 PUSH2 0x1118 SWAP1 DUP4 ADD DUP5 PUSH2 0xE20 JUMP JUMPDEST SWAP7 SWAP6 POP POP POP POP POP POP JUMP JUMPDEST PUSH0 PUSH1 0x20 DUP3 DUP5 SUB SLT ISZERO PUSH2 0x1132 JUMPI PUSH0 DUP1 REVERT JUMPDEST DUP2 MLOAD PUSH2 0x621 DUP2 PUSH2 0xDCE JUMP INVALID LOG2 PUSH5 0x6970667358 0x22 SLT KECCAK256 0xA6 0x4C 0xBA PUSH12 0x232D169AFBFBB9C78424ACC9 0xBD CALLDATACOPY 0xB4 0xEE 0xA8 DUP9 0x23 PUSH9 0xD78AD1162A5EA47064 PUSH20 0x6F6C634300081400330000000000000000000000 "
	},
	"abi": [
		{
			"inputs": [
				{
					"internalType": "address",
					"name": "to",
					"type": "address"
				},
				{
					"internalType": "uint256",
					"name": "tokenId",
					"type": "uint256"
				}
			],
			"name": "approve",
			"outputs": [],
			"stateMutability": "nonpayable",
			"type": "function"
		},
		{
			"inputs": [
				{
					"internalType": "uint256",
					"name": "price",
					"type": "uint256"
				},
				{
					"internalType": "address",
					"name": "initialOwner",
					"type": "address"
				}
			],
			"stateMutability": "nonpayable",
			"type": "constructor"
		},
		{
			"inputs": [
				{
					"internalType": "address",
					"name": "sender",
					"type": "address"
				},
				{
					"internalType": "uint256",
					"name": "tokenId",
					"type": "uint256"
				},
				{
					"internalType": "address",
					"name": "owner",
					"type": "address"
				}
			],
			"name": "ERC721IncorrectOwner",
			"type": "error"
		},
		{
			"inputs": [
				{
					"internalType": "address",
					"name": "operator",
					"type": "address"
				},
				{
					"internalType": "uint256",
					"name": "tokenId",
					"type": "uint256"
				}
			],
			"name": "ERC721InsufficientApproval",
			"type": "error"
		},
		{
			"inputs": [
				{
					"internalType": "address",
					"name": "approver",
					"type": "address"
				}
			],
			"name": "ERC721InvalidApprover",
			"type": "error"
		},
		{
			"inputs": [
				{
					"internalType": "address",
					"name": "operator",
					"type": "address"
				}
			],
			"name": "ERC721InvalidOperator",
			"type": "error"
		},
		{
			"inputs": [
				{
					"internalType": "address",
					"name": "owner",
					"type": "address"
				}
			],
			"name": "ERC721InvalidOwner",
			"type": "error"
		},
		{
			"inputs": [
				{
					"internalType": "address",
					"name": "receiver",
					"type": "address"
				}
			],
			"name": "ERC721InvalidReceiver",
			"type": "error"
		},
		{
			"inputs": [
				{
					"internalType": "address",
					"name": "sender",
					"type": "address"
				}
			],
			"name": "ERC721InvalidSender",
			"type": "error"
		},
		{
			"inputs": [
				{
					"internalType": "uint256",
					"name": "tokenId",
					"type": "uint256"
				}
			],
			"name": "ERC721NonexistentToken",
			"type": "error"
		},
		{
			"inputs": [
				{
					"internalType": "address",
					"name": "owner",
					"type": "address"
				}
			],
			"name": "OwnableInvalidOwner",
			"type": "error"
		},
		{
			"inputs": [
				{
					"internalType": "address",
					"name": "account",
					"type": "address"
				}
			],
			"name": "OwnableUnauthorizedAccount",
			"type": "error"
		},
		{
			"anonymous": false,
			"inputs": [
				{
					"indexed": true,
					"internalType": "address",
					"name": "owner",
					"type": "address"
				},
				{
					"indexed": true,
					"internalType": "address",
					"name": "approved",
					"type": "address"
				},
				{
					"indexed": true,
					"internalType": "uint256",
					"name": "tokenId",
					"type": "uint256"
				}
			],
			"name": "Approval",
			"type": "event"
		},
		{
			"anonymous": false,
			"inputs": [
				{
					"indexed": true,
					"internalType": "address",
					"name": "owner",
					"type": "address"
				},
				{
					"indexed": true,
					"internalType": "address",
					"name": "operator",
					"type": "address"
				},
				{
					"indexed": false,
					"internalType": "bool",
					"name": "approved",
					"type": "bool"
				}
			],
			"name": "ApprovalForAll",
			"type": "event"
		},
		{
			"inputs": [],
			"name": "mint",
			"outputs": [],
			"stateMutability": "nonpayable",
			"type": "function"
		},
		{
			"anonymous": false,
			"inputs": [
				{
					"indexed": true,
					"internalType": "address",
					"name": "user",
					"type": "address"
				},
				{
					"indexed": false,
					"internalType": "uint256",
					"name": "tokenId",
					"type": "uint256"
				},
				{
					"indexed": false,
					"internalType": "bool",
					"name": "isFree",
					"type": "bool"
				}
			],
			"name": "NFTMinted",
			"type": "event"
		},
		{
			"anonymous": false,
			"inputs": [
				{
					"indexed": true,
					"internalType": "address",
					"name": "previousOwner",
					"type": "address"
				},
				{
					"indexed": true,
					"internalType": "address",
					"name": "newOwner",
					"type": "address"
				}
			],
			"name": "OwnershipTransferred",
			"type": "event"
		},
		{
			"inputs": [],
			"name": "renounceOwnership",
			"outputs": [],
			"stateMutability": "nonpayable",
			"type": "function"
		},
		{
			"inputs": [
				{
					"internalType": "address",
					"name": "from",
					"type": "address"
				},
				{
					"internalType": "address",
					"name": "to",
					"type": "address"
				},
				{
					"internalType": "uint256",
					"name": "tokenId",
					"type": "uint256"
				}
			],
			"name": "safeTransferFrom",
			"outputs": [],
			"stateMutability": "nonpayable",
			"type": "function"
		},
		{
			"inputs": [
				{
					"internalType": "address",
					"name": "from",
					"type": "address"
				},
				{
					"internalType": "address",
					"name": "to",
					"type": "address"
				},
				{
					"internalType": "uint256",
					"name": "tokenId",
					"type": "uint256"
				},
				{
					"internalType": "bytes",
					"name": "data",
					"type": "bytes"
				}
			],
			"name": "safeTransferFrom",
			"outputs": [],
			"stateMutability": "nonpayable",
			"type": "function"
		},
		{
			"inputs": [
				{
					"internalType": "address",
					"name": "operator",
					"type": "address"
				},
				{
					"internalType": "bool",
					"name": "approved",
					"type": "bool"
				}
			],
			"name": "setApprovalForAll",
			"outputs": [],
			"stateMutability": "nonpayable",
			"type": "function"
		},
		{
			"anonymous": false,
			"inputs": [
				{
					"indexed": true,
					"internalType": "address",
					"name": "user",
					"type": "address"
				},
				{
					"indexed": false,
					"internalType": "uint256",
					"name": "amount",
					"type": "uint256"
				}
			],
			"name": "Staked",
			"type": "event"
		},
		{
			"anonymous": false,
			"inputs": [
				{
					"indexed": true,
					"internalType": "address",
					"name": "from",
					"type": "address"
				},
				{
					"indexed": true,
					"internalType": "address",
					"name": "to",
					"type": "address"
				},
				{
					"indexed": true,
					"internalType": "uint256",
					"name": "tokenId",
					"type": "uint256"
				}
			],
			"name": "Transfer",
			"type": "event"
		},
		{
			"inputs": [
				{
					"internalType": "address",
					"name": "from",
					"type": "address"
				},
				{
					"internalType": "address",
					"name": "to",
					"type": "address"
				},
				{
					"internalType": "uint256",
					"name": "tokenId",
					"type": "uint256"
				}
			],
			"name": "transferFrom",
			"outputs": [],
			"stateMutability": "nonpayable",
			"type": "function"
		},
		{
			"inputs": [
				{
					"internalType": "address",
					"name": "newOwner",
					"type": "address"
				}
			],
			"name": "transferOwnership",
			"outputs": [],
			"stateMutability": "nonpayable",
			"type": "function"
		},
		{
			"anonymous": false,
			"inputs": [
				{
					"indexed": true,
					"internalType": "address",
					"name": "user",
					"type": "address"
				},
				{
					"indexed": false,
					"internalType": "uint256",
					"name": "amount",
					"type": "uint256"
				}
			],
			"name": "Unstaked",
			"type": "event"
		},
		{
			"inputs": [
				{
					"internalType": "address",
					"name": "owner",
					"type": "address"
				}
			],
			"name": "balanceOf",
			"outputs": [
				{
					"internalType": "uint256",
					"name": "",
					"type": "uint256"
				}
			],
			"stateMutability": "view",
			"type": "function"
		},
		{
			"inputs": [
				{
					"internalType": "uint256",
					"name": "tokenId",
					"type": "uint256"
				}
			],
			"name": "getApproved",
			"outputs": [
				{
					"internalType": "address",
					"name": "",
					"type": "address"
				}
			],
			"stateMutability": "view",
			"type": "function"
		},
		{
			"inputs": [
				{
					"internalType": "address",
					"name": "owner",
					"type": "address"
				},
				{
					"internalType": "address",
					"name": "operator",
					"type": "address"
				}
			],
			"name": "isApprovedForAll",
			"outputs": [
				{
					"internalType": "bool",
					"name": "",
					"type": "bool"
				}
			],
			"stateMutability": "view",
			"type": "function"
		},
		{
			"inputs": [
				{
					"internalType": "address",
					"name": "",
					"type": "address"
				}
			],
			"name": "lastFreeMint",
			"outputs": [
				{
					"internalType": "uint256",
					"name": "",
					"type": "uint256"
				}
			],
			"stateMutability": "view",
			"type": "function"
		},
		{
			"inputs": [],
			"name": "name",
			"outputs": [
				{
					"internalType": "string",
					"name": "",
					"type": "string"
				}
			],
			"stateMutability": "view",
			"type": "function"
		},
		{
			"inputs": [],
			"name": "NFT_PRICE",
			"outputs": [
				{
					"internalType": "uint256",
					"name": "",
					"type": "uint256"
				}
			],
			"stateMutability": "view",
			"type": "function"
		},
		{
			"inputs": [],
			"name": "owner",
			"outputs": [
				{
					"internalType": "address",
					"name": "",
					"type": "address"
				}
			],
			"stateMutability": "view",
			"type": "function"
		},
		{
			"inputs": [
				{
					"internalType": "uint256",
					"name": "tokenId",
					"type": "uint256"
				}
			],
			"name": "ownerOf",
			"outputs": [
				{
					"internalType": "address",
					"name": "",
					"type": "address"
				}
			],
			"stateMutability": "view",
			"type": "function"
		},
		{
			"inputs": [
				{
					"internalType": "address",
					"name": "",
					"type": "address"
				}
			],
			"name": "stakedAmount",
			"outputs": [
				{
					"internalType": "uint256",
					"name": "",
					"type": "uint256"
				}
			],
			"stateMutability": "view",
			"type": "function"
		},
		{
			"inputs": [
				{
					"internalType": "bytes4",
					"name": "interfaceId",
					"type": "bytes4"
				}
			],
			"name": "supportsInterface",
			"outputs": [
				{
					"internalType": "bool",
					"name": "",
					"type": "bool"
				}
			],
			"stateMutability": "view",
			"type": "function"
		},
		{
			"inputs": [],
			"name": "symbol",
			"outputs": [
				{
					"internalType": "string",
					"name": "",
					"type": "string"
				}
			],
			"stateMutability": "view",
			"type": "function"
		},
		{
			"inputs": [
				{
					"internalType": "uint256",
					"name": "tokenId",
					"type": "uint256"
				}
			],
			"name": "tokenURI",
			"outputs": [
				{
					"internalType": "string",
					"name": "",
					"type": "string"
				}
			],
			"stateMutability": "view",
			"type": "function"
		}
	],
	"storageLayout": {
		"storage": [
			{
				"astId": 317,
				"contract": "contracts/Quest.sol:Quest",
				"label": "_name",
				"offset": 0,
				"slot": "0",
				"type": "t_string_storage"
			},
			{
				"astId": 319,
				"contract": "contracts/Quest.sol:Quest",
				"label": "_symbol",
				"offset": 0,
				"slot": "1",
				"type": "t_string_storage"
			},
			{
				"astId": 323,
				"contract": "contracts/Quest.sol:Quest",
				"label": "_owners",
				"offset": 0,
				"slot": "2",
				"type": "t_mapping(t_uint256,t_address)"
			},
			{
				"astId": 327,
				"contract": "contracts/Quest.sol:Quest",
				"label": "_balances",
				"offset": 0,
				"slot": "3",
				"type": "t_mapping(t_address,t_uint256)"
			},
			{
				"astId": 331,
				"contract": "contracts/Quest.sol:Quest",
				"label": "_tokenApprovals",
				"offset": 0,
				"slot": "4",
				"type": "t_mapping(t_uint256,t_address)"
			},
			{
				"astId": 337,
				"contract": "contracts/Quest.sol:Quest",
				"label": "_operatorApprovals",
				"offset": 0,
				"slot": "5",
				"type": "t_mapping(t_address,t_mapping(t_address,t_bool))"
			},
			{
				"astId": 8,
				"contract": "contracts/Quest.sol:Quest",
				"label": "_owner",
				"offset": 0,
				"slot": "6",
				"type": "t_address"
			},
			{
				"astId": 2946,
				"contract": "contracts/Quest.sol:Quest",
				"label": "_tokenIds",
				"offset": 0,
				"slot": "7",
				"type": "t_uint256"
			},
			{
				"astId": 2952,
				"contract": "contracts/Quest.sol:Quest",
				"label": "stakedAmount",
				"offset": 0,
				"slot": "8",
				"type": "t_mapping(t_address,t_uint256)"
			},
			{
				"astId": 2956,
				"contract": "contracts/Quest.sol:Quest",
				"label": "lastFreeMint",
				"offset": 0,
				"slot": "9",
				"type": "t_mapping(t_address,t_uint256)"
			}
		],
		"types": {
			"t_address": {
				"encoding": "inplace",
				"label": "address",
				"numberOfBytes": "20"
			},
			"t_bool": {
				"encoding": "inplace",
				"label": "bool",
				"numberOfBytes": "1"
			},
			"t_mapping(t_address,t_bool)": {
				"encoding": "mapping",
				"key": "t_address",
				"label": "mapping(address => bool)",
				"numberOfBytes": "32",
				"value": "t_bool"
			},
			"t_mapping(t_address,t_mapping(t_address,t_bool))": {
				"encoding": "mapping",
				"key": "t_address",
				"label": "mapping(address => mapping(address => bool))",
				"numberOfBytes": "32",
				"value": "t_mapping(t_address,t_bool)"
			},
			"t_mapping(t_address,t_uint256)": {
				"encoding": "mapping",
				"key": "t_address",
				"label": "mapping(address => uint256)",
				"numberOfBytes": "32",
				"value": "t_uint256"
			},
			"t_mapping(t_uint256,t_address)": {
				"encoding": "mapping",
				"key": "t_uint256",
				"label": "mapping(uint256 => address)",
				"numberOfBytes": "32",
				"value": "t_address"
			},
			"t_string_storage": {
				"encoding": "bytes",
				"label": "string",
				"numberOfBytes": "32"
			},
			"t_uint256": {
				"encoding": "inplace",
				"label": "uint256",
				"numberOfBytes": "32"
			}
		}
	},
	"web3Deploy": "var price = /* var of type uint256 here */ ;\nvar initialOwner = /* var of type address here */ ;\nvar questContract = new web3.eth.Contract([{\"inputs\":[{\"internalType\":\"uint256\",\"name\":\"price\",\"type\":\"uint256\"},{\"internalType\":\"address\",\"name\":\"initialOwner\",\"type\":\"address\"}],\"stateMutability\":\"nonpayable\",\"type\":\"constructor\"},{\"inputs\":[{\"internalType\":\"address\",\"name\":\"sender\",\"type\":\"address\"},{\"internalType\":\"uint256\",\"name\":\"tokenId\",\"type\":\"uint256\"},{\"internalType\":\"address\",\"name\":\"owner\",\"type\":\"address\"}],\"name\":\"ERC721IncorrectOwner\",\"type\":\"error\"},{\"inputs\":[{\"internalType\":\"address\",\"name\":\"operator\",\"type\":\"address\"},{\"internalType\":\"uint256\",\"name\":\"tokenId\",\"type\":\"uint256\"}],\"name\":\"ERC721InsufficientApproval\",\"type\":\"error\"},{\"inputs\":[{\"internalType\":\"address\",\"name\":\"approver\",\"type\":\"address\"}],\"name\":\"ERC721InvalidApprover\",\"type\":\"error\"},{\"inputs\":[{\"internalType\":\"address\",\"name\":\"operator\",\"type\":\"address\"}],\"name\":\"ERC721InvalidOperator\",\"type\":\"error\"},{\"inputs\":[{\"internalType\":\"address\",\"name\":\"owner\",\"type\":\"address\"}],\"name\":\"ERC721InvalidOwner\",\"type\":\"error\"},{\"inputs\":[{\"internalType\":\"address\",\"name\":\"receiver\",\"type\":\"address\"}],\"name\":\"ERC721InvalidReceiver\",\"type\":\"error\"},{\"inputs\":[{\"internalType\":\"address\",\"name\":\"sender\",\"type\":\"address\"}],\"name\":\"ERC721InvalidSender\",\"type\":\"error\"},{\"inputs\":[{\"internalType\":\"uint256\",\"name\":\"tokenId\",\"type\":\"uint256\"}],\"name\":\"ERC721NonexistentToken\",\"type\":\"error\"},{\"inputs\":[{\"internalType\":\"address\",\"name\":\"owner\",\"type\":\"address\"}],\"name\":\"OwnableInvalidOwner\",\"type\":\"error\"},{\"inputs\":[{\"internalType\":\"address\",\"name\":\"account\",\"type\":\"address\"}],\"name\":\"OwnableUnauthorizedAccount\",\"type\":\"error\"},{\"anonymous\":false,\"inputs\":[{\"indexed\":true,\"internalType\":\"address\",\"name\":\"owner\",\"type\":\"address\"},{\"indexed\":true,\"internalType\":\"address\",\"name\":\"approved\",\"type\":\"address\"},{\"indexed\":true,\"internalType\":\"uint256\",\"name\":\"tokenId\",\"type\":\"uint256\"}],\"name\":\"Approval\",\"type\":\"event\"},{\"anonymous\":false,\"inputs\":[{\"indexed\":true,\"internalType\":\"address\",\"name\":\"owner\",\"type\":\"address\"},{\"indexed\":true,\"internalType\":\"address\",\"name\":\"operator\",\"type\":\"address\"},{\"indexed\":false,\"internalType\":\"bool\",\"name\":\"approved\",\"type\":\"bool\"}],\"name\":\"ApprovalForAll\",\"type\":\"event\"},{\"anonymous\":false,\"inputs\":[{\"indexed\":true,\"internalType\":\"address\",\"name\":\"user\",\"type\":\"address\"},{\"indexed\":false,\"internalType\":\"uint256\",\"name\":\"tokenId\",\"type\":\"uint256\"},{\"indexed\":false,\"internalType\":\"bool\",\"name\":\"isFree\",\"type\":\"bool\"}],\"name\":\"NFTMinted\",\"type\":\"event\"},{\"anonymous\":false,\"inputs\":[{\"indexed\":true,\"internalType\":\"address\",\"name\":\"previousOwner\",\"type\":\"address\"},{\"indexed\":true,\"internalType\":\"address\",\"name\":\"newOwner\",\"type\":\"address\"}],\"name\":\"OwnershipTransferred\",\"type\":\"event\"},{\"anonymous\":false,\"inputs\":[{\"indexed\":true,\"internalType\":\"address\",\"name\":\"user\",\"type\":\"address\"},{\"indexed\":false,\"internalType\":\"uint256\",\"name\":\"amount\",\"type\":\"uint256\"}],\"name\":\"Staked\",\"type\":\"event\"},{\"anonymous\":false,\"inputs\":[{\"indexed\":true,\"internalType\":\"address\",\"name\":\"from\",\"type\":\"address\"},{\"indexed\":true,\"internalType\":\"address\",\"name\":\"to\",\"type\":\"address\"},{\"indexed\":true,\"internalType\":\"uint256\",\"name\":\"tokenId\",\"type\":\"uint256\"}],\"name\":\"Transfer\",\"type\":\"event\"},{\"anonymous\":false,\"inputs\":[{\"indexed\":true,\"internalType\":\"address\",\"name\":\"user\",\"type\":\"address\"},{\"indexed\":false,\"internalType\":\"uint256\",\"name\":\"amount\",\"type\":\"uint256\"}],\"name\":\"Unstaked\",\"type\":\"event\"},{\"inputs\":[],\"name\":\"NFT_PRICE\",\"outputs\":[{\"internalType\":\"uint256\",\"name\":\"\",\"type\":\"uint256\"}],\"stateMutability\":\"view\",\"type\":\"function\"},{\"inputs\":[{\"internalType\":\"address\",\"name\":\"to\",\"type\":\"address\"},{\"internalType\":\"uint256\",\"name\":\"tokenId\",\"type\":\"uint256\"}],\"name\":\"approve\",\"outputs\":[],\"stateMutability\":\"nonpayable\",\"type\":\"function\"},{\"inputs\":[{\"internalType\":\"address\",\"name\":\"owner\",\"type\":\"address\"}],\"name\":\"balanceOf\",\"outputs\":[{\"internalType\":\"uint256\",\"name\":\"\",\"type\":\"uint256\"}],\"stateMutability\":\"view\",\"type\":\"function\"},{\"inputs\":[{\"internalType\":\"uint256\",\"name\":\"tokenId\",\"type\":\"uint256\"}],\"name\":\"getApproved\",\"outputs\":[{\"internalType\":\"address\",\"name\":\"\",\"type\":\"address\"}],\"stateMutability\":\"view\",\"type\":\"function\"},{\"inputs\":[{\"internalType\":\"address\",\"name\":\"owner\",\"type\":\"address\"},{\"internalType\":\"address\",\"name\":\"operator\",\"type\":\"address\"}],\"name\":\"isApprovedForAll\",\"outputs\":[{\"internalType\":\"bool\",\"name\":\"\",\"type\":\"bool\"}],\"stateMutability\":\"view\",\"type\":\"function\"},{\"inputs\":[{\"internalType\":\"address\",\"name\":\"\",\"type\":\"address\"}],\"name\":\"lastFreeMint\",\"outputs\":[{\"internalType\":\"uint256\",\"name\":\"\",\"type\":\"uint256\"}],\"stateMutability\":\"view\",\"type\":\"function\"},{\"inputs\":[],\"name\":\"mint\",\"outputs\":[],\"stateMutability\":\"nonpayable\",\"type\":\"function\"},{\"inputs\":[],\"name\":\"name\",\"outputs\":[{\"internalType\":\"string\",\"name\":\"\",\"type\":\"string\"}],\"stateMutability\":\"view\",\"type\":\"function\"},{\"inputs\":[],\"name\":\"owner\",\"outputs\":[{\"internalType\":\"address\",\"name\":\"\",\"type\":\"address\"}],\"stateMutability\":\"view\",\"type\":\"function\"},{\"inputs\":[{\"internalType\":\"uint256\",\"name\":\"tokenId\",\"type\":\"uint256\"}],\"name\":\"ownerOf\",\"outputs\":[{\"internalType\":\"address\",\"name\":\"\",\"type\":\"address\"}],\"stateMutability\":\"view\",\"type\":\"function\"},{\"inputs\":[],\"name\":\"renounceOwnership\",\"outputs\":[],\"stateMutability\":\"nonpayable\",\"type\":\"function\"},{\"inputs\":[{\"internalType\":\"address\",\"name\":\"from\",\"type\":\"address\"},{\"internalType\":\"address\",\"name\":\"to\",\"type\":\"address\"},{\"internalType\":\"uint256\",\"name\":\"tokenId\",\"type\":\"uint256\"}],\"name\":\"safeTransferFrom\",\"outputs\":[],\"stateMutability\":\"nonpayable\",\"type\":\"function\"},{\"inputs\":[{\"internalType\":\"address\",\"name\":\"from\",\"type\":\"address\"},{\"internalType\":\"address\",\"name\":\"to\",\"type\":\"address\"},{\"internalType\":\"uint256\",\"name\":\"tokenId\",\"type\":\"uint256\"},{\"internalType\":\"bytes\",\"name\":\"data\",\"type\":\"bytes\"}],\"name\":\"safeTransferFrom\",\"outputs\":[],\"stateMutability\":\"nonpayable\",\"type\":\"function\"},{\"inputs\":[{\"internalType\":\"address\",\"name\":\"operator\",\"type\":\"address\"},{\"internalType\":\"bool\",\"name\":\"approved\",\"type\":\"bool\"}],\"name\":\"setApprovalForAll\",\"outputs\":[],\"stateMutability\":\"nonpayable\",\"type\":\"function\"},{\"inputs\":[{\"internalType\":\"address\",\"name\":\"\",\"type\":\"address\"}],\"name\":\"stakedAmount\",\"outputs\":[{\"internalType\":\"uint256\",\"name\":\"\",\"type\":\"uint256\"}],\"stateMutability\":\"view\",\"type\":\"function\"},{\"inputs\":[{\"internalType\":\"bytes4\",\"name\":\"interfaceId\",\"type\":\"bytes4\"}],\"name\":\"supportsInterface\",\"outputs\":[{\"internalType\":\"bool\",\"name\":\"\",\"type\":\"bool\"}],\"stateMutability\":\"view\",\"type\":\"function\"},{\"inputs\":[],\"name\":\"symbol\",\"outputs\":[{\"internalType\":\"string\",\"name\":\"\",\"type\":\"string\"}],\"stateMutability\":\"view\",\"type\":\"function\"},{\"inputs\":[{\"internalType\":\"uint256\",\"name\":\"tokenId\",\"type\":\"uint256\"}],\"name\":\"tokenURI\",\"outputs\":[{\"internalType\":\"string\",\"name\":\"\",\"type\":\"string\"}],\"stateMutability\":\"view\",\"type\":\"function\"},{\"inputs\":[{\"internalType\":\"address\",\"name\":\"from\",\"type\":\"address\"},{\"internalType\":\"address\",\"name\":\"to\",\"type\":\"address\"},{\"internalType\":\"uint256\",\"name\":\"tokenId\",\"type\":\"uint256\"}],\"name\":\"transferFrom\",\"outputs\":[],\"stateMutability\":\"nonpayable\",\"type\":\"function\"},{\"inputs\":[{\"internalType\":\"address\",\"name\":\"newOwner\",\"type\":\"address\"}],\"name\":\"transferOwnership\",\"outputs\":[],\"stateMutability\":\"nonpayable\",\"type\":\"function\"}]);\nvar quest = questContract.deploy({\n     data: '0x60a060405234801562000010575f80fd5b506040516200145938038062001459833981016040819052620000339162000129565b8060405180604001604052806008815260200167145d595cdd13919560c21b815250604051806040016040528060048152602001631453919560e21b815250815f908162000082919062000205565b50600162000091828262000205565b5050506001600160a01b038116620000c257604051631e4fbdf760e01b81525f600482015260240160405180910390fd5b620000cd81620000d8565b5050608052620002cd565b600680546001600160a01b038381166001600160a01b0319831681179093556040519116919082907f8be0079c531659141344cd1fd0a4f28419497f9722a3daafe3b4186f6b6457e0905f90a35050565b5f80604083850312156200013b575f80fd5b825160208401519092506001600160a01b03811681146200015a575f80fd5b809150509250929050565b634e487b7160e01b5f52604160045260245ffd5b600181811c908216806200018e57607f821691505b602082108103620001ad57634e487b7160e01b5f52602260045260245ffd5b50919050565b601f82111562000200575f81815260208120601f850160051c81016020861015620001db5750805b601f850160051c820191505b81811015620001fc57828155600101620001e7565b5050505b505050565b81516001600160401b0381111562000221576200022162000165565b620002398162000232845462000179565b84620001b3565b602080601f8311600181146200026f575f8415620002575750858301515b5f19600386901b1c1916600185901b178555620001fc565b5f85815260208120601f198616915b828110156200029f578886015182559484019460019091019084016200027e565b5085821015620002bd57878501515f19600388901b60f8161c191681555b5050505050600190811b01905550565b608051611173620002e65f395f6101ee01526111735ff3fe608060405234801561000f575f80fd5b5060043610610127575f3560e01c8063715018a6116100a9578063b88d4fde1161006e578063b88d4fde14610284578063c87b56dd14610297578063e985e9c5146102aa578063f2fde38b146102bd578063f9931855146102d0575f80fd5b8063715018a6146102315780638da5cb5b1461023957806395d89b411461024a578063a22cb46514610252578063a693b19f14610265575f80fd5b806323b872dd116100ef57806323b872dd146101b057806342842e0e146101c35780636352211e146101d6578063676dd563146101e957806370a082311461021e575f80fd5b806301ffc9a71461012b57806306fdde0314610153578063081812fc14610168578063095ea7b3146101935780631249c58b146101a8575b5f80fd5b61013e610139366004610de3565b6102ef565b60405190151581526020015b60405180910390f35b61015b610340565b60405161014a9190610e4b565b61017b610176366004610e5d565b6103cf565b6040516001600160a01b03909116815260200161014a565b6101a66101a1366004610e8f565b6103f6565b005b6101a6610405565b6101a66101be366004610eb7565b610477565b6101a66101d1366004610eb7565b610505565b61017b6101e4366004610e5d565b610524565b6102107f000000000000000000000000000000000000000000000000000000000000000081565b60405190815260200161014a565b61021061022c366004610ef0565b61052e565b6101a6610573565b6006546001600160a01b031661017b565b61015b610586565b6101a6610260366004610f09565b610595565b610210610273366004610ef0565b60096020525f908152604090205481565b6101a6610292366004610f56565b6105a0565b61015b6102a5366004610e5d565b6105b7565b61013e6102b836600461102b565b610628565b6101a66102cb366004610ef0565b610655565b6102106102de366004610ef0565b60086020525f908152604090205481565b5f6001600160e01b031982166380ac58cd60e01b148061031f57506001600160e01b03198216635b5e139f60e01b145b8061033a57506301ffc9a760e01b6001600160e01b03198316145b92915050565b60605f805461034e9061105c565b80601f016020809104026020016040519081016040528092919081815260200182805461037a9061105c565b80156103c55780601f1061039c576101008083540402835291602001916103c5565b820191905f5260205f20905b8154815290600101906020018083116103a857829003601f168201915b5050505050905090565b5f6103d982610692565b505f828152600460205260409020546001600160a01b031661033a565b6104018282336106ca565b5050565b60078054905f61041483611094565b909155505060075461042633826106d7565b335f8181526009602090815260409182902042905581518481526001918101919091527f8fa3ff725d2f7190c5e5dd9bc88f241a72b239e127e347dccdfc28e44e5e0963910160405180910390a250565b6001600160a01b0382166104a557604051633250574960e11b81525f60048201526024015b60405180910390fd5b5f6104b18383336106f0565b9050836001600160a01b0316816001600160a01b0316146104ff576040516364283d7b60e01b81526001600160a01b038086166004830152602482018490528216604482015260640161049c565b50505050565b61051f83838360405180602001604052805f8152506105a0565b505050565b5f61033a82610692565b5f6001600160a01b038216610558576040516322718ad960e21b81525f600482015260240161049c565b506001600160a01b03165f9081526003602052604090205490565b61057b6107e2565b6105845f61080f565b565b60606001805461034e9061105c565b610401338383610860565b6105ab848484610477565b6104ff848484846108fe565b60606105c282610692565b505f6105d860408051602081019091525f815290565b90505f8151116105f65760405180602001604052805f815250610621565b8061060084610a24565b6040516020016106119291906110b8565b6040516020818303038152906040525b9392505050565b6001600160a01b039182165f90815260056020908152604080832093909416825291909152205460ff1690565b61065d6107e2565b6001600160a01b03811661068657604051631e4fbdf760e01b81525f600482015260240161049c565b61068f8161080f565b50565b5f818152600260205260408120546001600160a01b03168061033a57604051637e27328960e01b81526004810184905260240161049c565b61051f8383836001610ab4565b610401828260405180602001604052805f815250610bb8565b5f828152600260205260408120546001600160a01b039081169083161561071c5761071c818486610bce565b6001600160a01b03811615610756576107375f855f80610ab4565b6001600160a01b0381165f90815260036020526040902080545f190190555b6001600160a01b03851615610784576001600160a01b0385165f908152600360205260409020805460010190555b5f8481526002602052604080822080546001600160a01b0319166001600160a01b0389811691821790925591518793918516917fddf252ad1be2c89b69c2b068fc378daa952ba7f163c4a11628f55a4df523b3ef91a4949350505050565b6006546001600160a01b031633146105845760405163118cdaa760e01b815233600482015260240161049c565b600680546001600160a01b038381166001600160a01b0319831681179093556040519116919082907f8be0079c531659141344cd1fd0a4f28419497f9722a3daafe3b4186f6b6457e0905f90a35050565b6001600160a01b03821661089257604051630b61174360e31b81526001600160a01b038316600482015260240161049c565b6001600160a01b038381165f81815260056020908152604080832094871680845294825291829020805460ff191686151590811790915591519182527f17307eab39ab6107e8899845ad3d59bd9653f200f220920489ca2b5937696c31910160405180910390a3505050565b6001600160a01b0383163b156104ff57604051630a85bd0160e11b81526001600160a01b0384169063150b7a02906109409033908890879087906004016110e6565b6020604051808303815f875af192505050801561097a575060408051601f3d908101601f1916820190925261097791810190611122565b60015b6109e1573d8080156109a7576040519150601f19603f3d011682016040523d82523d5f602084013e6109ac565b606091505b5080515f036109d957604051633250574960e11b81526001600160a01b038516600482015260240161049c565b805181602001fd5b6001600160e01b03198116630a85bd0160e11b14610a1d57604051633250574960e11b81526001600160a01b038516600482015260240161049c565b5050505050565b60605f610a3083610c32565b60010190505f8167ffffffffffffffff811115610a4f57610a4f610f42565b6040519080825280601f01601f191660200182016040528015610a79576020820181803683370190505b5090508181016020015b5f19016f181899199a1a9b1b9c1cb0b131b232b360811b600a86061a8153600a8504945084610a8357509392505050565b8080610ac857506001600160a01b03821615155b15610b89575f610ad784610692565b90506001600160a01b03831615801590610b035750826001600160a01b0316816001600160a01b031614155b8015610b165750610b148184610628565b155b15610b3f5760405163a9fbf51f60e01b81526001600160a01b038416600482015260240161049c565b8115610b875783856001600160a01b0316826001600160a01b03167f8c5be1e5ebec7d5bd14f71427d1e84f3dd0314c0f7b2291e5b200ac8c7c3b92560405160405180910390a45b505b50505f90815260046020526040902080546001600160a01b0319166001600160a01b0392909216919091179055565b610bc28383610d09565b61051f5f8484846108fe565b610bd9838383610d6a565b61051f576001600160a01b038316610c0757604051637e27328960e01b81526004810182905260240161049c565b60405163177e802f60e01b81526001600160a01b03831660048201526024810182905260440161049c565b5f8072184f03e93ff9f4daa797ed6e38ed64bf6a1f0160401b8310610c705772184f03e93ff9f4daa797ed6e38ed64bf6a1f0160401b830492506040015b6d04ee2d6d415b85acef81000000008310610c9c576d04ee2d6d415b85acef8100000000830492506020015b662386f26fc100008310610cba57662386f26fc10000830492506010015b6305f5e1008310610cd2576305f5e100830492506008015b6127108310610ce657612710830492506004015b60648310610cf8576064830492506002015b600a831061033a5760010192915050565b6001600160a01b038216610d3257604051633250574960e11b81525f600482015260240161049c565b5f610d3e83835f6106f0565b90506001600160a01b0381161561051f576040516339e3563760e11b81525f600482015260240161049c565b5f6001600160a01b03831615801590610dc65750826001600160a01b0316846001600160a01b03161480610da35750610da38484610628565b80610dc657505f828152600460205260409020546001600160a01b038481169116145b949350505050565b6001600160e01b03198116811461068f575f80fd5b5f60208284031215610df3575f80fd5b813561062181610dce565b5f5b83811015610e18578181015183820152602001610e00565b50505f910152565b5f8151808452610e37816020860160208601610dfe565b601f01601f19169290920160200192915050565b602081525f6106216020830184610e20565b5f60208284031215610e6d575f80fd5b5035919050565b80356001600160a01b0381168114610e8a575f80fd5b919050565b5f8060408385031215610ea0575f80fd5b610ea983610e74565b946020939093013593505050565b5f805f60608486031215610ec9575f80fd5b610ed284610e74565b9250610ee060208501610e74565b9150604084013590509250925092565b5f60208284031215610f00575f80fd5b61062182610e74565b5f8060408385031215610f1a575f80fd5b610f2383610e74565b915060208301358015158114610f37575f80fd5b809150509250929050565b634e487b7160e01b5f52604160045260245ffd5b5f805f8060808587031215610f69575f80fd5b610f7285610e74565b9350610f8060208601610e74565b925060408501359150606085013567ffffffffffffffff80821115610fa3575f80fd5b818701915087601f830112610fb6575f80fd5b813581811115610fc857610fc8610f42565b604051601f8201601f19908116603f01168101908382118183101715610ff057610ff0610f42565b816040528281528a6020848701011115611008575f80fd5b826020860160208301375f60208483010152809550505050505092959194509250565b5f806040838503121561103c575f80fd5b61104583610e74565b915061105360208401610e74565b90509250929050565b600181811c9082168061107057607f821691505b60208210810361108e57634e487b7160e01b5f52602260045260245ffd5b50919050565b5f600182016110b157634e487b7160e01b5f52601160045260245ffd5b5060010190565b5f83516110c9818460208801610dfe565b8351908301906110dd818360208801610dfe565b01949350505050565b6001600160a01b03858116825284166020820152604081018390526080606082018190525f9061111890830184610e20565b9695505050505050565b5f60208284031215611132575f80fd5b815161062181610dce56fea2646970667358221220a64cba6b232d169afbfbb9c78424acc9bd37b4eea8882368d78ad1162a5ea47064736f6c63430008140033', \n     arguments: [\n          price,\n          initialOwner,\n     ]\n}).send({\n     from: web3.eth.accounts[0], \n     gas: '4700000'\n   }, function (e, contract){\n    console.log(e, contract);\n    if (typeof contract.address !== 'undefined') {\n         console.log('Contract mined! address: ' + contract.address + ' transactionHash: ' + contract.transactionHash);\n    }\n })",
	"functionHashes": {
		"676dd563": "NFT_PRICE()",
		"095ea7b3": "approve(address,uint256)",
		"70a08231": "balanceOf(address)",
		"081812fc": "getApproved(uint256)",
		"e985e9c5": "isApprovedForAll(address,address)",
		"a693b19f": "lastFreeMint(address)",
		"1249c58b": "mint()",
		"06fdde03": "name()",
		"8da5cb5b": "owner()",
		"6352211e": "ownerOf(uint256)",
		"715018a6": "renounceOwnership()",
		"42842e0e": "safeTransferFrom(address,address,uint256)",
		"b88d4fde": "safeTransferFrom(address,address,uint256,bytes)",
		"a22cb465": "setApprovalForAll(address,bool)",
		"f9931855": "stakedAmount(address)",
		"01ffc9a7": "supportsInterface(bytes4)",
		"95d89b41": "symbol()",
		"c87b56dd": "tokenURI(uint256)",
		"23b872dd": "transferFrom(address,address,uint256)",
		"f2fde38b": "transferOwnership(address)"
	},
	"gasEstimates": {
		"Creation": {
			"codeDepositCost": "893400",
			"executionCost": "infinite",
			"totalCost": "infinite"
		},
		"External": {
			"NFT_PRICE()": "infinite",
			"approve(address,uint256)": "31531",
			"balanceOf(address)": "2696",
			"getApproved(uint256)": "infinite",
			"isApprovedForAll(address,address)": "infinite",
			"lastFreeMint(address)": "2627",
			"mint()": "infinite",
			"name()": "infinite",
			"owner()": "2375",
			"ownerOf(uint256)": "infinite",
			"renounceOwnership()": "infinite",
			"safeTransferFrom(address,address,uint256)": "infinite",
			"safeTransferFrom(address,address,uint256,bytes)": "infinite",
			"setApprovalForAll(address,bool)": "26745",
			"stakedAmount(address)": "2626",
			"supportsInterface(bytes4)": "531",
			"symbol()": "infinite",
			"tokenURI(uint256)": "infinite",
			"transferFrom(address,address,uint256)": "infinite",
			"transferOwnership(address)": "28421"
		}
	},
	"devdoc": {
		"errors": {
			"ERC721IncorrectOwner(address,uint256,address)": [
				{
					"details": "Indicates an error related to the ownership over a particular token. Used in transfers.",
					"params": {
						"owner": "Address of the current owner of a token.",
						"sender": "Address whose tokens are being transferred.",
						"tokenId": "Identifier number of a token."
					}
				}
			],
			"ERC721InsufficientApproval(address,uint256)": [
				{
					"details": "Indicates a failure with the `operator`’s approval. Used in transfers.",
					"params": {
						"operator": "Address that may be allowed to operate on tokens without being their owner.",
						"tokenId": "Identifier number of a token."
					}
				}
			],
			"ERC721InvalidApprover(address)": [
				{
					"details": "Indicates a failure with the `approver` of a token to be approved. Used in approvals.",
					"params": {
						"approver": "Address initiating an approval operation."
					}
				}
			],
			"ERC721InvalidOperator(address)": [
				{
					"details": "Indicates a failure with the `operator` to be approved. Used in approvals.",
					"params": {
						"operator": "Address that may be allowed to operate on tokens without being their owner."
					}
				}
			],
			"ERC721InvalidOwner(address)": [
				{
					"details": "Indicates that an address can't be an owner. For example, `address(0)` is a forbidden owner in EIP-20. Used in balance queries.",
					"params": {
						"owner": "Address of the current owner of a token."
					}
				}
			],
			"ERC721InvalidReceiver(address)": [
				{
					"details": "Indicates a failure with the token `receiver`. Used in transfers.",
					"params": {
						"receiver": "Address to which tokens are being transferred."
					}
				}
			],
			"ERC721InvalidSender(address)": [
				{
					"details": "Indicates a failure with the token `sender`. Used in transfers.",
					"params": {
						"sender": "Address whose tokens are being transferred."
					}
				}
			],
			"ERC721NonexistentToken(uint256)": [
				{
					"details": "Indicates a `tokenId` whose `owner` is the zero address.",
					"params": {
						"tokenId": "Identifier number of a token."
					}
				}
			],
			"OwnableInvalidOwner(address)": [
				{
					"details": "The owner is not a valid owner account. (eg. `address(0)`)"
				}
			],
			"OwnableUnauthorizedAccount(address)": [
				{
					"details": "The caller account is not authorized to perform an operation."
				}
			]
		},
		"events": {
			"Approval(address,address,uint256)": {
				"details": "Emitted when `owner` enables `approved` to manage the `tokenId` token."
			},
			"ApprovalForAll(address,address,bool)": {
				"details": "Emitted when `owner` enables or disables (`approved`) `operator` to manage all of its assets."
			},
			"Transfer(address,address,uint256)": {
				"details": "Emitted when `tokenId` token is transferred from `from` to `to`."
			}
		},
		"kind": "dev",
		"methods": {
			"approve(address,uint256)": {
				"details": "See {IERC721-approve}."
			},
			"balanceOf(address)": {
				"details": "See {IERC721-balanceOf}."
			},
			"getApproved(uint256)": {
				"details": "See {IERC721-getApproved}."
			},
			"isApprovedForAll(address,address)": {
				"details": "See {IERC721-isApprovedForAll}."
			},
			"name()": {
				"details": "See {IERC721Metadata-name}."
			},
			"owner()": {
				"details": "Returns the address of the current owner."
			},
			"ownerOf(uint256)": {
				"details": "See {IERC721-ownerOf}."
			},
			"renounceOwnership()": {
				"details": "Leaves the contract without owner. It will not be possible to call `onlyOwner` functions. Can only be called by the current owner. NOTE: Renouncing ownership will leave the contract without an owner, thereby disabling any functionality that is only available to the owner."
			},
			"safeTransferFrom(address,address,uint256)": {
				"details": "See {IERC721-safeTransferFrom}."
			},
			"safeTransferFrom(address,address,uint256,bytes)": {
				"details": "See {IERC721-safeTransferFrom}."
			},
			"setApprovalForAll(address,bool)": {
				"details": "See {IERC721-setApprovalForAll}."
			},
			"supportsInterface(bytes4)": {
				"details": "See {IERC165-supportsInterface}."
			},
			"symbol()": {
				"details": "See {IERC721Metadata-symbol}."
			},
			"tokenURI(uint256)": {
				"details": "See {IERC721Metadata-tokenURI}."
			},
			"transferFrom(address,address,uint256)": {
				"details": "See {IERC721-transferFrom}."
			},
			"transferOwnership(address)": {
				"details": "Transfers ownership of the contract to a new account (`newOwner`). Can only be called by the current owner."
			}
		},
		"version": 1
	},
	"userdoc": {
		"kind": "user",
		"methods": {},
		"version": 1
	},
	"Runtime Bytecode": {
		"immutableReferences": {
			"2948": [
				{
					"length": 32,
					"start": 494
				}
			]
		},
		"linkReferences": {},
		"object": "608060405234801561000f575f80fd5b5060043610610127575f3560e01c8063715018a6116100a9578063b88d4fde1161006e578063b88d4fde14610284578063c87b56dd14610297578063e985e9c5146102aa578063f2fde38b146102bd578063f9931855146102d0575f80fd5b8063715018a6146102315780638da5cb5b1461023957806395d89b411461024a578063a22cb46514610252578063a693b19f14610265575f80fd5b806323b872dd116100ef57806323b872dd146101b057806342842e0e146101c35780636352211e146101d6578063676dd563146101e957806370a082311461021e575f80fd5b806301ffc9a71461012b57806306fdde0314610153578063081812fc14610168578063095ea7b3146101935780631249c58b146101a8575b5f80fd5b61013e610139366004610de3565b6102ef565b60405190151581526020015b60405180910390f35b61015b610340565b60405161014a9190610e4b565b61017b610176366004610e5d565b6103cf565b6040516001600160a01b03909116815260200161014a565b6101a66101a1366004610e8f565b6103f6565b005b6101a6610405565b6101a66101be366004610eb7565b610477565b6101a66101d1366004610eb7565b610505565b61017b6101e4366004610e5d565b610524565b6102107f000000000000000000000000000000000000000000000000000000000000000081565b60405190815260200161014a565b61021061022c366004610ef0565b61052e565b6101a6610573565b6006546001600160a01b031661017b565b61015b610586565b6101a6610260366004610f09565b610595565b610210610273366004610ef0565b60096020525f908152604090205481565b6101a6610292366004610f56565b6105a0565b61015b6102a5366004610e5d565b6105b7565b61013e6102b836600461102b565b610628565b6101a66102cb366004610ef0565b610655565b6102106102de366004610ef0565b60086020525f908152604090205481565b5f6001600160e01b031982166380ac58cd60e01b148061031f57506001600160e01b03198216635b5e139f60e01b145b8061033a57506301ffc9a760e01b6001600160e01b03198316145b92915050565b60605f805461034e9061105c565b80601f016020809104026020016040519081016040528092919081815260200182805461037a9061105c565b80156103c55780601f1061039c576101008083540402835291602001916103c5565b820191905f5260205f20905b8154815290600101906020018083116103a857829003601f168201915b5050505050905090565b5f6103d982610692565b505f828152600460205260409020546001600160a01b031661033a565b6104018282336106ca565b5050565b60078054905f61041483611094565b909155505060075461042633826106d7565b335f8181526009602090815260409182902042905581518481526001918101919091527f8fa3ff725d2f7190c5e5dd9bc88f241a72b239e127e347dccdfc28e44e5e0963910160405180910390a250565b6001600160a01b0382166104a557604051633250574960e11b81525f60048201526024015b60405180910390fd5b5f6104b18383336106f0565b9050836001600160a01b0316816001600160a01b0316146104ff576040516364283d7b60e01b81526001600160a01b038086166004830152602482018490528216604482015260640161049c565b50505050565b61051f83838360405180602001604052805f8152506105a0565b505050565b5f61033a82610692565b5f6001600160a01b038216610558576040516322718ad960e21b81525f600482015260240161049c565b506001600160a01b03165f9081526003602052604090205490565b61057b6107e2565b6105845f61080f565b565b60606001805461034e9061105c565b610401338383610860565b6105ab848484610477565b6104ff848484846108fe565b60606105c282610692565b505f6105d860408051602081019091525f815290565b90505f8151116105f65760405180602001604052805f815250610621565b8061060084610a24565b6040516020016106119291906110b8565b6040516020818303038152906040525b9392505050565b6001600160a01b039182165f90815260056020908152604080832093909416825291909152205460ff1690565b61065d6107e2565b6001600160a01b03811661068657604051631e4fbdf760e01b81525f600482015260240161049c565b61068f8161080f565b50565b5f818152600260205260408120546001600160a01b03168061033a57604051637e27328960e01b81526004810184905260240161049c565b61051f8383836001610ab4565b610401828260405180602001604052805f815250610bb8565b5f828152600260205260408120546001600160a01b039081169083161561071c5761071c818486610bce565b6001600160a01b03811615610756576107375f855f80610ab4565b6001600160a01b0381165f90815260036020526040902080545f190190555b6001600160a01b03851615610784576001600160a01b0385165f908152600360205260409020805460010190555b5f8481526002602052604080822080546001600160a01b0319166001600160a01b0389811691821790925591518793918516917fddf252ad1be2c89b69c2b068fc378daa952ba7f163c4a11628f55a4df523b3ef91a4949350505050565b6006546001600160a01b031633146105845760405163118cdaa760e01b815233600482015260240161049c565b600680546001600160a01b038381166001600160a01b0319831681179093556040519116919082907f8be0079c531659141344cd1fd0a4f28419497f9722a3daafe3b4186f6b6457e0905f90a35050565b6001600160a01b03821661089257604051630b61174360e31b81526001600160a01b038316600482015260240161049c565b6001600160a01b038381165f81815260056020908152604080832094871680845294825291829020805460ff191686151590811790915591519182527f17307eab39ab6107e8899845ad3d59bd9653f200f220920489ca2b5937696c31910160405180910390a3505050565b6001600160a01b0383163b156104ff57604051630a85bd0160e11b81526001600160a01b0384169063150b7a02906109409033908890879087906004016110e6565b6020604051808303815f875af192505050801561097a575060408051601f3d908101601f1916820190925261097791810190611122565b60015b6109e1573d8080156109a7576040519150601f19603f3d011682016040523d82523d5f602084013e6109ac565b606091505b5080515f036109d957604051633250574960e11b81526001600160a01b038516600482015260240161049c565b805181602001fd5b6001600160e01b03198116630a85bd0160e11b14610a1d57604051633250574960e11b81526001600160a01b038516600482015260240161049c565b5050505050565b60605f610a3083610c32565b60010190505f8167ffffffffffffffff811115610a4f57610a4f610f42565b6040519080825280601f01601f191660200182016040528015610a79576020820181803683370190505b5090508181016020015b5f19016f181899199a1a9b1b9c1cb0b131b232b360811b600a86061a8153600a8504945084610a8357509392505050565b8080610ac857506001600160a01b03821615155b15610b89575f610ad784610692565b90506001600160a01b03831615801590610b035750826001600160a01b0316816001600160a01b031614155b8015610b165750610b148184610628565b155b15610b3f5760405163a9fbf51f60e01b81526001600160a01b038416600482015260240161049c565b8115610b875783856001600160a01b0316826001600160a01b03167f8c5be1e5ebec7d5bd14f71427d1e84f3dd0314c0f7b2291e5b200ac8c7c3b92560405160405180910390a45b505b50505f90815260046020526040902080546001600160a01b0319166001600160a01b0392909216919091179055565b610bc28383610d09565b61051f5f8484846108fe565b610bd9838383610d6a565b61051f576001600160a01b038316610c0757604051637e27328960e01b81526004810182905260240161049c565b60405163177e802f60e01b81526001600160a01b03831660048201526024810182905260440161049c565b5f8072184f03e93ff9f4daa797ed6e38ed64bf6a1f0160401b8310610c705772184f03e93ff9f4daa797ed6e38ed64bf6a1f0160401b830492506040015b6d04ee2d6d415b85acef81000000008310610c9c576d04ee2d6d415b85acef8100000000830492506020015b662386f26fc100008310610cba57662386f26fc10000830492506010015b6305f5e1008310610cd2576305f5e100830492506008015b6127108310610ce657612710830492506004015b60648310610cf8576064830492506002015b600a831061033a5760010192915050565b6001600160a01b038216610d3257604051633250574960e11b81525f600482015260240161049c565b5f610d3e83835f6106f0565b90506001600160a01b0381161561051f576040516339e3563760e11b81525f600482015260240161049c565b5f6001600160a01b03831615801590610dc65750826001600160a01b0316846001600160a01b03161480610da35750610da38484610628565b80610dc657505f828152600460205260409020546001600160a01b038481169116145b949350505050565b6001600160e01b03198116811461068f575f80fd5b5f60208284031215610df3575f80fd5b813561062181610dce565b5f5b83811015610e18578181015183820152602001610e00565b50505f910152565b5f8151808452610e37816020860160208601610dfe565b601f01601f19169290920160200192915050565b602081525f6106216020830184610e20565b5f60208284031215610e6d575f80fd5b5035919050565b80356001600160a01b0381168114610e8a575f80fd5b919050565b5f8060408385031215610ea0575f80fd5b610ea983610e74565b946020939093013593505050565b5f805f60608486031215610ec9575f80fd5b610ed284610e74565b9250610ee060208501610e74565b9150604084013590509250925092565b5f60208284031215610f00575f80fd5b61062182610e74565b5f8060408385031215610f1a575f80fd5b610f2383610e74565b915060208301358015158114610f37575f80fd5b809150509250929050565b634e487b7160e01b5f52604160045260245ffd5b5f805f8060808587031215610f69575f80fd5b610f7285610e74565b9350610f8060208601610e74565b925060408501359150606085013567ffffffffffffffff80821115610fa3575f80fd5b818701915087601f830112610fb6575f80fd5b813581811115610fc857610fc8610f42565b604051601f8201601f19908116603f01168101908382118183101715610ff057610ff0610f42565b816040528281528a6020848701011115611008575f80fd5b826020860160208301375f60208483010152809550505050505092959194509250565b5f806040838503121561103c575f80fd5b61104583610e74565b915061105360208401610e74565b90509250929050565b600181811c9082168061107057607f821691505b60208210810361108e57634e487b7160e01b5f52602260045260245ffd5b50919050565b5f600182016110b157634e487b7160e01b5f52601160045260245ffd5b5060010190565b5f83516110c9818460208801610dfe565b8351908301906110dd818360208801610dfe565b01949350505050565b6001600160a01b03858116825284166020820152604081018390526080606082018190525f9061111890830184610e20565b9695505050505050565b5f60208284031215611132575f80fd5b815161062181610dce56fea2646970667358221220a64cba6b232d169afbfbb9c78424acc9bd37b4eea8882368d78ad1162a5ea47064736f6c63430008140033",
		"opcodes": "PUSH1 0x80 PUSH1 0x40 MSTORE CALLVALUE DUP1 ISZERO PUSH2 0xF JUMPI PUSH0 DUP1 REVERT JUMPDEST POP PUSH1 0x4 CALLDATASIZE LT PUSH2 0x127 JUMPI PUSH0 CALLDATALOAD PUSH1 0xE0 SHR DUP1 PUSH4 0x715018A6 GT PUSH2 0xA9 JUMPI DUP1 PUSH4 0xB88D4FDE GT PUSH2 0x6E JUMPI DUP1 PUSH4 0xB88D4FDE EQ PUSH2 0x284 JUMPI DUP1 PUSH4 0xC87B56DD EQ PUSH2 0x297 JUMPI DUP1 PUSH4 0xE985E9C5 EQ PUSH2 0x2AA JUMPI DUP1 PUSH4 0xF2FDE38B EQ PUSH2 0x2BD JUMPI DUP1 PUSH4 0xF9931855 EQ PUSH2 0x2D0 JUMPI PUSH0 DUP1 REVERT JUMPDEST DUP1 PUSH4 0x715018A6 EQ PUSH2 0x231 JUMPI DUP1 PUSH4 0x8DA5CB5B EQ PUSH2 0x239 JUMPI DUP1 PUSH4 0x95D89B41 EQ PUSH2 0x24A JUMPI DUP1 PUSH4 0xA22CB465 EQ PUSH2 0x252 JUMPI DUP1 PUSH4 0xA693B19F EQ PUSH2 0x265 JUMPI PUSH0 DUP1 REVERT JUMPDEST DUP1 PUSH4 0x23B872DD GT PUSH2 0xEF JUMPI DUP1 PUSH4 0x23B872DD EQ PUSH2 0x1B0 JUMPI DUP1 PUSH4 0x42842E0E EQ PUSH2 0x1C3 JUMPI DUP1 PUSH4 0x6352211E EQ PUSH2 0x1D6 JUMPI DUP1 PUSH4 0x676DD563 EQ PUSH2 0x1E9 JUMPI DUP1 PUSH4 0x70A08231 EQ PUSH2 0x21E JUMPI PUSH0 DUP1 REVERT JUMPDEST DUP1 PUSH4 0x1FFC9A7 EQ PUSH2 0x12B JUMPI DUP1 PUSH4 0x6FDDE03 EQ PUSH2 0x153 JUMPI DUP1 PUSH4 0x81812FC EQ PUSH2 0x168 JUMPI DUP1 PUSH4 0x95EA7B3 EQ PUSH2 0x193 JUMPI DUP1 PUSH4 0x1249C58B EQ PUSH2 0x1A8 JUMPI JUMPDEST PUSH0 DUP1 REVERT JUMPDEST PUSH2 0x13E PUSH2 0x139 CALLDATASIZE PUSH1 0x4 PUSH2 0xDE3 JUMP JUMPDEST PUSH2 0x2EF JUMP JUMPDEST PUSH1 0x40 MLOAD SWAP1 ISZERO ISZERO DUP2 MSTORE PUSH1 0x20 ADD JUMPDEST PUSH1 0x40 MLOAD DUP1 SWAP2 SUB SWAP1 RETURN JUMPDEST PUSH2 0x15B PUSH2 0x340 JUMP JUMPDEST PUSH1 0x40 MLOAD PUSH2 0x14A SWAP2 SWAP1 PUSH2 0xE4B JUMP JUMPDEST PUSH2 0x17B PUSH2 0x176 CALLDATASIZE PUSH1 0x4 PUSH2 0xE5D JUMP JUMPDEST PUSH2 0x3CF JUMP JUMPDEST PUSH1 0x40 MLOAD PUSH1 0x1 PUSH1 0x1 PUSH1 0xA0 SHL SUB SWAP1 SWAP2 AND DUP2 MSTORE PUSH1 0x20 ADD PUSH2 0x14A JUMP JUMPDEST PUSH2 0x1A6 PUSH2 0x1A1 CALLDATASIZE PUSH1 0x4 PUSH2 0xE8F JUMP JUMPDEST PUSH2 0x3F6 JUMP JUMPDEST STOP JUMPDEST PUSH2 0x1A6 PUSH2 0x405 JUMP JUMPDEST PUSH2 0x1A6 PUSH2 0x1BE CALLDATASIZE PUSH1 0x4 PUSH2 0xEB7 JUMP JUMPDEST PUSH2 0x477 JUMP JUMPDEST PUSH2 0x1A6 PUSH2 0x1D1 CALLDATASIZE PUSH1 0x4 PUSH2 0xEB7 JUMP JUMPDEST PUSH2 0x505 JUMP JUMPDEST PUSH2 0x17B PUSH2 0x1E4 CALLDATASIZE PUSH1 0x4 PUSH2 0xE5D JUMP JUMPDEST PUSH2 0x524 JUMP JUMPDEST PUSH2 0x210 PUSH32 0x0 DUP2 JUMP JUMPDEST PUSH1 0x40 MLOAD SWAP1 DUP2 MSTORE PUSH1 0x20 ADD PUSH2 0x14A JUMP JUMPDEST PUSH2 0x210 PUSH2 0x22C CALLDATASIZE PUSH1 0x4 PUSH2 0xEF0 JUMP JUMPDEST PUSH2 0x52E JUMP JUMPDEST PUSH2 0x1A6 PUSH2 0x573 JUMP JUMPDEST PUSH1 0x6 SLOAD PUSH1 0x1 PUSH1 0x1 PUSH1 0xA0 SHL SUB AND PUSH2 0x17B JUMP JUMPDEST PUSH2 0x15B PUSH2 0x586 JUMP JUMPDEST PUSH2 0x1A6 PUSH2 0x260 CALLDATASIZE PUSH1 0x4 PUSH2 0xF09 JUMP JUMPDEST PUSH2 0x595 JUMP JUMPDEST PUSH2 0x210 PUSH2 0x273 CALLDATASIZE PUSH1 0x4 PUSH2 0xEF0 JUMP JUMPDEST PUSH1 0x9 PUSH1 0x20 MSTORE PUSH0 SWAP1 DUP2 MSTORE PUSH1 0x40 SWAP1 KECCAK256 SLOAD DUP2 JUMP JUMPDEST PUSH2 0x1A6 PUSH2 0x292 CALLDATASIZE PUSH1 0x4 PUSH2 0xF56 JUMP JUMPDEST PUSH2 0x5A0 JUMP JUMPDEST PUSH2 0x15B PUSH2 0x2A5 CALLDATASIZE PUSH1 0x4 PUSH2 0xE5D JUMP JUMPDEST PUSH2 0x5B7 JUMP JUMPDEST PUSH2 0x13E PUSH2 0x2B8 CALLDATASIZE PUSH1 0x4 PUSH2 0x102B JUMP JUMPDEST PUSH2 0x628 JUMP JUMPDEST PUSH2 0x1A6 PUSH2 0x2CB CALLDATASIZE PUSH1 0x4 PUSH2 0xEF0 JUMP JUMPDEST PUSH2 0x655 JUMP JUMPDEST PUSH2 0x210 PUSH2 0x2DE CALLDATASIZE PUSH1 0x4 PUSH2 0xEF0 JUMP JUMPDEST PUSH1 0x8 PUSH1 0x20 MSTORE PUSH0 SWAP1 DUP2 MSTORE PUSH1 0x40 SWAP1 KECCAK256 SLOAD DUP2 JUMP JUMPDEST PUSH0 PUSH1 0x1 PUSH1 0x1 PUSH1 0xE0 SHL SUB NOT DUP3 AND PUSH4 0x80AC58CD PUSH1 0xE0 SHL EQ DUP1 PUSH2 0x31F JUMPI POP PUSH1 0x1 PUSH1 0x1 PUSH1 0xE0 SHL SUB NOT DUP3 AND PUSH4 0x5B5E139F PUSH1 0xE0 SHL EQ JUMPDEST DUP1 PUSH2 0x33A JUMPI POP PUSH4 0x1FFC9A7 PUSH1 0xE0 SHL PUSH1 0x1 PUSH1 0x1 PUSH1 0xE0 SHL SUB NOT DUP4 AND EQ JUMPDEST SWAP3 SWAP2 POP POP JUMP JUMPDEST PUSH1 0x60 PUSH0 DUP1 SLOAD PUSH2 0x34E SWAP1 PUSH2 0x105C JUMP JUMPDEST DUP1 PUSH1 0x1F ADD PUSH1 0x20 DUP1 SWAP2 DIV MUL PUSH1 0x20 ADD PUSH1 0x40 MLOAD SWAP1 DUP2 ADD PUSH1 0x40 MSTORE DUP1 SWAP3 SWAP2 SWAP1 DUP2 DUP2 MSTORE PUSH1 0x20 ADD DUP3 DUP1 SLOAD PUSH2 0x37A SWAP1 PUSH2 0x105C JUMP JUMPDEST DUP1 ISZERO PUSH2 0x3C5 JUMPI DUP1 PUSH1 0x1F LT PUSH2 0x39C JUMPI PUSH2 0x100 DUP1 DUP4 SLOAD DIV MUL DUP4 MSTORE SWAP2 PUSH1 0x20 ADD SWAP2 PUSH2 0x3C5 JUMP JUMPDEST DUP3 ADD SWAP2 SWAP1 PUSH0 MSTORE PUSH1 0x20 PUSH0 KECCAK256 SWAP1 JUMPDEST DUP2 SLOAD DUP2 MSTORE SWAP1 PUSH1 0x1 ADD SWAP1 PUSH1 0x20 ADD DUP1 DUP4 GT PUSH2 0x3A8 JUMPI DUP3 SWAP1 SUB PUSH1 0x1F AND DUP3 ADD SWAP2 JUMPDEST POP POP POP POP POP SWAP1 POP SWAP1 JUMP JUMPDEST PUSH0 PUSH2 0x3D9 DUP3 PUSH2 0x692 JUMP JUMPDEST POP PUSH0 DUP3 DUP2 MSTORE PUSH1 0x4 PUSH1 0x20 MSTORE PUSH1 0x40 SWAP1 KECCAK256 SLOAD PUSH1 0x1 PUSH1 0x1 PUSH1 0xA0 SHL SUB AND PUSH2 0x33A JUMP JUMPDEST PUSH2 0x401 DUP3 DUP3 CALLER PUSH2 0x6CA JUMP JUMPDEST POP POP JUMP JUMPDEST PUSH1 0x7 DUP1 SLOAD SWAP1 PUSH0 PUSH2 0x414 DUP4 PUSH2 0x1094 JUMP JUMPDEST SWAP1 SWAP2 SSTORE POP POP PUSH1 0x7 SLOAD PUSH2 0x426 CALLER DUP3 PUSH2 0x6D7 JUMP JUMPDEST CALLER PUSH0 DUP2 DUP2 MSTORE PUSH1 0x9 PUSH1 0x20 SWAP1 DUP2 MSTORE PUSH1 0x40 SWAP2 DUP3 SWAP1 KECCAK256 TIMESTAMP SWAP1 SSTORE DUP2 MLOAD DUP5 DUP2 MSTORE PUSH1 0x1 SWAP2 DUP2 ADD SWAP2 SWAP1 SWAP2 MSTORE PUSH32 0x8FA3FF725D2F7190C5E5DD9BC88F241A72B239E127E347DCCDFC28E44E5E0963 SWAP2 ADD PUSH1 0x40 MLOAD DUP1 SWAP2 SUB SWAP1 LOG2 POP JUMP JUMPDEST PUSH1 0x1 PUSH1 0x1 PUSH1 0xA0 SHL SUB DUP3 AND PUSH2 0x4A5 JUMPI PUSH1 0x40 MLOAD PUSH4 0x32505749 PUSH1 0xE1 SHL DUP2 MSTORE PUSH0 PUSH1 0x4 DUP3 ADD MSTORE PUSH1 0x24 ADD JUMPDEST PUSH1 0x40 MLOAD DUP1 SWAP2 SUB SWAP1 REVERT JUMPDEST PUSH0 PUSH2 0x4B1 DUP4 DUP4 CALLER PUSH2 0x6F0 JUMP JUMPDEST SWAP1 POP DUP4 PUSH1 0x1 PUSH1 0x1 PUSH1 0xA0 SHL SUB AND DUP2 PUSH1 0x1 PUSH1 0x1 PUSH1 0xA0 SHL SUB AND EQ PUSH2 0x4FF JUMPI PUSH1 0x40 MLOAD PUSH4 0x64283D7B PUSH1 0xE0 SHL DUP2 MSTORE PUSH1 0x1 PUSH1 0x1 PUSH1 0xA0 SHL SUB DUP1 DUP7 AND PUSH1 0x4 DUP4 ADD MSTORE PUSH1 0x24 DUP3 ADD DUP5 SWAP1 MSTORE DUP3 AND PUSH1 0x44 DUP3 ADD MSTORE PUSH1 0x64 ADD PUSH2 0x49C JUMP JUMPDEST POP POP POP POP JUMP JUMPDEST PUSH2 0x51F DUP4 DUP4 DUP4 PUSH1 0x40 MLOAD DUP1 PUSH1 0x20 ADD PUSH1 0x40 MSTORE DUP1 PUSH0 DUP2 MSTORE POP PUSH2 0x5A0 JUMP JUMPDEST POP POP POP JUMP JUMPDEST PUSH0 PUSH2 0x33A DUP3 PUSH2 0x692 JUMP JUMPDEST PUSH0 PUSH1 0x1 PUSH1 0x1 PUSH1 0xA0 SHL SUB DUP3 AND PUSH2 0x558 JUMPI PUSH1 0x40 MLOAD PUSH4 0x22718AD9 PUSH1 0xE2 SHL DUP2 MSTORE PUSH0 PUSH1 0x4 DUP3 ADD MSTORE PUSH1 0x24 ADD PUSH2 0x49C JUMP JUMPDEST POP PUSH1 0x1 PUSH1 0x1 PUSH1 0xA0 SHL SUB AND PUSH0 SWAP1 DUP2 MSTORE PUSH1 0x3 PUSH1 0x20 MSTORE PUSH1 0x40 SWAP1 KECCAK256 SLOAD SWAP1 JUMP JUMPDEST PUSH2 0x57B PUSH2 0x7E2 JUMP JUMPDEST PUSH2 0x584 PUSH0 PUSH2 0x80F JUMP JUMPDEST JUMP JUMPDEST PUSH1 0x60 PUSH1 0x1 DUP1 SLOAD PUSH2 0x34E SWAP1 PUSH2 0x105C JUMP JUMPDEST PUSH2 0x401 CALLER DUP4 DUP4 PUSH2 0x860 JUMP JUMPDEST PUSH2 0x5AB DUP5 DUP5 DUP5 PUSH2 0x477 JUMP JUMPDEST PUSH2 0x4FF DUP5 DUP5 DUP5 DUP5 PUSH2 0x8FE JUMP JUMPDEST PUSH1 0x60 PUSH2 0x5C2 DUP3 PUSH2 0x692 JUMP JUMPDEST POP PUSH0 PUSH2 0x5D8 PUSH1 0x40 DUP1 MLOAD PUSH1 0x20 DUP2 ADD SWAP1 SWAP2 MSTORE PUSH0 DUP2 MSTORE SWAP1 JUMP JUMPDEST SWAP1 POP PUSH0 DUP2 MLOAD GT PUSH2 0x5F6 JUMPI PUSH1 0x40 MLOAD DUP1 PUSH1 0x20 ADD PUSH1 0x40 MSTORE DUP1 PUSH0 DUP2 MSTORE POP PUSH2 0x621 JUMP JUMPDEST DUP1 PUSH2 0x600 DUP5 PUSH2 0xA24 JUMP JUMPDEST PUSH1 0x40 MLOAD PUSH1 0x20 ADD PUSH2 0x611 SWAP3 SWAP2 SWAP1 PUSH2 0x10B8 JUMP JUMPDEST PUSH1 0x40 MLOAD PUSH1 0x20 DUP2 DUP4 SUB SUB DUP2 MSTORE SWAP1 PUSH1 0x40 MSTORE JUMPDEST SWAP4 SWAP3 POP POP POP JUMP JUMPDEST PUSH1 0x1 PUSH1 0x1 PUSH1 0xA0 SHL SUB SWAP2 DUP3 AND PUSH0 SWAP1 DUP2 MSTORE PUSH1 0x5 PUSH1 0x20 SWAP1 DUP2 MSTORE PUSH1 0x40 DUP1 DUP4 KECCAK256 SWAP4 SWAP1 SWAP5 AND DUP3 MSTORE SWAP2 SWAP1 SWAP2 MSTORE KECCAK256 SLOAD PUSH1 0xFF AND SWAP1 JUMP JUMPDEST PUSH2 0x65D PUSH2 0x7E2 JUMP JUMPDEST PUSH1 0x1 PUSH1 0x1 PUSH1 0xA0 SHL SUB DUP2 AND PUSH2 0x686 JUMPI PUSH1 0x40 MLOAD PUSH4 0x1E4FBDF7 PUSH1 0xE0 SHL DUP2 MSTORE PUSH0 PUSH1 0x4 DUP3 ADD MSTORE PUSH1 0x24 ADD PUSH2 0x49C JUMP JUMPDEST PUSH2 0x68F DUP2 PUSH2 0x80F JUMP JUMPDEST POP JUMP JUMPDEST PUSH0 DUP2 DUP2 MSTORE PUSH1 0x2 PUSH1 0x20 MSTORE PUSH1 0x40 DUP2 KECCAK256 SLOAD PUSH1 0x1 PUSH1 0x1 PUSH1 0xA0 SHL SUB AND DUP1 PUSH2 0x33A JUMPI PUSH1 0x40 MLOAD PUSH4 0x7E273289 PUSH1 0xE0 SHL DUP2 MSTORE PUSH1 0x4 DUP2 ADD DUP5 SWAP1 MSTORE PUSH1 0x24 ADD PUSH2 0x49C JUMP JUMPDEST PUSH2 0x51F DUP4 DUP4 DUP4 PUSH1 0x1 PUSH2 0xAB4 JUMP JUMPDEST PUSH2 0x401 DUP3 DUP3 PUSH1 0x40 MLOAD DUP1 PUSH1 0x20 ADD PUSH1 0x40 MSTORE DUP1 PUSH0 DUP2 MSTORE POP PUSH2 0xBB8 JUMP JUMPDEST PUSH0 DUP3 DUP2 MSTORE PUSH1 0x2 PUSH1 0x20 MSTORE PUSH1 0x40 DUP2 KECCAK256 SLOAD PUSH1 0x1 PUSH1 0x1 PUSH1 0xA0 SHL SUB SWAP1 DUP2 AND SWAP1 DUP4 AND ISZERO PUSH2 0x71C JUMPI PUSH2 0x71C DUP2 DUP5 DUP7 PUSH2 0xBCE JUMP JUMPDEST PUSH1 0x1 PUSH1 0x1 PUSH1 0xA0 SHL SUB DUP2 AND ISZERO PUSH2 0x756 JUMPI PUSH2 0x737 PUSH0 DUP6 PUSH0 DUP1 PUSH2 0xAB4 JUMP JUMPDEST PUSH1 0x1 PUSH1 0x1 PUSH1 0xA0 SHL SUB DUP2 AND PUSH0 SWAP1 DUP2 MSTORE PUSH1 0x3 PUSH1 0x20 MSTORE PUSH1 0x40 SWAP1 KECCAK256 DUP1 SLOAD PUSH0 NOT ADD SWAP1 SSTORE JUMPDEST PUSH1 0x1 PUSH1 0x1 PUSH1 0xA0 SHL SUB DUP6 AND ISZERO PUSH2 0x784 JUMPI PUSH1 0x1 PUSH1 0x1 PUSH1 0xA0 SHL SUB DUP6 AND PUSH0 SWAP1 DUP2 MSTORE PUSH1 0x3 PUSH1 0x20 MSTORE PUSH1 0x40 SWAP1 KECCAK256 DUP1 SLOAD PUSH1 0x1 ADD SWAP1 SSTORE JUMPDEST PUSH0 DUP5 DUP2 MSTORE PUSH1 0x2 PUSH1 0x20 MSTORE PUSH1 0x40 DUP1 DUP3 KECCAK256 DUP1 SLOAD PUSH1 0x1 PUSH1 0x1 PUSH1 0xA0 SHL SUB NOT AND PUSH1 0x1 PUSH1 0x1 PUSH1 0xA0 SHL SUB DUP10 DUP2 AND SWAP2 DUP3 OR SWAP1 SWAP3 SSTORE SWAP2 MLOAD DUP8 SWAP4 SWAP2 DUP6 AND SWAP2 PUSH32 0xDDF252AD1BE2C89B69C2B068FC378DAA952BA7F163C4A11628F55A4DF523B3EF SWAP2 LOG4 SWAP5 SWAP4 POP POP POP POP JUMP JUMPDEST PUSH1 0x6 SLOAD PUSH1 0x1 PUSH1 0x1 PUSH1 0xA0 SHL SUB AND CALLER EQ PUSH2 0x584 JUMPI PUSH1 0x40 MLOAD PUSH4 0x118CDAA7 PUSH1 0xE0 SHL DUP2 MSTORE CALLER PUSH1 0x4 DUP3 ADD MSTORE PUSH1 0x24 ADD PUSH2 0x49C JUMP JUMPDEST PUSH1 0x6 DUP1 SLOAD PUSH1 0x1 PUSH1 0x1 PUSH1 0xA0 SHL SUB DUP4 DUP2 AND PUSH1 0x1 PUSH1 0x1 PUSH1 0xA0 SHL SUB NOT DUP4 AND DUP2 OR SWAP1 SWAP4 SSTORE PUSH1 0x40 MLOAD SWAP2 AND SWAP2 SWAP1 DUP3 SWAP1 PUSH32 0x8BE0079C531659141344CD1FD0A4F28419497F9722A3DAAFE3B4186F6B6457E0 SWAP1 PUSH0 SWAP1 LOG3 POP POP JUMP JUMPDEST PUSH1 0x1 PUSH1 0x1 PUSH1 0xA0 SHL SUB DUP3 AND PUSH2 0x892 JUMPI PUSH1 0x40 MLOAD PUSH4 0xB611743 PUSH1 0xE3 SHL DUP2 MSTORE PUSH1 0x1 PUSH1 0x1 PUSH1 0xA0 SHL SUB DUP4 AND PUSH1 0x4 DUP3 ADD MSTORE PUSH1 0x24 ADD PUSH2 0x49C JUMP JUMPDEST PUSH1 0x1 PUSH1 0x1 PUSH1 0xA0 SHL SUB DUP4 DUP2 AND PUSH0 DUP2 DUP2 MSTORE PUSH1 0x5 PUSH1 0x20 SWAP1 DUP2 MSTORE PUSH1 0x40 DUP1 DUP4 KECCAK256 SWAP5 DUP8 AND DUP1 DUP5 MSTORE SWAP5 DUP3 MSTORE SWAP2 DUP3 SWAP1 KECCAK256 DUP1 SLOAD PUSH1 0xFF NOT AND DUP7 ISZERO ISZERO SWAP1 DUP2 OR SWAP1 SWAP2 SSTORE SWAP2 MLOAD SWAP2 DUP3 MSTORE PUSH32 0x17307EAB39AB6107E8899845AD3D59BD9653F200F220920489CA2B5937696C31 SWAP2 ADD PUSH1 0x40 MLOAD DUP1 SWAP2 SUB SWAP1 LOG3 POP POP POP JUMP JUMPDEST PUSH1 0x1 PUSH1 0x1 PUSH1 0xA0 SHL SUB DUP4 AND EXTCODESIZE ISZERO PUSH2 0x4FF JUMPI PUSH1 0x40 MLOAD PUSH4 0xA85BD01 PUSH1 0xE1 SHL DUP2 MSTORE PUSH1 0x1 PUSH1 0x1 PUSH1 0xA0 SHL SUB DUP5 AND SWAP1 PUSH4 0x150B7A02 SWAP1 PUSH2 0x940 SWAP1 CALLER SWAP1 DUP9 SWAP1 DUP8 SWAP1 DUP8 SWAP1 PUSH1 0x4 ADD PUSH2 0x10E6 JUMP JUMPDEST PUSH1 0x20 PUSH1 0x40 MLOAD DUP1 DUP4 SUB DUP2 PUSH0 DUP8 GAS CALL SWAP3 POP POP POP DUP1 ISZERO PUSH2 0x97A JUMPI POP PUSH1 0x40 DUP1 MLOAD PUSH1 0x1F RETURNDATASIZE SWAP1 DUP2 ADD PUSH1 0x1F NOT AND DUP3 ADD SWAP1 SWAP3 MSTORE PUSH2 0x977 SWAP2 DUP2 ADD SWAP1 PUSH2 0x1122 JUMP JUMPDEST PUSH1 0x1 JUMPDEST PUSH2 0x9E1 JUMPI RETURNDATASIZE DUP1 DUP1 ISZERO PUSH2 0x9A7 JUMPI PUSH1 0x40 MLOAD SWAP2 POP PUSH1 0x1F NOT PUSH1 0x3F RETURNDATASIZE ADD AND DUP3 ADD PUSH1 0x40 MSTORE RETURNDATASIZE DUP3 MSTORE RETURNDATASIZE PUSH0 PUSH1 0x20 DUP5 ADD RETURNDATACOPY PUSH2 0x9AC JUMP JUMPDEST PUSH1 0x60 SWAP2 POP JUMPDEST POP DUP1 MLOAD PUSH0 SUB PUSH2 0x9D9 JUMPI PUSH1 0x40 MLOAD PUSH4 0x32505749 PUSH1 0xE1 SHL DUP2 MSTORE PUSH1 0x1 PUSH1 0x1 PUSH1 0xA0 SHL SUB DUP6 AND PUSH1 0x4 DUP3 ADD MSTORE PUSH1 0x24 ADD PUSH2 0x49C JUMP JUMPDEST DUP1 MLOAD DUP2 PUSH1 0x20 ADD REVERT JUMPDEST PUSH1 0x1 PUSH1 0x1 PUSH1 0xE0 SHL SUB NOT DUP2 AND PUSH4 0xA85BD01 PUSH1 0xE1 SHL EQ PUSH2 0xA1D JUMPI PUSH1 0x40 MLOAD PUSH4 0x32505749 PUSH1 0xE1 SHL DUP2 MSTORE PUSH1 0x1 PUSH1 0x1 PUSH1 0xA0 SHL SUB DUP6 AND PUSH1 0x4 DUP3 ADD MSTORE PUSH1 0x24 ADD PUSH2 0x49C JUMP JUMPDEST POP POP POP POP POP JUMP JUMPDEST PUSH1 0x60 PUSH0 PUSH2 0xA30 DUP4 PUSH2 0xC32 JUMP JUMPDEST PUSH1 0x1 ADD SWAP1 POP PUSH0 DUP2 PUSH8 0xFFFFFFFFFFFFFFFF DUP2 GT ISZERO PUSH2 0xA4F JUMPI PUSH2 0xA4F PUSH2 0xF42 JUMP JUMPDEST PUSH1 0x40 MLOAD SWAP1 DUP1 DUP3 MSTORE DUP1 PUSH1 0x1F ADD PUSH1 0x1F NOT AND PUSH1 0x20 ADD DUP3 ADD PUSH1 0x40 MSTORE DUP1 ISZERO PUSH2 0xA79 JUMPI PUSH1 0x20 DUP3 ADD DUP2 DUP1 CALLDATASIZE DUP4 CALLDATACOPY ADD SWAP1 POP JUMPDEST POP SWAP1 POP DUP2 DUP2 ADD PUSH1 0x20 ADD JUMPDEST PUSH0 NOT ADD PUSH16 0x181899199A1A9B1B9C1CB0B131B232B3 PUSH1 0x81 SHL PUSH1 0xA DUP7 MOD BYTE DUP2 MSTORE8 PUSH1 0xA DUP6 DIV SWAP5 POP DUP5 PUSH2 0xA83 JUMPI POP SWAP4 SWAP3 POP POP POP JUMP JUMPDEST DUP1 DUP1 PUSH2 0xAC8 JUMPI POP PUSH1 0x1 PUSH1 0x1 PUSH1 0xA0 SHL SUB DUP3 AND ISZERO ISZERO JUMPDEST ISZERO PUSH2 0xB89 JUMPI PUSH0 PUSH2 0xAD7 DUP5 PUSH2 0x692 JUMP JUMPDEST SWAP1 POP PUSH1 0x1 PUSH1 0x1 PUSH1 0xA0 SHL SUB DUP4 AND ISZERO DUP1 ISZERO SWAP1 PUSH2 0xB03 JUMPI POP DUP3 PUSH1 0x1 PUSH1 0x1 PUSH1 0xA0 SHL SUB AND DUP2 PUSH1 0x1 PUSH1 0x1 PUSH1 0xA0 SHL SUB AND EQ ISZERO JUMPDEST DUP1 ISZERO PUSH2 0xB16 JUMPI POP PUSH2 0xB14 DUP2 DUP5 PUSH2 0x628 JUMP JUMPDEST ISZERO JUMPDEST ISZERO PUSH2 0xB3F JUMPI PUSH1 0x40 MLOAD PUSH4 0xA9FBF51F PUSH1 0xE0 SHL DUP2 MSTORE PUSH1 0x1 PUSH1 0x1 PUSH1 0xA0 SHL SUB DUP5 AND PUSH1 0x4 DUP3 ADD MSTORE PUSH1 0x24 ADD PUSH2 0x49C JUMP JUMPDEST DUP2 ISZERO PUSH2 0xB87 JUMPI DUP4 DUP6 PUSH1 0x1 PUSH1 0x1 PUSH1 0xA0 SHL SUB AND DUP3 PUSH1 0x1 PUSH1 0x1 PUSH1 0xA0 SHL SUB AND PUSH32 0x8C5BE1E5EBEC7D5BD14F71427D1E84F3DD0314C0F7B2291E5B200AC8C7C3B925 PUSH1 0x40 MLOAD PUSH1 0x40 MLOAD DUP1 SWAP2 SUB SWAP1 LOG4 JUMPDEST POP JUMPDEST POP POP PUSH0 SWAP1 DUP2 MSTORE PUSH1 0x4 PUSH1 0x20 MSTORE PUSH1 0x40 SWAP1 KECCAK256 DUP1 SLOAD PUSH1 0x1 PUSH1 0x1 PUSH1 0xA0 SHL SUB NOT AND PUSH1 0x1 PUSH1 0x1 PUSH1 0xA0 SHL SUB SWAP3 SWAP1 SWAP3 AND SWAP2 SWAP1 SWAP2 OR SWAP1 SSTORE JUMP JUMPDEST PUSH2 0xBC2 DUP4 DUP4 PUSH2 0xD09 JUMP JUMPDEST PUSH2 0x51F PUSH0 DUP5 DUP5 DUP5 PUSH2 0x8FE JUMP JUMPDEST PUSH2 0xBD9 DUP4 DUP4 DUP4 PUSH2 0xD6A JUMP JUMPDEST PUSH2 0x51F JUMPI PUSH1 0x1 PUSH1 0x1 PUSH1 0xA0 SHL SUB DUP4 AND PUSH2 0xC07 JUMPI PUSH1 0x40 MLOAD PUSH4 0x7E273289 PUSH1 0xE0 SHL DUP2 MSTORE PUSH1 0x4 DUP2 ADD DUP3 SWAP1 MSTORE PUSH1 0x24 ADD PUSH2 0x49C JUMP JUMPDEST PUSH1 0x40 MLOAD PUSH4 0x177E802F PUSH1 0xE0 SHL DUP2 MSTORE PUSH1 0x1 PUSH1 0x1 PUSH1 0xA0 SHL SUB DUP4 AND PUSH1 0x4 DUP3 ADD MSTORE PUSH1 0x24 DUP2 ADD DUP3 SWAP1 MSTORE PUSH1 0x44 ADD PUSH2 0x49C JUMP JUMPDEST PUSH0 DUP1 PUSH19 0x184F03E93FF9F4DAA797ED6E38ED64BF6A1F01 PUSH1 0x40 SHL DUP4 LT PUSH2 0xC70 JUMPI PUSH19 0x184F03E93FF9F4DAA797ED6E38ED64BF6A1F01 PUSH1 0x40 SHL DUP4 DIV SWAP3 POP PUSH1 0x40 ADD JUMPDEST PUSH14 0x4EE2D6D415B85ACEF8100000000 DUP4 LT PUSH2 0xC9C JUMPI PUSH14 0x4EE2D6D415B85ACEF8100000000 DUP4 DIV SWAP3 POP PUSH1 0x20 ADD JUMPDEST PUSH7 0x2386F26FC10000 DUP4 LT PUSH2 0xCBA JUMPI PUSH7 0x2386F26FC10000 DUP4 DIV SWAP3 POP PUSH1 0x10 ADD JUMPDEST PUSH4 0x5F5E100 DUP4 LT PUSH2 0xCD2 JUMPI PUSH4 0x5F5E100 DUP4 DIV SWAP3 POP PUSH1 0x8 ADD JUMPDEST PUSH2 0x2710 DUP4 LT PUSH2 0xCE6 JUMPI PUSH2 0x2710 DUP4 DIV SWAP3 POP PUSH1 0x4 ADD JUMPDEST PUSH1 0x64 DUP4 LT PUSH2 0xCF8 JUMPI PUSH1 0x64 DUP4 DIV SWAP3 POP PUSH1 0x2 ADD JUMPDEST PUSH1 0xA DUP4 LT PUSH2 0x33A JUMPI PUSH1 0x1 ADD SWAP3 SWAP2 POP POP JUMP JUMPDEST PUSH1 0x1 PUSH1 0x1 PUSH1 0xA0 SHL SUB DUP3 AND PUSH2 0xD32 JUMPI PUSH1 0x40 MLOAD PUSH4 0x32505749 PUSH1 0xE1 SHL DUP2 MSTORE PUSH0 PUSH1 0x4 DUP3 ADD MSTORE PUSH1 0x24 ADD PUSH2 0x49C JUMP JUMPDEST PUSH0 PUSH2 0xD3E DUP4 DUP4 PUSH0 PUSH2 0x6F0 JUMP JUMPDEST SWAP1 POP PUSH1 0x1 PUSH1 0x1 PUSH1 0xA0 SHL SUB DUP2 AND ISZERO PUSH2 0x51F JUMPI PUSH1 0x40 MLOAD PUSH4 0x39E35637 PUSH1 0xE1 SHL DUP2 MSTORE PUSH0 PUSH1 0x4 DUP3 ADD MSTORE PUSH1 0x24 ADD PUSH2 0x49C JUMP JUMPDEST PUSH0 PUSH1 0x1 PUSH1 0x1 PUSH1 0xA0 SHL SUB DUP4 AND ISZERO DUP1 ISZERO SWAP1 PUSH2 0xDC6 JUMPI POP DUP3 PUSH1 0x1 PUSH1 0x1 PUSH1 0xA0 SHL SUB AND DUP5 PUSH1 0x1 PUSH1 0x1 PUSH1 0xA0 SHL SUB AND EQ DUP1 PUSH2 0xDA3 JUMPI POP PUSH2 0xDA3 DUP5 DUP5 PUSH2 0x628 JUMP JUMPDEST DUP1 PUSH2 0xDC6 JUMPI POP PUSH0 DUP3 DUP2 MSTORE PUSH1 0x4 PUSH1 0x20 MSTORE PUSH1 0x40 SWAP1 KECCAK256 SLOAD PUSH1 0x1 PUSH1 0x1 PUSH1 0xA0 SHL SUB DUP5 DUP2 AND SWAP2 AND EQ JUMPDEST SWAP5 SWAP4 POP POP POP POP JUMP JUMPDEST PUSH1 0x1 PUSH1 0x1 PUSH1 0xE0 SHL SUB NOT DUP2 AND DUP2 EQ PUSH2 0x68F JUMPI PUSH0 DUP1 REVERT JUMPDEST PUSH0 PUSH1 0x20 DUP3 DUP5 SUB SLT ISZERO PUSH2 0xDF3 JUMPI PUSH0 DUP1 REVERT JUMPDEST DUP2 CALLDATALOAD PUSH2 0x621 DUP2 PUSH2 0xDCE JUMP JUMPDEST PUSH0 JUMPDEST DUP4 DUP2 LT ISZERO PUSH2 0xE18 JUMPI DUP2 DUP2 ADD MLOAD DUP4 DUP3 ADD MSTORE PUSH1 0x20 ADD PUSH2 0xE00 JUMP JUMPDEST POP POP PUSH0 SWAP2 ADD MSTORE JUMP JUMPDEST PUSH0 DUP2 MLOAD DUP1 DUP5 MSTORE PUSH2 0xE37 DUP2 PUSH1 0x20 DUP7 ADD PUSH1 0x20 DUP7 ADD PUSH2 0xDFE JUMP JUMPDEST PUSH1 0x1F ADD PUSH1 0x1F NOT AND SWAP3 SWAP1 SWAP3 ADD PUSH1 0x20 ADD SWAP3 SWAP2 POP POP JUMP JUMPDEST PUSH1 0x20 DUP2 MSTORE PUSH0 PUSH2 0x621 PUSH1 0x20 DUP4 ADD DUP5 PUSH2 0xE20 JUMP JUMPDEST PUSH0 PUSH1 0x20 DUP3 DUP5 SUB SLT ISZERO PUSH2 0xE6D JUMPI PUSH0 DUP1 REVERT JUMPDEST POP CALLDATALOAD SWAP2 SWAP1 POP JUMP JUMPDEST DUP1 CALLDATALOAD PUSH1 0x1 PUSH1 0x1 PUSH1 0xA0 SHL SUB DUP2 AND DUP2 EQ PUSH2 0xE8A JUMPI PUSH0 DUP1 REVERT JUMPDEST SWAP2 SWAP1 POP JUMP JUMPDEST PUSH0 DUP1 PUSH1 0x40 DUP4 DUP6 SUB SLT ISZERO PUSH2 0xEA0 JUMPI PUSH0 DUP1 REVERT JUMPDEST PUSH2 0xEA9 DUP4 PUSH2 0xE74 JUMP JUMPDEST SWAP5 PUSH1 0x20 SWAP4 SWAP1 SWAP4 ADD CALLDATALOAD SWAP4 POP POP POP JUMP JUMPDEST PUSH0 DUP1 PUSH0 PUSH1 0x60 DUP5 DUP7 SUB SLT ISZERO PUSH2 0xEC9 JUMPI PUSH0 DUP1 REVERT JUMPDEST PUSH2 0xED2 DUP5 PUSH2 0xE74 JUMP JUMPDEST SWAP3 POP PUSH2 0xEE0 PUSH1 0x20 DUP6 ADD PUSH2 0xE74 JUMP JUMPDEST SWAP2 POP PUSH1 0x40 DUP5 ADD CALLDATALOAD SWAP1 POP SWAP3 POP SWAP3 POP SWAP3 JUMP JUMPDEST PUSH0 PUSH1 0x20 DUP3 DUP5 SUB SLT ISZERO PUSH2 0xF00 JUMPI PUSH0 DUP1 REVERT JUMPDEST PUSH2 0x621 DUP3 PUSH2 0xE74 JUMP JUMPDEST PUSH0 DUP1 PUSH1 0x40 DUP4 DUP6 SUB SLT ISZERO PUSH2 0xF1A JUMPI PUSH0 DUP1 REVERT JUMPDEST PUSH2 0xF23 DUP4 PUSH2 0xE74 JUMP JUMPDEST SWAP2 POP PUSH1 0x20 DUP4 ADD CALLDATALOAD DUP1 ISZERO ISZERO DUP2 EQ PUSH2 0xF37 JUMPI PUSH0 DUP1 REVERT JUMPDEST DUP1 SWAP2 POP POP SWAP3 POP SWAP3 SWAP1 POP JUMP JUMPDEST PUSH4 0x4E487B71 PUSH1 0xE0 SHL PUSH0 MSTORE PUSH1 0x41 PUSH1 0x4 MSTORE PUSH1 0x24 PUSH0 REVERT JUMPDEST PUSH0 DUP1 PUSH0 DUP1 PUSH1 0x80 DUP6 DUP8 SUB SLT ISZERO PUSH2 0xF69 JUMPI PUSH0 DUP1 REVERT JUMPDEST PUSH2 0xF72 DUP6 PUSH2 0xE74 JUMP JUMPDEST SWAP4 POP PUSH2 0xF80 PUSH1 0x20 DUP7 ADD PUSH2 0xE74 JUMP JUMPDEST SWAP3 POP PUSH1 0x40 DUP6 ADD CALLDATALOAD SWAP2 POP PUSH1 0x60 DUP6 ADD CALLDATALOAD PUSH8 0xFFFFFFFFFFFFFFFF DUP1 DUP3 GT ISZERO PUSH2 0xFA3 JUMPI PUSH0 DUP1 REVERT JUMPDEST DUP2 DUP8 ADD SWAP2 POP DUP8 PUSH1 0x1F DUP4 ADD SLT PUSH2 0xFB6 JUMPI PUSH0 DUP1 REVERT JUMPDEST DUP2 CALLDATALOAD DUP2 DUP2 GT ISZERO PUSH2 0xFC8 JUMPI PUSH2 0xFC8 PUSH2 0xF42 JUMP JUMPDEST PUSH1 0x40 MLOAD PUSH1 0x1F DUP3 ADD PUSH1 0x1F NOT SWAP1 DUP2 AND PUSH1 0x3F ADD AND DUP2 ADD SWAP1 DUP4 DUP3 GT DUP2 DUP4 LT OR ISZERO PUSH2 0xFF0 JUMPI PUSH2 0xFF0 PUSH2 0xF42 JUMP JUMPDEST DUP2 PUSH1 0x40 MSTORE DUP3 DUP2 MSTORE DUP11 PUSH1 0x20 DUP5 DUP8 ADD ADD GT ISZERO PUSH2 0x1008 JUMPI PUSH0 DUP1 REVERT JUMPDEST DUP3 PUSH1 0x20 DUP7 ADD PUSH1 0x20 DUP4 ADD CALLDATACOPY PUSH0 PUSH1 0x20 DUP5 DUP4 ADD ADD MSTORE DUP1 SWAP6 POP POP POP POP POP POP SWAP3 SWAP6 SWAP2 SWAP5 POP SWAP3 POP JUMP JUMPDEST PUSH0 DUP1 PUSH1 0x40 DUP4 DUP6 SUB SLT ISZERO PUSH2 0x103C JUMPI PUSH0 DUP1 REVERT JUMPDEST PUSH2 0x1045 DUP4 PUSH2 0xE74 JUMP JUMPDEST SWAP2 POP PUSH2 0x1053 PUSH1 0x20 DUP5 ADD PUSH2 0xE74 JUMP JUMPDEST SWAP1 POP SWAP3 POP SWAP3 SWAP1 POP JUMP JUMPDEST PUSH1 0x1 DUP2 DUP2 SHR SWAP1 DUP3 AND DUP1 PUSH2 0x1070 JUMPI PUSH1 0x7F DUP3 AND SWAP2 POP JUMPDEST PUSH1 0x20 DUP3 LT DUP2 SUB PUSH2 0x108E JUMPI PUSH4 0x4E487B71 PUSH1 0xE0 SHL PUSH0 MSTORE PUSH1 0x22 PUSH1 0x4 MSTORE PUSH1 0x24 PUSH0 REVERT JUMPDEST POP SWAP2 SWAP1 POP JUMP JUMPDEST PUSH0 PUSH1 0x1 DUP3 ADD PUSH2 0x10B1 JUMPI PUSH4 0x4E487B71 PUSH1 0xE0 SHL PUSH0 MSTORE PUSH1 0x11 PUSH1 0x4 MSTORE PUSH1 0x24 PUSH0 REVERT JUMPDEST POP PUSH1 0x1 ADD SWAP1 JUMP JUMPDEST PUSH0 DUP4 MLOAD PUSH2 0x10C9 DUP2 DUP5 PUSH1 0x20 DUP9 ADD PUSH2 0xDFE JUMP JUMPDEST DUP4 MLOAD SWAP1 DUP4 ADD SWAP1 PUSH2 0x10DD DUP2 DUP4 PUSH1 0x20 DUP9 ADD PUSH2 0xDFE JUMP JUMPDEST ADD SWAP5 SWAP4 POP POP POP POP JUMP JUMPDEST PUSH1 0x1 PUSH1 0x1 PUSH1 0xA0 SHL SUB DUP6 DUP2 AND DUP3 MSTORE DUP5 AND PUSH1 0x20 DUP3 ADD MSTORE PUSH1 0x40 DUP2 ADD DUP4 SWAP1 MSTORE PUSH1 0x80 PUSH1 0x60 DUP3 ADD DUP2 SWAP1 MSTORE PUSH0 SWAP1 PUSH2 0x1118 SWAP1 DUP4 ADD DUP5 PUSH2 0xE20 JUMP JUMPDEST SWAP7 SWAP6 POP POP POP POP POP POP JUMP JUMPDEST PUSH0 PUSH1 0x20 DUP3 DUP5 SUB SLT ISZERO PUSH2 0x1132 JUMPI PUSH0 DUP1 REVERT JUMPDEST DUP2 MLOAD PUSH2 0x621 DUP2 PUSH2 0xDCE JUMP INVALID LOG2 PUSH5 0x6970667358 0x22 SLT KECCAK256 0xA6 0x4C 0xBA PUSH12 0x232D169AFBFBB9C78424ACC9 0xBD CALLDATACOPY 0xB4 0xEE 0xA8 DUP9 0x23 PUSH9 0xD78AD1162A5EA47064 PUSH20 0x6F6C634300081400330000000000000000000000 "
	},
	"Assembly": ".code\n  PUSH A0\t\t\tcontract Quest is ERC721, Owna...\n  PUSH 40\t\t\tcontract Quest is ERC721, Owna...\n  MSTORE \t\t\tcontract Quest is ERC721, Owna...\n  CALLVALUE \t\t\tconstructor(\\n        uint256 ...\n  DUP1 \t\t\tconstructor(\\n        uint256 ...\n  ISZERO \t\t\tconstructor(\\n        uint256 ...\n  PUSH [tag] 1\t\t\tconstructor(\\n        uint256 ...\n  JUMPI \t\t\tconstructor(\\n        uint256 ...\n  PUSH 0\t\t\tconstructor(\\n        uint256 ...\n  DUP1 \t\t\tconstructor(\\n        uint256 ...\n  REVERT \t\t\tconstructor(\\n        uint256 ...\ntag 1\t\t\tconstructor(\\n        uint256 ...\n  JUMPDEST \t\t\tconstructor(\\n        uint256 ...\n  POP \t\t\tconstructor(\\n        uint256 ...\n  PUSH 40\t\t\tconstructor(\\n        uint256 ...\n  MLOAD \t\t\tconstructor(\\n        uint256 ...\n  PUSHSIZE \t\t\tconstructor(\\n        uint256 ...\n  CODESIZE \t\t\tconstructor(\\n        uint256 ...\n  SUB \t\t\tconstructor(\\n        uint256 ...\n  DUP1 \t\t\tconstructor(\\n        uint256 ...\n  PUSHSIZE \t\t\tconstructor(\\n        uint256 ...\n  DUP4 \t\t\tconstructor(\\n        uint256 ...\n  CODECOPY \t\t\tconstructor(\\n        uint256 ...\n  DUP2 \t\t\tconstructor(\\n        uint256 ...\n  ADD \t\t\tconstructor(\\n        uint256 ...\n  PUSH 40\t\t\tconstructor(\\n        uint256 ...\n  DUP2 \t\t\tconstructor(\\n        uint256 ...\n  SWAP1 \t\t\tconstructor(\\n        uint256 ...\n  MSTORE \t\t\tconstructor(\\n        uint256 ...\n  PUSH [tag] 2\t\t\tconstructor(\\n        uint256 ...\n  SWAP2 \t\t\tconstructor(\\n        uint256 ...\n  PUSH [tag] 3\t\t\tconstructor(\\n        uint256 ...\n  JUMP \t\t\tconstructor(\\n        uint256 ...\ntag 2\t\t\tconstructor(\\n        uint256 ...\n  JUMPDEST \t\t\tconstructor(\\n        uint256 ...\n  DUP1 \t\t\tinitialOwner\n  PUSH 40\t\t\t\n  MLOAD \t\t\t\n  DUP1 \t\t\t\n  PUSH 40\t\t\t\n  ADD \t\t\t\n  PUSH 40\t\t\t\n  MSTORE \t\t\t\n  DUP1 \t\t\t\n  PUSH 8\t\t\t\n  DUP2 \t\t\t\n  MSTORE \t\t\t\n  PUSH 20\t\t\t\n  ADD \t\t\t\n  PUSH 145D595CDD139195\t\t\t\n  PUSH C2\t\t\t\n  SHL \t\t\t\n  DUP2 \t\t\t\n  MSTORE \t\t\t\n  POP \t\t\t\n  PUSH 40\t\t\t\n  MLOAD \t\t\t\n  DUP1 \t\t\t\n  PUSH 40\t\t\t\n  ADD \t\t\t\n  PUSH 40\t\t\t\n  MSTORE \t\t\t\n  DUP1 \t\t\t\n  PUSH 4\t\t\t\n  DUP2 \t\t\t\n  MSTORE \t\t\t\n  PUSH 20\t\t\t\n  ADD \t\t\t\n  PUSH 14539195\t\t\t\n  PUSH E2\t\t\t\n  SHL \t\t\t\n  DUP2 \t\t\t\n  MSTORE \t\t\t\n  POP \t\t\t\n  DUP2 \t\t\t\n  PUSH 0\t\t\t\n  SWAP1 \t\t\t\n  DUP2 \t\t\t\n  PUSH [tag] 8\t\t\t\n  SWAP2 \t\t\t\n  SWAP1 \t\t\t\n  PUSH [tag] 9\t\t\t\n  JUMP \t\t\t\ntag 8\t\t\t\n  JUMPDEST \t\t\t\n  POP \t\t\t\n  PUSH 1\t\t\t\n  PUSH [tag] 10\t\t\t\n  DUP3 \t\t\t\n  DUP3 \t\t\t\n  PUSH [tag] 9\t\t\t\n  JUMP \t\t\t\ntag 10\t\t\t\n  JUMPDEST \t\t\t\n  POP \t\t\t\n  POP \t\t\t\n  POP \t\t\t\n  PUSH 1\t\t\t\n  PUSH 1\t\t\t\n  PUSH A0\t\t\t\n  SHL \t\t\t\n  SUB \t\t\t\n  DUP2 \t\t\t\n  AND \t\t\t\n  PUSH [tag] 12\t\t\t\n  JUMPI \t\t\t\n  PUSH 40\t\t\t\n  MLOAD \t\t\t\n  PUSH 1E4FBDF7\t\t\t\n  PUSH E0\t\t\t\n  SHL \t\t\t\n  DUP2 \t\t\t\n  MSTORE \t\t\t\n  PUSH 0\t\t\t\n  PUSH 4\t\t\t\n  DUP3 \t\t\t\n  ADD \t\t\t\n  MSTORE \t\t\t\n  PUSH 24\t\t\t\n  ADD \t\t\t\n  PUSH 40\t\t\t\n  MLOAD \t\t\t\n  DUP1 \t\t\t\n  SWAP2 \t\t\t\n  SUB \t\t\t\n  SWAP1 \t\t\t\n  REVERT \t\t\t\ntag 12\t\t\t\n  JUMPDEST \t\t\t\n  PUSH [tag] 15\t\t\t\n  DUP2 \t\t\t\n  PUSH [tag] 16\t\t\t\n  JUMP \t\t\t\ntag 15\t\t\t\n  JUMPDEST \t\t\t\n  POP \t\t\t\n  POP \t\t\t\n  PUSH 80\t\t\tNFT_PRICE = price\n  MSTORE \t\t\tNFT_PRICE = price\n  PUSH [tag] 25\t\t\tcontract Quest is ERC721, Owna...\n  JUMP \t\t\tcontract Quest is ERC721, Owna...\ntag 16\t\t\t\n  JUMPDEST \t\t\t\n  PUSH 6\t\t\t\n  DUP1 \t\t\t\n  SLOAD \t\t\t\n  PUSH 1\t\t\t\n  PUSH 1\t\t\t\n  PUSH A0\t\t\t\n  SHL \t\t\t\n  SUB \t\t\t\n  DUP4 \t\t\t\n  DUP2 \t\t\t\n  AND \t\t\t\n  PUSH 1\t\t\t\n  PUSH 1\t\t\t\n  PUSH A0\t\t\t\n  SHL \t\t\t\n  SUB \t\t\t\n  NOT \t\t\t\n  DUP4 \t\t\t\n  AND \t\t\t\n  DUP2 \t\t\t\n  OR \t\t\t\n  SWAP1 \t\t\t\n  SWAP4 \t\t\t\n  SSTORE \t\t\t\n  PUSH 40\t\t\t\n  MLOAD \t\t\t\n  SWAP2 \t\t\t\n  AND \t\t\t\n  SWAP2 \t\t\t\n  SWAP1 \t\t\t\n  DUP3 \t\t\t\n  SWAP1 \t\t\t\n  PUSH 8BE0079C531659141344CD1FD0A4F28419497F9722A3DAAFE3B4186F6B6457E0\t\t\t\n  SWAP1 \t\t\t\n  PUSH 0\t\t\t\n  SWAP1 \t\t\t\n  LOG3 \t\t\t\n  POP \t\t\t\n  POP \t\t\t\n  JUMP \t\t\t\ntag 3\t\t\te-Identifier: MIT\\npragma soli...\n  JUMPDEST \t\t\te-Identifier: MIT\\npragma soli...\n  PUSH 0\t\t\tn/ERC7\n  DUP1 \t\t\t/ERC72\n  PUSH 40\t\t\tOw\n  DUP4 \t\t\tacts/acce\n  DUP6 \t\t\tlin/con\n  SUB \t\t\teppelin/contracts/acces\n  SLT \t\t\tpenzeppelin/contracts/access/O...\n  ISZERO \t\t\t\"@openzeppelin/contracts/acces...\n  PUSH [tag] 27\t\t\t\"@openzeppelin/contracts/acces...\n  JUMPI \t\t\t\"@openzeppelin/contracts/acces...\n  PUSH 0\t\t\to\n  DUP1 \t\t\t\\n\n  REVERT \t\t\te.sol\";\\n\\ncon\ntag 27\t\t\t\"@openzeppelin/contracts/acces...\n  JUMPDEST \t\t\t\"@openzeppelin/contracts/acces...\n  DUP3 \t\t\t, Ownable {\\n    \n  MLOAD \t\t\t, Ownable {\\n    \n  PUSH 20\t\t\tic\n  DUP5 \t\t\t   uint256 public \n  ADD \t\t\t   uint256 public \n  MLOAD \t\t\tIds;\\n    uint256 public i\n  SWAP1 \t\t\t, Ownable {\\n    \n  SWAP3 \t\t\t, Ownable {\\n    \n  POP \t\t\t\n  PUSH 1\t\t\t\n  PUSH 1\t\t\t\n  PUSH A0\t\t\t\n  SHL \t\t\t\n  SUB \t\t\t\n  DUP2 \t\t\tH\\n\\n    mapping(address => ui...\n  AND \t\t\tH\\n\\n    mapping(address => ui...\n  DUP2 \t\t\t // .10 ETH\\n\\n    mapping(add...\n  EQ \t\t\t // .10 ETH\\n\\n    mapping(add...\n  PUSH [tag] 28\t\t\tNFT_PRICE; // .10 ETH\\n\\n    m...\n  JUMPI \t\t\tNFT_PRICE; // .10 ETH\\n\\n    m...\n  PUSH 0\t\t\te\n  DUP1 \t\t\tt\n  REVERT \t\t\tublic staked\ntag 28\t\t\tNFT_PRICE; // .10 ETH\\n\\n    m...\n  JUMPDEST \t\t\tNFT_PRICE; // .10 ETH\\n\\n    m...\n  DUP1 \t\t\tddres\n  SWAP2 \t\t\t mapping(addres\n  POP \t\t\t mapping(addres\n  POP \t\t\t mapping(addres\n  SWAP3 \t\t\te-Identifier: MIT\\npragma soli...\n  POP \t\t\te-Identifier: MIT\\npragma soli...\n  SWAP3 \t\t\te-Identifier: MIT\\npragma soli...\n  SWAP1 \t\t\te-Identifier: MIT\\npragma soli...\n  POP \t\t\te-Identifier: MIT\\npragma soli...\n  JUMP \t\t\te-Identifier: MIT\\npragma soli...\ntag 20\t\t\t6) public lastFreeMint;\\n\\n   ...\n  JUMPDEST \t\t\t6) public lastFreeMint;\\n\\n   ...\n  PUSH 4E487B71\t\t\tr, uint256\n  PUSH E0\t\t\td u\n  SHL \t\t\tdexed user, uint256 \n  PUSH 0\t\t\t \n  MSTORE \t\t\taddress indexed user, uint256 ...\n  PUSH 41\t\t\tnsta\n  PUSH 4\t\t\tt\n  MSTORE \t\t\t   event Unstak\n  PUSH 24\t\t\tuser\n  PUSH 0\t\t\te\n  REVERT \t\t\ts indexed user,\ntag 21\t\t\tount);\\n    event NFTMinted(ad...\n  JUMPDEST \t\t\tount);\\n    event NFTMinted(ad...\n  PUSH 1\t\t\t\\n\n  DUP2 \t\t\tee);\\n\\n    co\n  DUP2 \t\t\tee);\\n\\n    co\n  SHR \t\t\tee);\\n\\n    co\n  SWAP1 \t\t\tee);\\n\\n    co\n  DUP3 \t\t\t       addre\n  AND \t\t\t       addre\n  DUP1 \t\t\t       addre\n  PUSH [tag] 31\t\t\tlOwner\\n    ) ERC721(\"QuestNFT...\n  JUMPI \t\t\tlOwner\\n    ) ERC721(\"QuestNFT...\n  PUSH 7F\t\t\tlOwn\n  DUP3 \t\t\te(init\n  AND \t\t\tnable(initialOwne\n  SWAP2 \t\t\t\"QNFT\") Ownable(initialOwne\n  POP \t\t\t\"QNFT\") Ownable(initialOwne\ntag 31\t\t\tlOwner\\n    ) ERC721(\"QuestNFT...\n  JUMPDEST \t\t\tlOwner\\n    ) ERC721(\"QuestNFT...\n  PUSH 20\t\t\tio\n  DUP3 \t\t\t   fun\n  LT \t\t\t\\n\\n    function\n  DUP2 \t\t\tPRICE = price;\\n   \n  SUB \t\t\tFT_PRICE = price;\\n    }\\n\\n  ...\n  PUSH [tag] 32\t\t\t  NFT_PRICE = price;\\n    }\\n\\...\n  JUMPI \t\t\t  NFT_PRICE = price;\\n    }\\n\\...\n  PUSH 4E487B71\t\t\t     uint2\n  PUSH E0\t\t\t;\\n \n  SHL \t\t\tds++;\\n        uint25\n  PUSH 0\t\t\te\n  MSTORE \t\t\t   _tokenIds++;\\n        uint2...\n  PUSH 22\t\t\t;\\n  \n  PUSH 4\t\t\tI\n  MSTORE \t\t\t _tokenIds;\\n   \n  PUSH 24\t\t\ter, \n  PUSH 0\t\t\te\n  REVERT \t\t\tt(msg.sender, n\ntag 32\t\t\t  NFT_PRICE = price;\\n    }\\n\\...\n  JUMPDEST \t\t\t  NFT_PRICE = price;\\n    }\\n\\...\n  POP \t\t\t  NFT_PRICE = price;\\n    }\\n\\...\n  SWAP2 \t\t\tount);\\n    event NFTMinted(ad...\n  SWAP1 \t\t\tount);\\n    event NFTMinted(ad...\n  POP \t\t\tount);\\n    event NFTMinted(ad...\n  JUMP \t\t\tount);\\n    event NFTMinted(ad...\ntag 23\t\t\t\n  JUMPDEST \t\t\t\n  PUSH 1F\t\t\t\n  DUP3 \t\t\t\n  GT \t\t\t\n  ISZERO \t\t\t\n  PUSH [tag] 35\t\t\t\n  JUMPI \t\t\t\n  PUSH 0\t\t\t\n  DUP2 \t\t\t\n  DUP2 \t\t\t\n  MSTORE \t\t\t\n  PUSH 20\t\t\t\n  DUP2 \t\t\t\n  KECCAK256 \t\t\t\n  PUSH 1F\t\t\t\n  DUP6 \t\t\t\n  ADD \t\t\t\n  PUSH 5\t\t\t\n  SHR \t\t\t\n  DUP2 \t\t\t\n  ADD \t\t\t\n  PUSH 20\t\t\t\n  DUP7 \t\t\t\n  LT \t\t\t\n  ISZERO \t\t\t\n  PUSH [tag] 36\t\t\t\n  JUMPI \t\t\t\n  POP \t\t\t\n  DUP1 \t\t\t\ntag 36\t\t\t\n  JUMPDEST \t\t\t\n  PUSH 1F\t\t\t\n  DUP6 \t\t\t\n  ADD \t\t\t\n  PUSH 5\t\t\t\n  SHR \t\t\t\n  DUP3 \t\t\t\n  ADD \t\t\t\n  SWAP2 \t\t\t\n  POP \t\t\t\ntag 37\t\t\t\n  JUMPDEST \t\t\t\n  DUP2 \t\t\t\n  DUP2 \t\t\t\n  LT \t\t\t\n  ISZERO \t\t\t\n  PUSH [tag] 39\t\t\t\n  JUMPI \t\t\t\n  DUP3 \t\t\t\n  DUP2 \t\t\t\n  SSTORE \t\t\t\n  PUSH 1\t\t\t\n  ADD \t\t\t\n  PUSH [tag] 37\t\t\t\n  JUMP \t\t\t\ntag 39\t\t\t\n  JUMPDEST \t\t\t\n  POP \t\t\t\n  POP \t\t\t\n  POP \t\t\t\ntag 35\t\t\t\n  JUMPDEST \t\t\t\n  POP \t\t\t\n  POP \t\t\t\n  POP \t\t\t\n  JUMP \t\t\t\ntag 9\t\t\t\n  JUMPDEST \t\t\t\n  DUP2 \t\t\t\n  MLOAD \t\t\t\n  PUSH 1\t\t\t\n  PUSH 1\t\t\t\n  PUSH 40\t\t\t\n  SHL \t\t\t\n  SUB \t\t\t\n  DUP2 \t\t\t\n  GT \t\t\t\n  ISZERO \t\t\t\n  PUSH [tag] 43\t\t\t\n  JUMPI \t\t\t\n  PUSH [tag] 43\t\t\t\n  PUSH [tag] 20\t\t\t\n  JUMP \t\t\t\ntag 43\t\t\t\n  JUMPDEST \t\t\t\n  PUSH [tag] 44\t\t\t\n  DUP2 \t\t\t\n  PUSH [tag] 45\t\t\t\n  DUP5 \t\t\t\n  SLOAD \t\t\t\n  PUSH [tag] 21\t\t\t\n  JUMP \t\t\t\ntag 45\t\t\t\n  JUMPDEST \t\t\t\n  DUP5 \t\t\t\n  PUSH [tag] 23\t\t\t\n  JUMP \t\t\t\ntag 44\t\t\t\n  JUMPDEST \t\t\t\n  PUSH 20\t\t\t\n  DUP1 \t\t\t\n  PUSH 1F\t\t\t\n  DUP4 \t\t\t\n  GT \t\t\t\n  PUSH 1\t\t\t\n  DUP2 \t\t\t\n  EQ \t\t\t\n  PUSH [tag] 47\t\t\t\n  JUMPI \t\t\t\n  PUSH 0\t\t\t\n  DUP5 \t\t\t\n  ISZERO \t\t\t\n  PUSH [tag] 48\t\t\t\n  JUMPI \t\t\t\n  POP \t\t\t\n  DUP6 \t\t\t\n  DUP4 \t\t\t\n  ADD \t\t\t\n  MLOAD \t\t\t\ntag 48\t\t\t\n  JUMPDEST \t\t\t\n  PUSH 0\t\t\t\n  NOT \t\t\t\n  PUSH 3\t\t\t\n  DUP7 \t\t\t\n  SWAP1 \t\t\t\n  SHL \t\t\t\n  SHR \t\t\t\n  NOT \t\t\t\n  AND \t\t\t\n  PUSH 1\t\t\t\n  DUP6 \t\t\t\n  SWAP1 \t\t\t\n  SHL \t\t\t\n  OR \t\t\t\n  DUP6 \t\t\t\n  SSTORE \t\t\t\n  PUSH [tag] 39\t\t\t\n  JUMP \t\t\t\ntag 47\t\t\t\n  JUMPDEST \t\t\t\n  PUSH 0\t\t\tn\n  DUP6 \t\t\t(msg.sender, n\n  DUP2 \t\t\t(msg.sender, n\n  MSTORE \t\t\t(msg.sender, n\n  PUSH 20\t\t\t\n  DUP2 \t\t\t\\n    }\\n}\n  KECCAK256 \t\t\t\\n    }\\n}\n  PUSH 1F\t\t\t\n  NOT \t\t\t\n  DUP7 \t\t\t\n  AND \t\t\t\n  SWAP2 \t\t\t\ntag 51\t\t\t\n  JUMPDEST \t\t\t\n  DUP3 \t\t\t\n  DUP2 \t\t\t\n  LT \t\t\t\n  ISZERO \t\t\t\n  PUSH [tag] 53\t\t\t\n  JUMPI \t\t\t\n  DUP9 \t\t\t\n  DUP7 \t\t\t\n  ADD \t\t\t\n  MLOAD \t\t\t\n  DUP3 \t\t\t\n  SSTORE \t\t\t\n  SWAP5 \t\t\t\n  DUP5 \t\t\t\n  ADD \t\t\t\n  SWAP5 \t\t\t\n  PUSH 1\t\t\t\n  SWAP1 \t\t\t\n  SWAP2 \t\t\t\n  ADD \t\t\t\n  SWAP1 \t\t\t\n  DUP5 \t\t\t\n  ADD \t\t\t\n  PUSH [tag] 51\t\t\t\n  JUMP \t\t\t\ntag 53\t\t\t\n  JUMPDEST \t\t\t\n  POP \t\t\t\n  DUP6 \t\t\t\n  DUP3 \t\t\t\n  LT \t\t\t\n  ISZERO \t\t\t\n  PUSH [tag] 54\t\t\t\n  JUMPI \t\t\t\n  DUP8 \t\t\t\n  DUP6 \t\t\t\n  ADD \t\t\t\n  MLOAD \t\t\t\n  PUSH 0\t\t\t\n  NOT \t\t\t\n  PUSH 3\t\t\t\n  DUP9 \t\t\t\n  SWAP1 \t\t\t\n  SHL \t\t\t\n  PUSH F8\t\t\t\n  AND \t\t\t\n  SHR \t\t\t\n  NOT \t\t\t\n  AND \t\t\t\n  DUP2 \t\t\t\n  SSTORE \t\t\t\ntag 54\t\t\t\n  JUMPDEST \t\t\t\n  POP \t\t\t\n  POP \t\t\t\n  POP \t\t\t\n  POP \t\t\t\n  POP \t\t\t\n  PUSH 1\t\t\t\n  SWAP1 \t\t\t\n  DUP2 \t\t\t\n  SHL \t\t\t\n  ADD \t\t\t\n  SWAP1 \t\t\t\n  SSTORE \t\t\t\n  POP \t\t\t\n  JUMP \t\t\t\ntag 25\t\t\t\n  JUMPDEST \t\t\t\n  PUSH 80\t\t\tcontract Quest is ERC721, Owna...\n  MLOAD \t\t\tcontract Quest is ERC721, Owna...\n  PUSH #[$] 0000000000000000000000000000000000000000000000000000000000000000\t\t\tcontract Quest is ERC721, Owna...\n  PUSH [$] 0000000000000000000000000000000000000000000000000000000000000000\t\t\tcontract Quest is ERC721, Owna...\n  PUSH 0\t\t\tcontract Quest is ERC721, Owna...\n  CODECOPY \t\t\tcontract Quest is ERC721, Owna...\n  PUSH 0\t\t\tcontract Quest is ERC721, Owna...\n  ASSIGNIMMUTABLE 2948\t\t\tcontract Quest is ERC721, Owna...\n  PUSH #[$] 0000000000000000000000000000000000000000000000000000000000000000\t\t\tcontract Quest is ERC721, Owna...\n  PUSH 0\t\t\tcontract Quest is ERC721, Owna...\n  RETURN \t\t\tcontract Quest is ERC721, Owna...\n.data\n  0:\n    .code\n      PUSH 80\t\t\tcontract Quest is ERC721, Owna...\n      PUSH 40\t\t\tcontract Quest is ERC721, Owna...\n      MSTORE \t\t\tcontract Quest is ERC721, Owna...\n      CALLVALUE \t\t\tcontract Quest is ERC721, Owna...\n      DUP1 \t\t\tcontract Quest is ERC721, Owna...\n      ISZERO \t\t\tcontract Quest is ERC721, Owna...\n      PUSH [tag] 1\t\t\tcontract Quest is ERC721, Owna...\n      JUMPI \t\t\tcontract Quest is ERC721, Owna...\n      PUSH 0\t\t\tcontract Quest is ERC721, Owna...\n      DUP1 \t\t\tcontract Quest is ERC721, Owna...\n      REVERT \t\t\tcontract Quest is ERC721, Owna...\n    tag 1\t\t\tcontract Quest is ERC721, Owna...\n      JUMPDEST \t\t\tcontract Quest is ERC721, Owna...\n      POP \t\t\tcontract Quest is ERC721, Owna...\n      PUSH 4\t\t\tcontract Quest is ERC721, Owna...\n      CALLDATASIZE \t\t\tcontract Quest is ERC721, Owna...\n      LT \t\t\tcontract Quest is ERC721, Owna...\n      PUSH [tag] 2\t\t\tcontract Quest is ERC721, Owna...\n      JUMPI \t\t\tcontract Quest is ERC721, Owna...\n      PUSH 0\t\t\tcontract Quest is ERC721, Owna...\n      CALLDATALOAD \t\t\tcontract Quest is ERC721, Owna...\n      PUSH E0\t\t\tcontract Quest is ERC721, Owna...\n      SHR \t\t\tcontract Quest is ERC721, Owna...\n      DUP1 \t\t\tcontract Quest is ERC721, Owna...\n      PUSH 715018A6\t\t\tcontract Quest is ERC721, Owna...\n      GT \t\t\tcontract Quest is ERC721, Owna...\n      PUSH [tag] 23\t\t\tcontract Quest is ERC721, Owna...\n      JUMPI \t\t\tcontract Quest is ERC721, Owna...\n      DUP1 \t\t\tcontract Quest is ERC721, Owna...\n      PUSH B88D4FDE\t\t\tcontract Quest is ERC721, Owna...\n      GT \t\t\tcontract Quest is ERC721, Owna...\n      PUSH [tag] 24\t\t\tcontract Quest is ERC721, Owna...\n      JUMPI \t\t\tcontract Quest is ERC721, Owna...\n      DUP1 \t\t\tcontract Quest is ERC721, Owna...\n      PUSH B88D4FDE\t\t\tcontract Quest is ERC721, Owna...\n      EQ \t\t\tcontract Quest is ERC721, Owna...\n      PUSH [tag] 18\t\t\tcontract Quest is ERC721, Owna...\n      JUMPI \t\t\tcontract Quest is ERC721, Owna...\n      DUP1 \t\t\tcontract Quest is ERC721, Owna...\n      PUSH C87B56DD\t\t\tcontract Quest is ERC721, Owna...\n      EQ \t\t\tcontract Quest is ERC721, Owna...\n      PUSH [tag] 19\t\t\tcontract Quest is ERC721, Owna...\n      JUMPI \t\t\tcontract Quest is ERC721, Owna...\n      DUP1 \t\t\tcontract Quest is ERC721, Owna...\n      PUSH E985E9C5\t\t\tcontract Quest is ERC721, Owna...\n      EQ \t\t\tcontract Quest is ERC721, Owna...\n      PUSH [tag] 20\t\t\tcontract Quest is ERC721, Owna...\n      JUMPI \t\t\tcontract Quest is ERC721, Owna...\n      DUP1 \t\t\tcontract Quest is ERC721, Owna...\n      PUSH F2FDE38B\t\t\tcontract Quest is ERC721, Owna...\n      EQ \t\t\tcontract Quest is ERC721, Owna...\n      PUSH [tag] 21\t\t\tcontract Quest is ERC721, Owna...\n      JUMPI \t\t\tcontract Quest is ERC721, Owna...\n      DUP1 \t\t\tcontract Quest is ERC721, Owna...\n      PUSH F9931855\t\t\tcontract Quest is ERC721, Owna...\n      EQ \t\t\tcontract Quest is ERC721, Owna...\n      PUSH [tag] 22\t\t\tcontract Quest is ERC721, Owna...\n      JUMPI \t\t\tcontract Quest is ERC721, Owna...\n      PUSH 0\t\t\tcontract Quest is ERC721, Owna...\n      DUP1 \t\t\tcontract Quest is ERC721, Owna...\n      REVERT \t\t\tcontract Quest is ERC721, Owna...\n    tag 24\t\t\tcontract Quest is ERC721, Owna...\n      JUMPDEST \t\t\tcontract Quest is ERC721, Owna...\n      DUP1 \t\t\tcontract Quest is ERC721, Owna...\n      PUSH 715018A6\t\t\tcontract Quest is ERC721, Owna...\n      EQ \t\t\tcontract Quest is ERC721, Owna...\n      PUSH [tag] 13\t\t\tcontract Quest is ERC721, Owna...\n      JUMPI \t\t\tcontract Quest is ERC721, Owna...\n      DUP1 \t\t\tcontract Quest is ERC721, Owna...\n      PUSH 8DA5CB5B\t\t\tcontract Quest is ERC721, Owna...\n      EQ \t\t\tcontract Quest is ERC721, Owna...\n      PUSH [tag] 14\t\t\tcontract Quest is ERC721, Owna...\n      JUMPI \t\t\tcontract Quest is ERC721, Owna...\n      DUP1 \t\t\tcontract Quest is ERC721, Owna...\n      PUSH 95D89B41\t\t\tcontract Quest is ERC721, Owna...\n      EQ \t\t\tcontract Quest is ERC721, Owna...\n      PUSH [tag] 15\t\t\tcontract Quest is ERC721, Owna...\n      JUMPI \t\t\tcontract Quest is ERC721, Owna...\n      DUP1 \t\t\tcontract Quest is ERC721, Owna...\n      PUSH A22CB465\t\t\tcontract Quest is ERC721, Owna...\n      EQ \t\t\tcontract Quest is ERC721, Owna...\n      PUSH [tag] 16\t\t\tcontract Quest is ERC721, Owna...\n      JUMPI \t\t\tcontract Quest is ERC721, Owna...\n      DUP1 \t\t\tcontract Quest is ERC721, Owna...\n      PUSH A693B19F\t\t\tcontract Quest is ERC721, Owna...\n      EQ \t\t\tcontract Quest is ERC721, Owna...\n      PUSH [tag] 17\t\t\tcontract Quest is ERC721, Owna...\n      JUMPI \t\t\tcontract Quest is ERC721, Owna...\n      PUSH 0\t\t\tcontract Quest is ERC721, Owna...\n      DUP1 \t\t\tcontract Quest is ERC721, Owna...\n      REVERT \t\t\tcontract Quest is ERC721, Owna...\n    tag 23\t\t\tcontract Quest is ERC721, Owna...\n      JUMPDEST \t\t\tcontract Quest is ERC721, Owna...\n      DUP1 \t\t\tcontract Quest is ERC721, Owna...\n      PUSH 23B872DD\t\t\tcontract Quest is ERC721, Owna...\n      GT \t\t\tcontract Quest is ERC721, Owna...\n      PUSH [tag] 25\t\t\tcontract Quest is ERC721, Owna...\n      JUMPI \t\t\tcontract Quest is ERC721, Owna...\n      DUP1 \t\t\tcontract Quest is ERC721, Owna...\n      PUSH 23B872DD\t\t\tcontract Quest is ERC721, Owna...\n      EQ \t\t\tcontract Quest is ERC721, Owna...\n      PUSH [tag] 8\t\t\tcontract Quest is ERC721, Owna...\n      JUMPI \t\t\tcontract Quest is ERC721, Owna...\n      DUP1 \t\t\tcontract Quest is ERC721, Owna...\n      PUSH 42842E0E\t\t\tcontract Quest is ERC721, Owna...\n      EQ \t\t\tcontract Quest is ERC721, Owna...\n      PUSH [tag] 9\t\t\tcontract Quest is ERC721, Owna...\n      JUMPI \t\t\tcontract Quest is ERC721, Owna...\n      DUP1 \t\t\tcontract Quest is ERC721, Owna...\n      PUSH 6352211E\t\t\tcontract Quest is ERC721, Owna...\n      EQ \t\t\tcontract Quest is ERC721, Owna...\n      PUSH [tag] 10\t\t\tcontract Quest is ERC721, Owna...\n      JUMPI \t\t\tcontract Quest is ERC721, Owna...\n      DUP1 \t\t\tcontract Quest is ERC721, Owna...\n      PUSH 676DD563\t\t\tcontract Quest is ERC721, Owna...\n      EQ \t\t\tcontract Quest is ERC721, Owna...\n      PUSH [tag] 11\t\t\tcontract Quest is ERC721, Owna...\n      JUMPI \t\t\tcontract Quest is ERC721, Owna...\n      DUP1 \t\t\tcontract Quest is ERC721, Owna...\n      PUSH 70A08231\t\t\tcontract Quest is ERC721, Owna...\n      EQ \t\t\tcontract Quest is ERC721, Owna...\n      PUSH [tag] 12\t\t\tcontract Quest is ERC721, Owna...\n      JUMPI \t\t\tcontract Quest is ERC721, Owna...\n      PUSH 0\t\t\tcontract Quest is ERC721, Owna...\n      DUP1 \t\t\tcontract Quest is ERC721, Owna...\n      REVERT \t\t\tcontract Quest is ERC721, Owna...\n    tag 25\t\t\tcontract Quest is ERC721, Owna...\n      JUMPDEST \t\t\tcontract Quest is ERC721, Owna...\n      DUP1 \t\t\tcontract Quest is ERC721, Owna...\n      PUSH 1FFC9A7\t\t\tcontract Quest is ERC721, Owna...\n      EQ \t\t\tcontract Quest is ERC721, Owna...\n      PUSH [tag] 3\t\t\tcontract Quest is ERC721, Owna...\n      JUMPI \t\t\tcontract Quest is ERC721, Owna...\n      DUP1 \t\t\tcontract Quest is ERC721, Owna...\n      PUSH 6FDDE03\t\t\tcontract Quest is ERC721, Owna...\n      EQ \t\t\tcontract Quest is ERC721, Owna...\n      PUSH [tag] 4\t\t\tcontract Quest is ERC721, Owna...\n      JUMPI \t\t\tcontract Quest is ERC721, Owna...\n      DUP1 \t\t\tcontract Quest is ERC721, Owna...\n      PUSH 81812FC\t\t\tcontract Quest is ERC721, Owna...\n      EQ \t\t\tcontract Quest is ERC721, Owna...\n      PUSH [tag] 5\t\t\tcontract Quest is ERC721, Owna...\n      JUMPI \t\t\tcontract Quest is ERC721, Owna...\n      DUP1 \t\t\tcontract Quest is ERC721, Owna...\n      PUSH 95EA7B3\t\t\tcontract Quest is ERC721, Owna...\n      EQ \t\t\tcontract Quest is ERC721, Owna...\n      PUSH [tag] 6\t\t\tcontract Quest is ERC721, Owna...\n      JUMPI \t\t\tcontract Quest is ERC721, Owna...\n      DUP1 \t\t\tcontract Quest is ERC721, Owna...\n      PUSH 1249C58B\t\t\tcontract Quest is ERC721, Owna...\n      EQ \t\t\tcontract Quest is ERC721, Owna...\n      PUSH [tag] 7\t\t\tcontract Quest is ERC721, Owna...\n      JUMPI \t\t\tcontract Quest is ERC721, Owna...\n    tag 2\t\t\tcontract Quest is ERC721, Owna...\n      JUMPDEST \t\t\tcontract Quest is ERC721, Owna...\n      PUSH 0\t\t\tcontract Quest is ERC721, Owna...\n      DUP1 \t\t\tcontract Quest is ERC721, Owna...\n      REVERT \t\t\tcontract Quest is ERC721, Owna...\n    tag 3\t\t\t\n      JUMPDEST \t\t\t\n      PUSH [tag] 26\t\t\t\n      PUSH [tag] 27\t\t\t\n      CALLDATASIZE \t\t\t\n      PUSH 4\t\t\t\n      PUSH [tag] 28\t\t\t\n      JUMP \t\t\t\n    tag 27\t\t\t\n      JUMPDEST \t\t\t\n      PUSH [tag] 29\t\t\t\n      JUMP \t\t\t\n    tag 26\t\t\t\n      JUMPDEST \t\t\t\n      PUSH 40\t\t\t\n      MLOAD \t\t\t\n      SWAP1 \t\t\td, bool isFree\n      ISZERO \t\t\td, bool isFree\n      ISZERO \t\t\t tokenId, bool isFree)\n      DUP2 \t\t\texed user, uint256 tokenId, bo...\n      MSTORE \t\t\texed user, uint256 tokenId, bo...\n      PUSH 20\t\t\t(a\n      ADD \t\t\tevent NFTMinted(ad\n    tag 30\t\t\t\n      JUMPDEST \t\t\t\n      PUSH 40\t\t\t\n      MLOAD \t\t\t\n      DUP1 \t\t\t\n      SWAP2 \t\t\t\n      SUB \t\t\t\n      SWAP1 \t\t\t\n      RETURN \t\t\t\n    tag 4\t\t\t\n      JUMPDEST \t\t\t\n      PUSH [tag] 32\t\t\t\n      PUSH [tag] 33\t\t\t\n      JUMP \t\t\t\n    tag 32\t\t\t\n      JUMPDEST \t\t\t\n      PUSH 40\t\t\t\n      MLOAD \t\t\t\n      PUSH [tag] 30\t\t\t\n      SWAP2 \t\t\t\n      SWAP1 \t\t\t\n      PUSH [tag] 35\t\t\t\n      JUMP \t\t\t\n    tag 5\t\t\t\n      JUMPDEST \t\t\t\n      PUSH [tag] 36\t\t\t\n      PUSH [tag] 37\t\t\t\n      CALLDATASIZE \t\t\t\n      PUSH 4\t\t\t\n      PUSH [tag] 38\t\t\t\n      JUMP \t\t\t\n    tag 37\t\t\t\n      JUMPDEST \t\t\t\n      PUSH [tag] 39\t\t\t\n      JUMP \t\t\t\n    tag 36\t\t\t\n      JUMPDEST \t\t\t\n      PUSH 40\t\t\t\n      MLOAD \t\t\t\n      PUSH 1\t\t\t\n      PUSH 1\t\t\t\n      PUSH A0\t\t\t\n      SHL \t\t\t\n      SUB \t\t\t\n      SWAP1 \t\t\t\n      SWAP2 \t\t\t\n      AND \t\t\t\n      DUP2 \t\t\t\n      MSTORE \t\t\t\n      PUSH 20\t\t\t\n      ADD \t\t\t\n      PUSH [tag] 30\t\t\t\n      JUMP \t\t\t\n    tag 6\t\t\t\n      JUMPDEST \t\t\t\n      PUSH [tag] 42\t\t\t\n      PUSH [tag] 43\t\t\t\n      CALLDATASIZE \t\t\t\n      PUSH 4\t\t\t\n      PUSH [tag] 44\t\t\t\n      JUMP \t\t\t\n    tag 43\t\t\t\n      JUMPDEST \t\t\t\n      PUSH [tag] 45\t\t\t\n      JUMP \t\t\t\n    tag 42\t\t\t\n      JUMPDEST \t\t\t\n      STOP \t\t\t\n    tag 7\t\t\tfunction mint() external {\\n  ...\n      JUMPDEST \t\t\tfunction mint() external {\\n  ...\n      PUSH [tag] 42\t\t\tfunction mint() external {\\n  ...\n      PUSH [tag] 47\t\t\tfunction mint() external {\\n  ...\n      JUMP \t\t\tfunction mint() external {\\n  ...\n    tag 8\t\t\t\n      JUMPDEST \t\t\t\n      PUSH [tag] 42\t\t\t\n      PUSH [tag] 49\t\t\t\n      CALLDATASIZE \t\t\t\n      PUSH 4\t\t\t\n      PUSH [tag] 50\t\t\t\n      JUMP \t\t\t\n    tag 49\t\t\t\n      JUMPDEST \t\t\t\n      PUSH [tag] 51\t\t\t\n      JUMP \t\t\t\n    tag 9\t\t\t\n      JUMPDEST \t\t\t\n      PUSH [tag] 42\t\t\t\n      PUSH [tag] 53\t\t\t\n      CALLDATASIZE \t\t\t\n      PUSH 4\t\t\t\n      PUSH [tag] 50\t\t\t\n      JUMP \t\t\t\n    tag 53\t\t\t\n      JUMPDEST \t\t\t\n      PUSH [tag] 54\t\t\t\n      JUMP \t\t\t\n    tag 10\t\t\t\n      JUMPDEST \t\t\t\n      PUSH [tag] 36\t\t\t\n      PUSH [tag] 56\t\t\t\n      CALLDATASIZE \t\t\t\n      PUSH 4\t\t\t\n      PUSH [tag] 38\t\t\t\n      JUMP \t\t\t\n    tag 56\t\t\t\n      JUMPDEST \t\t\t\n      PUSH [tag] 57\t\t\t\n      JUMP \t\t\t\n    tag 11\t\t\tuint256 public immutable NFT_P...\n      JUMPDEST \t\t\tuint256 public immutable NFT_P...\n      PUSH [tag] 59\t\t\tuint256 public immutable NFT_P...\n      PUSHIMMUTABLE 2948\t\t\tuint256 public immutable NFT_P...\n      DUP2 \t\t\tuint256 public immutable NFT_P...\n      JUMP \t\t\tuint256 public immutable NFT_P...\n    tag 59\t\t\tuint256 public immutable NFT_P...\n      JUMPDEST \t\t\tuint256 public immutable NFT_P...\n      PUSH 40\t\t\tuint256 public immutable NFT_P...\n      MLOAD \t\t\tuint256 public immutable NFT_P...\n      SWAP1 \t\t\t\n      DUP2 \t\t\t\n      MSTORE \t\t\t\n      PUSH 20\t\t\t\n      ADD \t\t\t\n      PUSH [tag] 30\t\t\tuint256 public immutable NFT_P...\n      JUMP \t\t\t\n    tag 12\t\t\t\n      JUMPDEST \t\t\t\n      PUSH [tag] 59\t\t\t\n      PUSH [tag] 64\t\t\t\n      CALLDATASIZE \t\t\t\n      PUSH 4\t\t\t\n      PUSH [tag] 65\t\t\t\n      JUMP \t\t\t\n    tag 64\t\t\t\n      JUMPDEST \t\t\t\n      PUSH [tag] 66\t\t\t\n      JUMP \t\t\t\n    tag 13\t\t\t\n      JUMPDEST \t\t\t\n      PUSH [tag] 42\t\t\t\n      PUSH [tag] 69\t\t\t\n      JUMP \t\t\t\n    tag 14\t\t\t\n      JUMPDEST \t\t\t\n      PUSH 6\t\t\t\n      SLOAD \t\t\t\n      PUSH 1\t\t\t\n      PUSH 1\t\t\t\n      PUSH A0\t\t\t\n      SHL \t\t\t\n      SUB \t\t\t\n      AND \t\t\t\n      PUSH [tag] 36\t\t\t\n      JUMP \t\t\t\n    tag 15\t\t\t\n      JUMPDEST \t\t\t\n      PUSH [tag] 32\t\t\t\n      PUSH [tag] 74\t\t\t\n      JUMP \t\t\t\n    tag 16\t\t\t\n      JUMPDEST \t\t\t\n      PUSH [tag] 42\t\t\t\n      PUSH [tag] 77\t\t\t\n      CALLDATASIZE \t\t\t\n      PUSH 4\t\t\t\n      PUSH [tag] 78\t\t\t\n      JUMP \t\t\t\n    tag 77\t\t\t\n      JUMPDEST \t\t\t\n      PUSH [tag] 79\t\t\t\n      JUMP \t\t\t\n    tag 17\t\t\tmapping(address => uint256) pu...\n      JUMPDEST \t\t\tmapping(address => uint256) pu...\n      PUSH [tag] 59\t\t\tmapping(address => uint256) pu...\n      PUSH [tag] 81\t\t\tmapping(address => uint256) pu...\n      CALLDATASIZE \t\t\tmapping(address => uint256) pu...\n      PUSH 4\t\t\tmapping(address => uint256) pu...\n      PUSH [tag] 65\t\t\tmapping(address => uint256) pu...\n      JUMP \t\t\tmapping(address => uint256) pu...\n    tag 81\t\t\tmapping(address => uint256) pu...\n      JUMPDEST \t\t\tmapping(address => uint256) pu...\n      PUSH 9\t\t\tmapping(address => uint256) pu...\n      PUSH 20\t\t\tmapping(address => uint256) pu...\n      MSTORE \t\t\tmapping(address => uint256) pu...\n      PUSH 0\t\t\tmapping(address => uint256) pu...\n      SWAP1 \t\t\tmapping(address => uint256) pu...\n      DUP2 \t\t\tmapping(address => uint256) pu...\n      MSTORE \t\t\tmapping(address => uint256) pu...\n      PUSH 40\t\t\tmapping(address => uint256) pu...\n      SWAP1 \t\t\tmapping(address => uint256) pu...\n      KECCAK256 \t\t\tmapping(address => uint256) pu...\n      SLOAD \t\t\tmapping(address => uint256) pu...\n      DUP2 \t\t\tmapping(address => uint256) pu...\n      JUMP \t\t\tmapping(address => uint256) pu...\n    tag 18\t\t\t\n      JUMPDEST \t\t\t\n      PUSH [tag] 42\t\t\t\n      PUSH [tag] 85\t\t\t\n      CALLDATASIZE \t\t\t\n      PUSH 4\t\t\t\n      PUSH [tag] 86\t\t\t\n      JUMP \t\t\t\n    tag 85\t\t\t\n      JUMPDEST \t\t\t\n      PUSH [tag] 87\t\t\t\n      JUMP \t\t\t\n    tag 19\t\t\t\n      JUMPDEST \t\t\t\n      PUSH [tag] 32\t\t\t\n      PUSH [tag] 89\t\t\t\n      CALLDATASIZE \t\t\t\n      PUSH 4\t\t\t\n      PUSH [tag] 38\t\t\t\n      JUMP \t\t\t\n    tag 89\t\t\t\n      JUMPDEST \t\t\t\n      PUSH [tag] 90\t\t\t\n      JUMP \t\t\t\n    tag 20\t\t\t\n      JUMPDEST \t\t\t\n      PUSH [tag] 26\t\t\t\n      PUSH [tag] 93\t\t\t\n      CALLDATASIZE \t\t\t\n      PUSH 4\t\t\t\n      PUSH [tag] 94\t\t\t\n      JUMP \t\t\t\n    tag 93\t\t\t\n      JUMPDEST \t\t\t\n      PUSH [tag] 95\t\t\t\n      JUMP \t\t\t\n    tag 21\t\t\t\n      JUMPDEST \t\t\t\n      PUSH [tag] 42\t\t\t\n      PUSH [tag] 98\t\t\t\n      CALLDATASIZE \t\t\t\n      PUSH 4\t\t\t\n      PUSH [tag] 65\t\t\t\n      JUMP \t\t\t\n    tag 98\t\t\t\n      JUMPDEST \t\t\t\n      PUSH [tag] 99\t\t\t\n      JUMP \t\t\t\n    tag 22\t\t\tmapping(address => uint256) pu...\n      JUMPDEST \t\t\tmapping(address => uint256) pu...\n      PUSH [tag] 59\t\t\tmapping(address => uint256) pu...\n      PUSH [tag] 101\t\t\tmapping(address => uint256) pu...\n      CALLDATASIZE \t\t\tmapping(address => uint256) pu...\n      PUSH 4\t\t\tmapping(address => uint256) pu...\n      PUSH [tag] 65\t\t\tmapping(address => uint256) pu...\n      JUMP \t\t\tmapping(address => uint256) pu...\n    tag 101\t\t\tmapping(address => uint256) pu...\n      JUMPDEST \t\t\tmapping(address => uint256) pu...\n      PUSH 8\t\t\tmapping(address => uint256) pu...\n      PUSH 20\t\t\tmapping(address => uint256) pu...\n      MSTORE \t\t\tmapping(address => uint256) pu...\n      PUSH 0\t\t\tmapping(address => uint256) pu...\n      SWAP1 \t\t\tmapping(address => uint256) pu...\n      DUP2 \t\t\tmapping(address => uint256) pu...\n      MSTORE \t\t\tmapping(address => uint256) pu...\n      PUSH 40\t\t\tmapping(address => uint256) pu...\n      SWAP1 \t\t\tmapping(address => uint256) pu...\n      KECCAK256 \t\t\tmapping(address => uint256) pu...\n      SLOAD \t\t\tmapping(address => uint256) pu...\n      DUP2 \t\t\tmapping(address => uint256) pu...\n      JUMP \t\t\tmapping(address => uint256) pu...\n    tag 29\t\t\t\n      JUMPDEST \t\t\t\n      PUSH 0\t\t\t\n      PUSH 1\t\t\t\n      PUSH 1\t\t\t\n      PUSH E0\t\t\t\n      SHL \t\t\t\n      SUB \t\t\t\n      NOT \t\t\t\n      DUP3 \t\t\t\n      AND \t\t\t\n      PUSH 80AC58CD\t\t\t\n      PUSH E0\t\t\t\n      SHL \t\t\t\n      EQ \t\t\t\n      DUP1 \t\t\t\n      PUSH [tag] 105\t\t\t\n      JUMPI \t\t\t\n      POP \t\t\t\n      PUSH 1\t\t\t\n      PUSH 1\t\t\t\n      PUSH E0\t\t\t\n      SHL \t\t\t\n      SUB \t\t\t\n      NOT \t\t\t\n      DUP3 \t\t\t\n      AND \t\t\t\n      PUSH 5B5E139F\t\t\t\n      PUSH E0\t\t\t\n      SHL \t\t\t\n      EQ \t\t\t\n    tag 105\t\t\t\n      JUMPDEST \t\t\t\n      DUP1 \t\t\t\n      PUSH [tag] 107\t\t\t\n      JUMPI \t\t\t\n      POP \t\t\t\n      PUSH 1FFC9A7\t\t\t\n      PUSH E0\t\t\t\n      SHL \t\t\t\n      PUSH 1\t\t\t\n      PUSH 1\t\t\t\n      PUSH E0\t\t\t\n      SHL \t\t\t\n      SUB \t\t\t\n      NOT \t\t\t\n      DUP4 \t\t\ter, newTokenId);\\n\\n        la...\n      AND \t\t\ter, newTokenId);\\n\\n        la...\n      EQ \t\t\ter, newTokenId);\\n\\n        la...\n    tag 107\t\t\t\n      JUMPDEST \t\t\t\n      SWAP3 \t\t\t\n      SWAP2 \t\t\t\n      POP \t\t\t\n      POP \t\t\t\n      JUMP \t\t\t\n    tag 33\t\t\t\n      JUMPDEST \t\t\t\n      PUSH 60\t\t\t\n      PUSH 0\t\t\t\n      DUP1 \t\t\t\n      SLOAD \t\t\t\n      PUSH [tag] 110\t\t\t\n      SWAP1 \t\t\t\n      PUSH [tag] 111\t\t\t\n      JUMP \t\t\t\n    tag 110\t\t\t\n      JUMPDEST \t\t\t\n      DUP1 \t\t\t\n      PUSH 1F\t\t\t\n      ADD \t\t\t\n      PUSH 20\t\t\t\n      DUP1 \t\t\t\n      SWAP2 \t\t\t\n      DIV \t\t\t\n      MUL \t\t\t\n      PUSH 20\t\t\t\n      ADD \t\t\t\n      PUSH 40\t\t\t\n      MLOAD \t\t\t\n      SWAP1 \t\t\t\n      DUP2 \t\t\t\n      ADD \t\t\t\n      PUSH 40\t\t\t\n      MSTORE \t\t\t\n      DUP1 \t\t\t\n      SWAP3 \t\t\t\n      SWAP2 \t\t\t\n      SWAP1 \t\t\t\n      DUP2 \t\t\t\n      DUP2 \t\t\t\n      MSTORE \t\t\t\n      PUSH 20\t\t\t\n      ADD \t\t\t\n      DUP3 \t\t\t\n      DUP1 \t\t\t\n      SLOAD \t\t\t\n      PUSH [tag] 112\t\t\t\n      SWAP1 \t\t\t\n      PUSH [tag] 111\t\t\t\n      JUMP \t\t\t\n    tag 112\t\t\t\n      JUMPDEST \t\t\t\n      DUP1 \t\t\t\n      ISZERO \t\t\t\n      PUSH [tag] 113\t\t\t\n      JUMPI \t\t\t\n      DUP1 \t\t\t\n      PUSH 1F\t\t\t\n      LT \t\t\t\n      PUSH [tag] 114\t\t\t\n      JUMPI \t\t\t\n      PUSH 100\t\t\t\n      DUP1 \t\t\t\n      DUP4 \t\t\t\n      SLOAD \t\t\t\n      DIV \t\t\t\n      MUL \t\t\t\n      DUP4 \t\t\t\n      MSTORE \t\t\t\n      SWAP2 \t\t\t\n      PUSH 20\t\t\t\n      ADD \t\t\t\n      SWAP2 \t\t\t\n      PUSH [tag] 113\t\t\t\n      JUMP \t\t\t\n    tag 114\t\t\t\n      JUMPDEST \t\t\t\n      DUP3 \t\t\t\n      ADD \t\t\t\n      SWAP2 \t\t\t\n      SWAP1 \t\t\t\n      PUSH 0\t\t\t\n      MSTORE \t\t\t\n      PUSH 20\t\t\t\n      PUSH 0\t\t\t\n      KECCAK256 \t\t\t\n      SWAP1 \t\t\t\n    tag 115\t\t\t\n      JUMPDEST \t\t\t\n      DUP2 \t\t\t\n      SLOAD \t\t\t\n      DUP2 \t\t\t\n      MSTORE \t\t\t\n      SWAP1 \t\t\t\n      PUSH 1\t\t\t\n      ADD \t\t\t\n      SWAP1 \t\t\t\n      PUSH 20\t\t\t\n      ADD \t\t\t\n      DUP1 \t\t\t\n      DUP4 \t\t\t\n      GT \t\t\t\n      PUSH [tag] 115\t\t\t\n      JUMPI \t\t\t\n      DUP3 \t\t\t\n      SWAP1 \t\t\t\n      SUB \t\t\t\n      PUSH 1F\t\t\t\n      AND \t\t\t\n      DUP3 \t\t\t\n      ADD \t\t\t\n      SWAP2 \t\t\t\n    tag 113\t\t\t\n      JUMPDEST \t\t\t\n      POP \t\t\t\n      POP \t\t\t\n      POP \t\t\t\n      POP \t\t\t\n      POP \t\t\t\n      SWAP1 \t\t\t\n      POP \t\t\t\n      SWAP1 \t\t\t\n      JUMP \t\t\t\n    tag 39\t\t\t\n      JUMPDEST \t\t\t\n      PUSH 0\t\t\t\n      PUSH [tag] 117\t\t\t\n      DUP3 \t\t\t\n      PUSH [tag] 118\t\t\t\n      JUMP \t\t\t\n    tag 117\t\t\t\n      JUMPDEST \t\t\t\n      POP \t\t\t\n      PUSH 0\t\t\t\n      DUP3 \t\t\t\n      DUP2 \t\t\t\n      MSTORE \t\t\t\n      PUSH 4\t\t\t\n      PUSH 20\t\t\t\n      MSTORE \t\t\t\n      PUSH 40\t\t\t\n      SWAP1 \t\t\t\n      KECCAK256 \t\t\t\n      SLOAD \t\t\t\n      PUSH 1\t\t\t\n      PUSH 1\t\t\t\n      PUSH A0\t\t\t\n      SHL \t\t\t\n      SUB \t\t\t\n      AND \t\t\t\n      PUSH [tag] 107\t\t\t\n      JUMP \t\t\t\n    tag 45\t\t\t\n      JUMPDEST \t\t\t\n      PUSH [tag] 122\t\t\t\n      DUP3 \t\t\t\n      DUP3 \t\t\t\n      CALLER \t\t\t\\n    }\\n\\n  \n      PUSH [tag] 125\t\t\t\n      JUMP \t\t\t\n    tag 122\t\t\t\n      JUMPDEST \t\t\t\n      POP \t\t\t\n      POP \t\t\t\n      JUMP \t\t\t\n    tag 47\t\t\tfunction mint() external {\\n  ...\n      JUMPDEST \t\t\tfunction mint() external {\\n  ...\n      PUSH 7\t\t\t_tokenIds\n      DUP1 \t\t\t_tokenIds++\n      SLOAD \t\t\t_tokenIds++\n      SWAP1 \t\t\t_tokenIds++\n      PUSH 0\t\t\t_tokenIds\n      PUSH [tag] 127\t\t\t_tokenIds++\n      DUP4 \t\t\t_tokenIds++\n      PUSH [tag] 128\t\t\t_tokenIds++\n      JUMP \t\t\t_tokenIds++\n    tag 127\t\t\t_tokenIds++\n      JUMPDEST \t\t\t_tokenIds++\n      SWAP1 \t\t\t_tokenIds++\n      SWAP2 \t\t\t_tokenIds++\n      SSTORE \t\t\t_tokenIds++\n      POP \t\t\t\n      POP \t\t\t\n      PUSH 7\t\t\t_tokenIds\n      SLOAD \t\t\t_tokenIds\n      PUSH [tag] 129\t\t\t_safeMint(msg.sender, newToken...\n      CALLER \t\t\tmsg.sender\n      DUP3 \t\t\t_tokenIds\n      PUSH [tag] 130\t\t\t_safeMint\n      JUMP \t\t\t_safeMint(msg.sender, newToken...\n    tag 129\t\t\t_safeMint(msg.sender, newToken...\n      JUMPDEST \t\t\t_safeMint(msg.sender, newToken...\n      CALLER \t\t\tmsg.sender\n      PUSH 0\t\t\tlastFreeMint[msg.sender]\n      DUP2 \t\t\tlastFreeMint[msg.sender]\n      DUP2 \t\t\tlastFreeMint[msg.sender]\n      MSTORE \t\t\tlastFreeMint[msg.sender]\n      PUSH 9\t\t\tlastFreeMint\n      PUSH 20\t\t\tlastFreeMint[msg.sender]\n      SWAP1 \t\t\tlastFreeMint[msg.sender]\n      DUP2 \t\t\tlastFreeMint[msg.sender]\n      MSTORE \t\t\tlastFreeMint[msg.sender]\n      PUSH 40\t\t\tlastFreeMint[msg.sender]\n      SWAP2 \t\t\tlastFreeMint[msg.sender]\n      DUP3 \t\t\tlastFreeMint[msg.sender]\n      SWAP1 \t\t\tlastFreeMint[msg.sender]\n      KECCAK256 \t\t\tlastFreeMint[msg.sender]\n      TIMESTAMP \t\t\tblock.timestamp\n      SWAP1 \t\t\tlastFreeMint[msg.sender] = blo...\n      SSTORE \t\t\tlastFreeMint[msg.sender] = blo...\n      DUP2 \t\t\tNFTMinted(msg.sender, newToken...\n      MLOAD \t\t\tNFTMinted(msg.sender, newToken...\n      DUP5 \t\t\t\n      DUP2 \t\t\t\n      MSTORE \t\t\t\n      PUSH 1\t\t\ttrue\n      SWAP2 \t\t\t\n      DUP2 \t\t\t\n      ADD \t\t\t\n      SWAP2 \t\t\t\n      SWAP1 \t\t\t\n      SWAP2 \t\t\t\n      MSTORE \t\t\t\n      PUSH 8FA3FF725D2F7190C5E5DD9BC88F241A72B239E127E347DCCDFC28E44E5E0963\t\t\tNFTMinted(msg.sender, newToken...\n      SWAP2 \t\t\tNFTMinted(msg.sender, newToken...\n      ADD \t\t\t\n      PUSH 40\t\t\tNFTMinted(msg.sender, newToken...\n      MLOAD \t\t\tNFTMinted(msg.sender, newToken...\n      DUP1 \t\t\tNFTMinted(msg.sender, newToken...\n      SWAP2 \t\t\tNFTMinted(msg.sender, newToken...\n      SUB \t\t\tNFTMinted(msg.sender, newToken...\n      SWAP1 \t\t\tNFTMinted(msg.sender, newToken...\n      LOG2 \t\t\tNFTMinted(msg.sender, newToken...\n      POP \t\t\t{\\n        _tokenIds++;\\n     ...\n      JUMP \t\t\tfunction mint() external {\\n  ...\n    tag 51\t\t\t\n      JUMPDEST \t\t\t\n      PUSH 1\t\t\t\n      PUSH 1\t\t\t\n      PUSH A0\t\t\t\n      SHL \t\t\t\n      SUB \t\t\t\n      DUP3 \t\t\t\n      AND \t\t\t\n      PUSH [tag] 134\t\t\t\n      JUMPI \t\t\t\n      PUSH 40\t\t\t\n      MLOAD \t\t\t\n      PUSH 32505749\t\t\t\n      PUSH E1\t\t\t\n      SHL \t\t\t\n      DUP2 \t\t\t\n      MSTORE \t\t\t\n      PUSH 0\t\t\t\n      PUSH 4\t\t\t\n      DUP3 \t\t\t\n      ADD \t\t\t\n      MSTORE \t\t\t\n      PUSH 24\t\t\t\n      ADD \t\t\t\n    tag 135\t\t\t\n      JUMPDEST \t\t\t\n      PUSH 40\t\t\t\n      MLOAD \t\t\t\n      DUP1 \t\t\t\n      SWAP2 \t\t\t\n      SUB \t\t\t\n      SWAP1 \t\t\t\n      REVERT \t\t\t\n    tag 134\t\t\t\n      JUMPDEST \t\t\t\n      PUSH 0\t\t\t\n      PUSH [tag] 136\t\t\t\n      DUP4 \t\t\t\n      DUP4 \t\t\t\n      CALLER \t\t\t\\n    }\\n\\n  \n      PUSH [tag] 138\t\t\t\n      JUMP \t\t\t\n    tag 136\t\t\t\n      JUMPDEST \t\t\t\n      SWAP1 \t\t\t\n      POP \t\t\t\n      DUP4 \t\t\t\n      PUSH 1\t\t\t\n      PUSH 1\t\t\t\n      PUSH A0\t\t\t\n      SHL \t\t\t\n      SUB \t\t\t\n      AND \t\t\t\n      DUP2 \t\t\t\n      PUSH 1\t\t\t\n      PUSH 1\t\t\t\n      PUSH A0\t\t\t\n      SHL \t\t\t\n      SUB \t\t\t\n      AND \t\t\t\n      EQ \t\t\t\n      PUSH [tag] 139\t\t\t\n      JUMPI \t\t\t\n      PUSH 40\t\t\t\n      MLOAD \t\t\t\n      PUSH 64283D7B\t\t\t\n      PUSH E0\t\t\t\n      SHL \t\t\t\n      DUP2 \t\t\t\n      MSTORE \t\t\t\n      PUSH 1\t\t\t\n      PUSH 1\t\t\t\n      PUSH A0\t\t\t\n      SHL \t\t\t\n      SUB \t\t\t\n      DUP1 \t\t\t\n      DUP7 \t\t\t\n      AND \t\t\t\n      PUSH 4\t\t\t\n      DUP4 \t\t\t\n      ADD \t\t\t\n      MSTORE \t\t\t\n      PUSH 24\t\t\t\n      DUP3 \t\t\t\n      ADD \t\t\t\n      DUP5 \t\t\t\n      SWAP1 \t\t\t\n      MSTORE \t\t\t\n      DUP3 \t\t\t\n      AND \t\t\t\n      PUSH 44\t\t\t\n      DUP3 \t\t\t\n      ADD \t\t\t\n      MSTORE \t\t\t\n      PUSH 64\t\t\t\n      ADD \t\t\t\n      PUSH [tag] 135\t\t\t\n      JUMP \t\t\t\n    tag 139\t\t\t\n      JUMPDEST \t\t\t\n      POP \t\t\t\n      POP \t\t\t\n      POP \t\t\t\n      POP \t\t\t\n      JUMP \t\t\t\n    tag 54\t\t\t\n      JUMPDEST \t\t\t\n      PUSH [tag] 143\t\t\t\n      DUP4 \t\t\t\n      DUP4 \t\t\t\n      DUP4 \t\t\t\n      PUSH 40\t\t\t\n      MLOAD \t\t\t\n      DUP1 \t\t\t\n      PUSH 20\t\t\t\n      ADD \t\t\t\n      PUSH 40\t\t\t\n      MSTORE \t\t\t\n      DUP1 \t\t\t\n      PUSH 0\t\t\t\n      DUP2 \t\t\t\n      MSTORE \t\t\t\n      POP \t\t\t\n      PUSH [tag] 87\t\t\t\n      JUMP \t\t\t\n    tag 143\t\t\t\n      JUMPDEST \t\t\t\n      POP \t\t\t\n      POP \t\t\t\n      POP \t\t\t\n      JUMP \t\t\t\n    tag 57\t\t\t\n      JUMPDEST \t\t\t\n      PUSH 0\t\t\t\n      PUSH [tag] 107\t\t\t\n      DUP3 \t\t\t\n      PUSH [tag] 118\t\t\t\n      JUMP \t\t\t\n    tag 66\t\t\t\n      JUMPDEST \t\t\t\n      PUSH 0\t\t\t\n      PUSH 1\t\t\t\n      PUSH 1\t\t\t\n      PUSH A0\t\t\t\n      SHL \t\t\t\n      SUB \t\t\t\n      DUP3 \t\t\t\n      AND \t\t\t\n      PUSH [tag] 147\t\t\t\n      JUMPI \t\t\t\n      PUSH 40\t\t\t\n      MLOAD \t\t\t\n      PUSH 22718AD9\t\t\t\n      PUSH E2\t\t\t\n      SHL \t\t\t\n      DUP2 \t\t\t\n      MSTORE \t\t\t\n      PUSH 0\t\t\t\n      PUSH 4\t\t\t\n      DUP3 \t\t\t\n      ADD \t\t\t\n      MSTORE \t\t\t\n      PUSH 24\t\t\t\n      ADD \t\t\t\n      PUSH [tag] 135\t\t\t\n      JUMP \t\t\t\n    tag 147\t\t\t\n      JUMPDEST \t\t\t\n      POP \t\t\t\n      PUSH 1\t\t\t\n      PUSH 1\t\t\t\n      PUSH A0\t\t\t\n      SHL \t\t\t\n      SUB \t\t\t\n      AND \t\t\t\n      PUSH 0\t\t\t\n      SWAP1 \t\t\t\n      DUP2 \t\t\t\n      MSTORE \t\t\t\n      PUSH 3\t\t\t\n      PUSH 20\t\t\t\n      MSTORE \t\t\t\n      PUSH 40\t\t\t\n      SWAP1 \t\t\t\n      KECCAK256 \t\t\t\n      SLOAD \t\t\t\n      SWAP1 \t\t\t\n      JUMP \t\t\t\n    tag 69\t\t\t\n      JUMPDEST \t\t\t\n      PUSH [tag] 150\t\t\t\n      PUSH [tag] 151\t\t\t\n      JUMP \t\t\t\n    tag 150\t\t\t\n      JUMPDEST \t\t\t\n      PUSH [tag] 153\t\t\t\n      PUSH 0\t\t\t\n      PUSH [tag] 154\t\t\t\n      JUMP \t\t\t\n    tag 153\t\t\t\n      JUMPDEST \t\t\t\n      JUMP \t\t\t\n    tag 74\t\t\t\n      JUMPDEST \t\t\t\n      PUSH 60\t\t\t\n      PUSH 1\t\t\t\n      DUP1 \t\t\t\n      SLOAD \t\t\t\n      PUSH [tag] 110\t\t\t\n      SWAP1 \t\t\t\n      PUSH [tag] 111\t\t\t\n      JUMP \t\t\t\n    tag 79\t\t\t\n      JUMPDEST \t\t\t\n      PUSH [tag] 122\t\t\t\n      CALLER \t\t\t\\n    }\\n\\n  \n      DUP4 \t\t\t\n      DUP4 \t\t\t\n      PUSH [tag] 165\t\t\t\n      JUMP \t\t\t\n    tag 87\t\t\t\n      JUMPDEST \t\t\t\n      PUSH [tag] 167\t\t\t\n      DUP5 \t\t\t\n      DUP5 \t\t\t\n      DUP5 \t\t\t\n      PUSH [tag] 51\t\t\t\n      JUMP \t\t\t\n    tag 167\t\t\t\n      JUMPDEST \t\t\t\n      PUSH [tag] 139\t\t\t\n      DUP5 \t\t\t\n      DUP5 \t\t\t\n      DUP5 \t\t\t\n      DUP5 \t\t\t\n      PUSH [tag] 169\t\t\t\n      JUMP \t\t\t\n    tag 90\t\t\t\n      JUMPDEST \t\t\t\n      PUSH 60\t\t\t\n      PUSH [tag] 171\t\t\t\n      DUP3 \t\t\t\n      PUSH [tag] 118\t\t\t\n      JUMP \t\t\t\n    tag 171\t\t\t\n      JUMPDEST \t\t\t\n      POP \t\t\t\n      PUSH 0\t\t\t\n      PUSH [tag] 172\t\t\t\n      PUSH 40\t\t\t\n      DUP1 \t\t\t\n      MLOAD \t\t\t\n      PUSH 20\t\t\t\n      DUP2 \t\t\t\n      ADD \t\t\t\n      SWAP1 \t\t\t\n      SWAP2 \t\t\t\n      MSTORE \t\t\t\n      PUSH 0\t\t\t\n      DUP2 \t\t\t\n      MSTORE \t\t\t\n      SWAP1 \t\t\t\n      JUMP \t\t\t\n    tag 172\t\t\t\n      JUMPDEST \t\t\t\n      SWAP1 \t\t\t\n      POP \t\t\t\n      PUSH 0\t\t\t\n      DUP2 \t\t\t\n      MLOAD \t\t\t\n      GT \t\t\t\n      PUSH [tag] 174\t\t\t\n      JUMPI \t\t\t\n      PUSH 40\t\t\t\n      MLOAD \t\t\t\n      DUP1 \t\t\t\n      PUSH 20\t\t\t\n      ADD \t\t\t\n      PUSH 40\t\t\t\n      MSTORE \t\t\t\n      DUP1 \t\t\t\n      PUSH 0\t\t\t\n      DUP2 \t\t\t\n      MSTORE \t\t\t\n      POP \t\t\t\n      PUSH [tag] 175\t\t\t\n      JUMP \t\t\t\n    tag 174\t\t\t\n      JUMPDEST \t\t\t\n      DUP1 \t\t\t\n      PUSH [tag] 176\t\t\t\n      DUP5 \t\t\t\n      PUSH [tag] 177\t\t\t\n      JUMP \t\t\t\n    tag 176\t\t\t\n      JUMPDEST \t\t\t\n      PUSH 40\t\t\t\n      MLOAD \t\t\t\n      PUSH 20\t\t\t\n      ADD \t\t\t\n      PUSH [tag] 178\t\t\t\n      SWAP3 \t\t\t\n      SWAP2 \t\t\t\n      SWAP1 \t\t\t\n      PUSH [tag] 179\t\t\t\n      JUMP \t\t\t\n    tag 178\t\t\t\n      JUMPDEST \t\t\t\n      PUSH 40\t\t\t\n      MLOAD \t\t\t\n      PUSH 20\t\t\t\n      DUP2 \t\t\t\n      DUP4 \t\t\t\n      SUB \t\t\t\n      SUB \t\t\t\n      DUP2 \t\t\t\n      MSTORE \t\t\t\n      SWAP1 \t\t\t\n      PUSH 40\t\t\t\n      MSTORE \t\t\t\n    tag 175\t\t\t\n      JUMPDEST \t\t\t\n      SWAP4 \t\t\t\n      SWAP3 \t\t\t\n      POP \t\t\t\n      POP \t\t\t\n      POP \t\t\t\n      JUMP \t\t\t\n    tag 95\t\t\t\n      JUMPDEST \t\t\t\n      PUSH 1\t\t\t\n      PUSH 1\t\t\t\n      PUSH A0\t\t\t\n      SHL \t\t\t\n      SUB \t\t\t\n      SWAP2 \t\t\t\n      DUP3 \t\t\t\n      AND \t\t\t\n      PUSH 0\t\t\t\n      SWAP1 \t\t\t\n      DUP2 \t\t\t\n      MSTORE \t\t\t\n      PUSH 5\t\t\t\n      PUSH 20\t\t\t\n      SWAP1 \t\t\t\n      DUP2 \t\t\t\n      MSTORE \t\t\t\n      PUSH 40\t\t\t\n      DUP1 \t\t\t\n      DUP4 \t\t\t\n      KECCAK256 \t\t\t\n      SWAP4 \t\t\t\n      SWAP1 \t\t\t\n      SWAP5 \t\t\t\n      AND \t\t\t\n      DUP3 \t\t\t\n      MSTORE \t\t\t\n      SWAP2 \t\t\t\n      SWAP1 \t\t\t\n      SWAP2 \t\t\t\n      MSTORE \t\t\t\n      KECCAK256 \t\t\t\n      SLOAD \t\t\t\n      PUSH FF\t\t\t\n      AND \t\t\t\n      SWAP1 \t\t\t\n      JUMP \t\t\t\n    tag 99\t\t\t\n      JUMPDEST \t\t\t\n      PUSH [tag] 182\t\t\t\n      PUSH [tag] 151\t\t\t\n      JUMP \t\t\t\n    tag 182\t\t\t\n      JUMPDEST \t\t\t\n      PUSH 1\t\t\t\n      PUSH 1\t\t\t\n      PUSH A0\t\t\t\n      SHL \t\t\t\n      SUB \t\t\t\n      DUP2 \t\t\t\n      AND \t\t\t\n      PUSH [tag] 184\t\t\t\n      JUMPI \t\t\t\n      PUSH 40\t\t\t\n      MLOAD \t\t\t\n      PUSH 1E4FBDF7\t\t\t\n      PUSH E0\t\t\t\n      SHL \t\t\t\n      DUP2 \t\t\t\n      MSTORE \t\t\t\n      PUSH 0\t\t\t\n      PUSH 4\t\t\t\n      DUP3 \t\t\t\n      ADD \t\t\t\n      MSTORE \t\t\t\n      PUSH 24\t\t\t\n      ADD \t\t\t\n      PUSH [tag] 135\t\t\t\n      JUMP \t\t\t\n    tag 184\t\t\t\n      JUMPDEST \t\t\t\n      PUSH [tag] 186\t\t\t\n      DUP2 \t\t\t\n      PUSH [tag] 154\t\t\t\n      JUMP \t\t\t\n    tag 186\t\t\t\n      JUMPDEST \t\t\t\n      POP \t\t\t\n      JUMP \t\t\t\n    tag 118\t\t\t\n      JUMPDEST \t\t\t\n      PUSH 0\t\t\t\n      DUP2 \t\t\t\n      DUP2 \t\t\t\n      MSTORE \t\t\t\n      PUSH 2\t\t\t\n      PUSH 20\t\t\t\n      MSTORE \t\t\t\n      PUSH 40\t\t\t\n      DUP2 \t\t\t\n      KECCAK256 \t\t\t\n      SLOAD \t\t\t\n      PUSH 1\t\t\t\n      PUSH 1\t\t\t\n      PUSH A0\t\t\t\n      SHL \t\t\t\n      SUB \t\t\t\n      AND \t\t\t\n      DUP1 \t\t\t\n      PUSH [tag] 107\t\t\t\n      JUMPI \t\t\t\n      PUSH 40\t\t\t\n      MLOAD \t\t\t\n      PUSH 7E273289\t\t\t\n      PUSH E0\t\t\t\n      SHL \t\t\t\n      DUP2 \t\t\t\n      MSTORE \t\t\t\n      PUSH 4\t\t\t\n      DUP2 \t\t\t\n      ADD \t\t\t\n      DUP5 \t\t\t\n      SWAP1 \t\t\t\n      MSTORE \t\t\t\n      PUSH 24\t\t\t\n      ADD \t\t\t\n      PUSH [tag] 135\t\t\t\n      JUMP \t\t\t\n    tag 125\t\t\t\n      JUMPDEST \t\t\t\n      PUSH [tag] 143\t\t\t\n      DUP4 \t\t\t\n      DUP4 \t\t\t\n      DUP4 \t\t\t\n      PUSH 1\t\t\t\n      PUSH [tag] 197\t\t\t\n      JUMP \t\t\t\n    tag 130\t\t\t\n      JUMPDEST \t\t\t\n      PUSH [tag] 122\t\t\t\n      DUP3 \t\t\t\n      DUP3 \t\t\t\n      PUSH 40\t\t\t\n      MLOAD \t\t\t\n      DUP1 \t\t\t\n      PUSH 20\t\t\t\n      ADD \t\t\t\n      PUSH 40\t\t\t\n      MSTORE \t\t\t\n      DUP1 \t\t\t\n      PUSH 0\t\t\t\n      DUP2 \t\t\t\n      MSTORE \t\t\t\n      POP \t\t\t\n      PUSH [tag] 200\t\t\t\n      JUMP \t\t\t\n    tag 138\t\t\t\n      JUMPDEST \t\t\t\n      PUSH 0\t\t\t\n      DUP3 \t\t\t\n      DUP2 \t\t\t\n      MSTORE \t\t\t\n      PUSH 2\t\t\t\n      PUSH 20\t\t\t\n      MSTORE \t\t\t\n      PUSH 40\t\t\t\n      DUP2 \t\t\t\n      KECCAK256 \t\t\t\n      SLOAD \t\t\t\n      PUSH 1\t\t\t\n      PUSH 1\t\t\t\n      PUSH A0\t\t\t\n      SHL \t\t\t\n      SUB \t\t\t\n      SWAP1 \t\t\t\n      DUP2 \t\t\t\n      AND \t\t\t\n      SWAP1 \t\t\t\n      DUP4 \t\t\t\n      AND \t\t\t\n      ISZERO \t\t\t\n      PUSH [tag] 204\t\t\t\n      JUMPI \t\t\t\n      PUSH [tag] 204\t\t\t\n      DUP2 \t\t\t\n      DUP5 \t\t\t\n      DUP7 \t\t\t\n      PUSH [tag] 205\t\t\t\n      JUMP \t\t\t\n    tag 204\t\t\t\n      JUMPDEST \t\t\t\n      PUSH 1\t\t\t\n      PUSH 1\t\t\t\n      PUSH A0\t\t\t\n      SHL \t\t\t\n      SUB \t\t\t\n      DUP2 \t\t\t\n      AND \t\t\t\n      ISZERO \t\t\t\n      PUSH [tag] 206\t\t\t\n      JUMPI \t\t\t\n      PUSH [tag] 207\t\t\t\n      PUSH 0\t\t\t\n      DUP6 \t\t\t\n      PUSH 0\t\t\t\n      DUP1 \t\t\t\n      PUSH [tag] 197\t\t\t\n      JUMP \t\t\t\n    tag 207\t\t\t\n      JUMPDEST \t\t\t\n      PUSH 1\t\t\t\n      PUSH 1\t\t\t\n      PUSH A0\t\t\t\n      SHL \t\t\t\n      SUB \t\t\t\n      DUP2 \t\t\t\n      AND \t\t\t\n      PUSH 0\t\t\t\n      SWAP1 \t\t\t\n      DUP2 \t\t\t\n      MSTORE \t\t\t\n      PUSH 3\t\t\t\n      PUSH 20\t\t\t\n      MSTORE \t\t\t\n      PUSH 40\t\t\t\n      SWAP1 \t\t\t\n      KECCAK256 \t\t\t\n      DUP1 \t\t\t\n      SLOAD \t\t\t\n      PUSH 0\t\t\t\n      NOT \t\t\t\n      ADD \t\t\t\n      SWAP1 \t\t\t\n      SSTORE \t\t\t\n    tag 206\t\t\t\n      JUMPDEST \t\t\t\n      PUSH 1\t\t\t\n      PUSH 1\t\t\t\n      PUSH A0\t\t\t\n      SHL \t\t\t\n      SUB \t\t\t\n      DUP6 \t\t\t\n      AND \t\t\t\n      ISZERO \t\t\t\n      PUSH [tag] 208\t\t\t\n      JUMPI \t\t\t\n      PUSH 1\t\t\t\n      PUSH 1\t\t\t\n      PUSH A0\t\t\t\n      SHL \t\t\t\n      SUB \t\t\t\n      DUP6 \t\t\t\n      AND \t\t\t\n      PUSH 0\t\t\t\n      SWAP1 \t\t\t\n      DUP2 \t\t\t\n      MSTORE \t\t\t\n      PUSH 3\t\t\t\n      PUSH 20\t\t\t\n      MSTORE \t\t\t\n      PUSH 40\t\t\t\n      SWAP1 \t\t\t\n      KECCAK256 \t\t\t\n      DUP1 \t\t\t\n      SLOAD \t\t\t\n      PUSH 1\t\t\t\n      ADD \t\t\t\n      SWAP1 \t\t\t\n      SSTORE \t\t\t\n    tag 208\t\t\t\n      JUMPDEST \t\t\t\n      PUSH 0\t\t\t\n      DUP5 \t\t\t\n      DUP2 \t\t\t\n      MSTORE \t\t\t\n      PUSH 2\t\t\t\n      PUSH 20\t\t\t\n      MSTORE \t\t\t\n      PUSH 40\t\t\t\n      DUP1 \t\t\t\n      DUP3 \t\t\t\n      KECCAK256 \t\t\t\n      DUP1 \t\t\t\n      SLOAD \t\t\t\n      PUSH 1\t\t\t\n      PUSH 1\t\t\t\n      PUSH A0\t\t\t\n      SHL \t\t\t\n      SUB \t\t\t\n      NOT \t\t\t\n      AND \t\t\t\n      PUSH 1\t\t\t\n      PUSH 1\t\t\t\n      PUSH A0\t\t\t\n      SHL \t\t\t\n      SUB \t\t\t\n      DUP10 \t\t\t\n      DUP2 \t\t\t\n      AND \t\t\t\n      SWAP2 \t\t\t\n      DUP3 \t\t\t\n      OR \t\t\t\n      SWAP1 \t\t\t\n      SWAP3 \t\t\t\n      SSTORE \t\t\t\n      SWAP2 \t\t\t\n      MLOAD \t\t\t\n      DUP8 \t\t\t\n      SWAP4 \t\t\t\n      SWAP2 \t\t\t\n      DUP6 \t\t\t\n      AND \t\t\t\n      SWAP2 \t\t\t\n      PUSH DDF252AD1BE2C89B69C2B068FC378DAA952BA7F163C4A11628F55A4DF523B3EF\t\t\t\n      SWAP2 \t\t\t\n      LOG4 \t\t\t\n      SWAP5 \t\t\t\n      SWAP4 \t\t\t\n      POP \t\t\t\n      POP \t\t\t\n      POP \t\t\t\n      POP \t\t\t\n      JUMP \t\t\t\n    tag 151\t\t\t\n      JUMPDEST \t\t\t\n      PUSH 6\t\t\t\n      SLOAD \t\t\t\n      PUSH 1\t\t\t\n      PUSH 1\t\t\t\n      PUSH A0\t\t\t\n      SHL \t\t\t\n      SUB \t\t\t\n      AND \t\t\t\n      CALLER \t\t\t\\n    }\\n\\n  \n      EQ \t\t\t\n      PUSH [tag] 153\t\t\t\n      JUMPI \t\t\t\n      PUSH 40\t\t\t\n      MLOAD \t\t\t\n      PUSH 118CDAA7\t\t\t\n      PUSH E0\t\t\t\n      SHL \t\t\t\n      DUP2 \t\t\t\n      MSTORE \t\t\t\n      CALLER \t\t\t\\n    }\\n\\n  \n      PUSH 4\t\t\t\n      DUP3 \t\t\t\n      ADD \t\t\t\n      MSTORE \t\t\t\n      PUSH 24\t\t\t\n      ADD \t\t\t\n      PUSH [tag] 135\t\t\t\n      JUMP \t\t\t\n    tag 154\t\t\t\n      JUMPDEST \t\t\t\n      PUSH 6\t\t\t\n      DUP1 \t\t\t\n      SLOAD \t\t\t\n      PUSH 1\t\t\t\n      PUSH 1\t\t\t\n      PUSH A0\t\t\t\n      SHL \t\t\t\n      SUB \t\t\t\n      DUP4 \t\t\t\n      DUP2 \t\t\t\n      AND \t\t\t\n      PUSH 1\t\t\t\n      PUSH 1\t\t\t\n      PUSH A0\t\t\t\n      SHL \t\t\t\n      SUB \t\t\t\n      NOT \t\t\t\n      DUP4 \t\t\t\n      AND \t\t\t\n      DUP2 \t\t\t\n      OR \t\t\t\n      SWAP1 \t\t\t\n      SWAP4 \t\t\t\n      SSTORE \t\t\t\n      PUSH 40\t\t\t\n      MLOAD \t\t\t\n      SWAP2 \t\t\t\n      AND \t\t\t\n      SWAP2 \t\t\t\n      SWAP1 \t\t\t\n      DUP3 \t\t\t\n      SWAP1 \t\t\t\n      PUSH 8BE0079C531659141344CD1FD0A4F28419497F9722A3DAAFE3B4186F6B6457E0\t\t\t\n      SWAP1 \t\t\t\n      PUSH 0\t\t\t\n      SWAP1 \t\t\t\n      LOG3 \t\t\t\n      POP \t\t\t\n      POP \t\t\t\n      JUMP \t\t\t\n    tag 165\t\t\t\n      JUMPDEST \t\t\t\n      PUSH 1\t\t\t\n      PUSH 1\t\t\t\n      PUSH A0\t\t\t\n      SHL \t\t\t\n      SUB \t\t\t\n      DUP3 \t\t\t\n      AND \t\t\t\n      PUSH [tag] 217\t\t\t\n      JUMPI \t\t\t\n      PUSH 40\t\t\t\n      MLOAD \t\t\t\n      PUSH B611743\t\t\t\n      PUSH E3\t\t\t\n      SHL \t\t\t\n      DUP2 \t\t\t\n      MSTORE \t\t\t\n      PUSH 1\t\t\t\n      PUSH 1\t\t\t\n      PUSH A0\t\t\t\n      SHL \t\t\t\n      SUB \t\t\t\n      DUP4 \t\t\t\n      AND \t\t\t\n      PUSH 4\t\t\t\n      DUP3 \t\t\t\n      ADD \t\t\t\n      MSTORE \t\t\t\n      PUSH 24\t\t\t\n      ADD \t\t\t\n      PUSH [tag] 135\t\t\t\n      JUMP \t\t\t\n    tag 217\t\t\t\n      JUMPDEST \t\t\t\n      PUSH 1\t\t\t\n      PUSH 1\t\t\t\n      PUSH A0\t\t\t\n      SHL \t\t\t\n      SUB \t\t\t\n      DUP4 \t\t\t\n      DUP2 \t\t\t\n      AND \t\t\t\n      PUSH 0\t\t\t\n      DUP2 \t\t\t\n      DUP2 \t\t\t\n      MSTORE \t\t\t\n      PUSH 5\t\t\t\n      PUSH 20\t\t\t\n      SWAP1 \t\t\t\n      DUP2 \t\t\t\n      MSTORE \t\t\t\n      PUSH 40\t\t\t\n      DUP1 \t\t\t\n      DUP4 \t\t\t\n      KECCAK256 \t\t\t\n      SWAP5 \t\t\t\n      DUP8 \t\t\t\n      AND \t\t\t\n      DUP1 \t\t\t\n      DUP5 \t\t\t\n      MSTORE \t\t\t\n      SWAP5 \t\t\t\n      DUP3 \t\t\t\n      MSTORE \t\t\t\n      SWAP2 \t\t\t\n      DUP3 \t\t\t\n      SWAP1 \t\t\t\n      KECCAK256 \t\t\t\n      DUP1 \t\t\t\n      SLOAD \t\t\t\n      PUSH FF\t\t\t\n      NOT \t\t\t\n      AND \t\t\t\n      DUP7 \t\t\t\n      ISZERO \t\t\t\n      ISZERO \t\t\t\n      SWAP1 \t\t\t\n      DUP2 \t\t\t\n      OR \t\t\t\n      SWAP1 \t\t\t\n      SWAP2 \t\t\t\n      SSTORE \t\t\t\n      SWAP2 \t\t\t\n      MLOAD \t\t\t\n      SWAP2 \t\t\texed user, uint256 tokenId, bo...\n      DUP3 \t\t\texed user, uint256 tokenId, bo...\n      MSTORE \t\t\texed user, uint256 tokenId, bo...\n      PUSH 17307EAB39AB6107E8899845AD3D59BD9653F200F220920489CA2B5937696C31\t\t\t\n      SWAP2 \t\t\t\n      ADD \t\t\tevent NFTMinted(ad\n      PUSH 40\t\t\t\n      MLOAD \t\t\t\n      DUP1 \t\t\t\n      SWAP2 \t\t\t\n      SUB \t\t\t\n      SWAP1 \t\t\t\n      LOG3 \t\t\t\n      POP \t\t\t\n      POP \t\t\t\n      POP \t\t\t\n      JUMP \t\t\t\n    tag 169\t\t\t\n      JUMPDEST \t\t\t\n      PUSH 1\t\t\t\n      PUSH 1\t\t\t\n      PUSH A0\t\t\t\n      SHL \t\t\t\n      SUB \t\t\t\n      DUP4 \t\t\t\n      AND \t\t\t\n      EXTCODESIZE \t\t\t\n      ISZERO \t\t\t\n      PUSH [tag] 139\t\t\t\n      JUMPI \t\t\t\n      PUSH 40\t\t\t\n      MLOAD \t\t\t\n      PUSH A85BD01\t\t\t\n      PUSH E1\t\t\t\n      SHL \t\t\t\n      DUP2 \t\t\t\n      MSTORE \t\t\t\n      PUSH 1\t\t\t\n      PUSH 1\t\t\t\n      PUSH A0\t\t\t\n      SHL \t\t\t\n      SUB \t\t\t\n      DUP5 \t\t\t\n      AND \t\t\t\n      SWAP1 \t\t\t\n      PUSH 150B7A02\t\t\t\n      SWAP1 \t\t\t\n      PUSH [tag] 223\t\t\t\n      SWAP1 \t\t\t\n      CALLER \t\t\t\\n    }\\n\\n  \n      SWAP1 \t\t\t\\n    }\\n\\n  \n      DUP9 \t\t\t\n      SWAP1 \t\t\t\n      DUP8 \t\t\t\n      SWAP1 \t\t\t\n      DUP8 \t\t\t\n      SWAP1 \t\t\t\n      PUSH 4\t\t\t\n      ADD \t\t\t\n      PUSH [tag] 224\t\t\t\n      JUMP \t\t\t\n    tag 223\t\t\t\n      JUMPDEST \t\t\t\n      PUSH 20\t\t\t\n      PUSH 40\t\t\t\n      MLOAD \t\t\t\n      DUP1 \t\t\t\n      DUP4 \t\t\t\n      SUB \t\t\t\n      DUP2 \t\t\t\n      PUSH 0\t\t\t\n      DUP8 \t\t\t\n      GAS \t\t\t\n      CALL \t\t\t\n      SWAP3 \t\t\t\n      POP \t\t\t\n      POP \t\t\t\n      POP \t\t\t\n      DUP1 \t\t\t\n      ISZERO \t\t\t\n      PUSH [tag] 225\t\t\t\n      JUMPI \t\t\t\n      POP \t\t\t\n      PUSH 40\t\t\t\n      DUP1 \t\t\t\n      MLOAD \t\t\t\n      PUSH 1F\t\t\t\n      RETURNDATASIZE \t\t\t\n      SWAP1 \t\t\t\n      DUP2 \t\t\t\n      ADD \t\t\t\n      PUSH 1F\t\t\t\n      NOT \t\t\t\n      AND \t\t\t\n      DUP3 \t\t\t\n      ADD \t\t\t\n      SWAP1 \t\t\t\n      SWAP3 \t\t\t\n      MSTORE \t\t\t\n      PUSH [tag] 226\t\t\t\n      SWAP2 \t\t\t\n      DUP2 \t\t\t\n      ADD \t\t\t\n      SWAP1 \t\t\t\n      PUSH [tag] 227\t\t\t\n      JUMP \t\t\t\n    tag 226\t\t\t\n      JUMPDEST \t\t\t\n      PUSH 1\t\t\t\n    tag 225\t\t\t\n      JUMPDEST \t\t\t\n      PUSH [tag] 228\t\t\t\n      JUMPI \t\t\t\n      RETURNDATASIZE \t\t\t\n      DUP1 \t\t\t\n      DUP1 \t\t\t\n      ISZERO \t\t\t\n      PUSH [tag] 233\t\t\t\n      JUMPI \t\t\t\n      PUSH 40\t\t\t\n      MLOAD \t\t\t\n      SWAP2 \t\t\t\n      POP \t\t\t\n      PUSH 1F\t\t\t\n      NOT \t\t\t\n      PUSH 3F\t\t\t\n      RETURNDATASIZE \t\t\t\n      ADD \t\t\t\n      AND \t\t\t\n      DUP3 \t\t\t\n      ADD \t\t\t\n      PUSH 40\t\t\t\n      MSTORE \t\t\t\n      RETURNDATASIZE \t\t\t\n      DUP3 \t\t\t\n      MSTORE \t\t\t\n      RETURNDATASIZE \t\t\t\n      PUSH 0\t\t\t\n      PUSH 20\t\t\t\n      DUP5 \t\t\t\n      ADD \t\t\t\n      RETURNDATACOPY \t\t\t\n      PUSH [tag] 232\t\t\t\n      JUMP \t\t\t\n    tag 233\t\t\t\n      JUMPDEST \t\t\t\n      PUSH 60\t\t\t\n      SWAP2 \t\t\t\n      POP \t\t\t\n    tag 232\t\t\t\n      JUMPDEST \t\t\t\n      POP \t\t\t\n      DUP1 \t\t\t\n      MLOAD \t\t\t\n      PUSH 0\t\t\t\n      SUB \t\t\t\n      PUSH [tag] 234\t\t\t\n      JUMPI \t\t\t\n      PUSH 40\t\t\t\n      MLOAD \t\t\t\n      PUSH 32505749\t\t\t\n      PUSH E1\t\t\t\n      SHL \t\t\t\n      DUP2 \t\t\t\n      MSTORE \t\t\t\n      PUSH 1\t\t\t\n      PUSH 1\t\t\t\n      PUSH A0\t\t\t\n      SHL \t\t\t\n      SUB \t\t\t\n      DUP6 \t\t\t\n      AND \t\t\t\n      PUSH 4\t\t\t\n      DUP3 \t\t\t\n      ADD \t\t\t\n      MSTORE \t\t\t\n      PUSH 24\t\t\t\n      ADD \t\t\t\n      PUSH [tag] 135\t\t\t\n      JUMP \t\t\t\n    tag 234\t\t\t\n      JUMPDEST \t\t\t\n      DUP1 \t\t\t\n      MLOAD \t\t\t\n      DUP2 \t\t\t\n      PUSH 20\t\t\t\n      ADD \t\t\t\n      REVERT \t\t\t\n    tag 228\t\t\t\n      JUMPDEST \t\t\t\n      PUSH 1\t\t\t\n      PUSH 1\t\t\t\n      PUSH E0\t\t\t\n      SHL \t\t\t\n      SUB \t\t\t\n      NOT \t\t\t\n      DUP2 \t\t\t\n      AND \t\t\t\n      PUSH A85BD01\t\t\t\n      PUSH E1\t\t\t\n      SHL \t\t\t\n      EQ \t\t\t\n      PUSH [tag] 238\t\t\t\n      JUMPI \t\t\t\n      PUSH 40\t\t\t\n      MLOAD \t\t\t\n      PUSH 32505749\t\t\t\n      PUSH E1\t\t\t\n      SHL \t\t\t\n      DUP2 \t\t\t\n      MSTORE \t\t\t\n      PUSH 1\t\t\t\n      PUSH 1\t\t\t\n      PUSH A0\t\t\t\n      SHL \t\t\t\n      SUB \t\t\t\n      DUP6 \t\t\t\n      AND \t\t\t\n      PUSH 4\t\t\t\n      DUP3 \t\t\t\n      ADD \t\t\t\n      MSTORE \t\t\t\n      PUSH 24\t\t\t\n      ADD \t\t\t\n      PUSH [tag] 135\t\t\t\n      JUMP \t\t\t\n    tag 238\t\t\t\n      JUMPDEST \t\t\t\n      POP \t\t\t\n      POP \t\t\t\n      POP \t\t\t\n      POP \t\t\t\n      POP \t\t\t\n      JUMP \t\t\t\n    tag 177\t\t\ts initialOwner\\n    ) ERC721(\"...\n      JUMPDEST \t\t\ts initialOwner\\n    ) ERC721(\"...\n      PUSH 60\t\t\tinitialOwner)\n      PUSH 0\t\t\t\\n    function \n      PUSH [tag] 242\t\t\tt() external {\\n  \n      DUP4 \t\t\tl {\\n \n      PUSH [tag] 243\t\t\tt() extern\n      JUMP \t\t\tt() external {\\n  \n    tag 242\t\t\tt() external {\\n  \n      JUMPDEST \t\t\tt() external {\\n  \n      PUSH 1\t\t\t \n      ADD \t\t\tt() external {\\n      \n      SWAP1 \t\t\t\\n    function mint() external...\n      POP \t\t\t\\n    function mint() external...\n      PUSH 0\t\t\t\\n        uint256 new\n      DUP2 \t\t\tenIds;\n      PUSH FFFFFFFFFFFFFFFF\t\t\tenId = _tokenIds;\\n\n      DUP2 \t\t\tenId = _tokenIds;\\n\n      GT \t\t\tenId = _tokenIds;\\n\n      ISZERO \t\t\tenId = _tokenIds;\\n\n      PUSH [tag] 245\t\t\tenId = _tokenIds;\\n\n      JUMPI \t\t\tenId = _tokenIds;\\n\n      PUSH [tag] 245\t\t\tenId = _tokenIds;\\n\n      PUSH [tag] 246\t\t\tenId = _tokenIds;\\n\n      JUMP \t\t\tenId = _tokenIds;\\n\n    tag 245\t\t\tenId = _tokenIds;\\n\n      JUMPDEST \t\t\tenId = _tokenIds;\\n\n      PUSH 40\t\t\tenId = _tokenIds;\\n\n      MLOAD \t\t\tenId = _tokenIds;\\n\n      SWAP1 \t\t\tenId = _tokenIds;\\n\n      DUP1 \t\t\tenId = _tokenIds;\\n\n      DUP3 \t\t\tenId = _tokenIds;\\n\n      MSTORE \t\t\tenId = _tokenIds;\\n\n      DUP1 \t\t\tenId = _tokenIds;\\n\n      PUSH 1F\t\t\tenId = _tokenIds;\\n\n      ADD \t\t\tenId = _tokenIds;\\n\n      PUSH 1F\t\t\tenId = _tokenIds;\\n\n      NOT \t\t\tenId = _tokenIds;\\n\n      AND \t\t\tenId = _tokenIds;\\n\n      PUSH 20\t\t\tenId = _tokenIds;\\n\n      ADD \t\t\tenId = _tokenIds;\\n\n      DUP3 \t\t\tenId = _tokenIds;\\n\n      ADD \t\t\tenId = _tokenIds;\\n\n      PUSH 40\t\t\tenId = _tokenIds;\\n\n      MSTORE \t\t\tenId = _tokenIds;\\n\n      DUP1 \t\t\tenId = _tokenIds;\\n\n      ISZERO \t\t\tenId = _tokenIds;\\n\n      PUSH [tag] 247\t\t\tenId = _tokenIds;\\n\n      JUMPI \t\t\tenId = _tokenIds;\\n\n      PUSH 20\t\t\tenId = _tokenIds;\\n\n      DUP3 \t\t\tenId = _tokenIds;\\n\n      ADD \t\t\tenId = _tokenIds;\\n\n      DUP2 \t\t\tenId = _tokenIds;\\n\n      DUP1 \t\t\tenId = _tokenIds;\\n\n      CALLDATASIZE \t\t\tenId = _tokenIds;\\n\n      DUP4 \t\t\tenId = _tokenIds;\\n\n      CALLDATACOPY \t\t\tenId = _tokenIds;\\n\n      ADD \t\t\tenId = _tokenIds;\\n\n      SWAP1 \t\t\tenId = _tokenIds;\\n\n      POP \t\t\t\n    tag 247\t\t\tenId = _tokenIds;\\n\n      JUMPDEST \t\t\tenId = _tokenIds;\\n\n      POP \t\t\t\n      SWAP1 \t\t\t\\n        uint256 newTokenId =...\n      POP \t\t\t\n      DUP2 \t\t\tsg.sender, newTokenId, true)\n      DUP2 \t\t\tsg.sender, newTokenId, true)\n      ADD \t\t\tsg.sender, newTokenId, true)\n      PUSH 20\t\t\tke\n      ADD \t\t\tsg.sender, newTokenId, true)\n    tag 248\t\t\t\n      JUMPDEST \t\t\t\n      PUSH 0\t\t\t\n      NOT \t\t\t\n      ADD \t\t\t\n      PUSH 181899199A1A9B1B9C1CB0B131B232B3\t\t\t\n      PUSH 81\t\t\t\n      SHL \t\t\t\n      PUSH A\t\t\t\n      DUP7 \t\t\t\n      MOD \t\t\t\n      BYTE \t\t\t\n      DUP2 \t\t\t\n      MSTORE8 \t\t\t\n      PUSH A\t\t\t\n      DUP6 \t\t\t\n      DIV \t\t\t\n      SWAP5 \t\t\t\n      POP \t\t\t\n      DUP5 \t\t\t\n      PUSH [tag] 248\t\t\t\n      JUMPI \t\t\t\n      POP \t\t\t\n      SWAP4 \t\t\t\n      SWAP3 \t\t\ts initialOwner\\n    ) ERC721(\"...\n      POP \t\t\t\n      POP \t\t\t\n      POP \t\t\t\n      JUMP \t\t\ts initialOwner\\n    ) ERC721(\"...\n    tag 197\t\t\t\n      JUMPDEST \t\t\t\n      DUP1 \t\t\t\n      DUP1 \t\t\t\n      PUSH [tag] 256\t\t\t\n      JUMPI \t\t\t\n      POP \t\t\t\n      PUSH 1\t\t\t\n      PUSH 1\t\t\t\n      PUSH A0\t\t\t\n      SHL \t\t\t\n      SUB \t\t\t\n      DUP3 \t\t\t\n      AND \t\t\t\n      ISZERO \t\t\t\n      ISZERO \t\t\t\n    tag 256\t\t\t\n      JUMPDEST \t\t\t\n      ISZERO \t\t\t\n      PUSH [tag] 257\t\t\t\n      JUMPI \t\t\t\n      PUSH 0\t\t\t\n      PUSH [tag] 258\t\t\t\n      DUP5 \t\t\t\n      PUSH [tag] 118\t\t\t\n      JUMP \t\t\t\n    tag 258\t\t\t\n      JUMPDEST \t\t\t\n      SWAP1 \t\t\t\n      POP \t\t\t\n      PUSH 1\t\t\t\n      PUSH 1\t\t\t\n      PUSH A0\t\t\t\n      SHL \t\t\t\n      SUB \t\t\t\n      DUP4 \t\t\t\n      AND \t\t\t\n      ISZERO \t\t\t\n      DUP1 \t\t\t\n      ISZERO \t\t\t\n      SWAP1 \t\t\t\n      PUSH [tag] 259\t\t\t\n      JUMPI \t\t\t\n      POP \t\t\t\n      DUP3 \t\t\t\n      PUSH 1\t\t\t\n      PUSH 1\t\t\t\n      PUSH A0\t\t\t\n      SHL \t\t\t\n      SUB \t\t\t\n      AND \t\t\t\n      DUP2 \t\t\t\n      PUSH 1\t\t\t\n      PUSH 1\t\t\t\n      PUSH A0\t\t\t\n      SHL \t\t\t\n      SUB \t\t\t\n      AND \t\t\t\n      EQ \t\t\t\n      ISZERO \t\t\t\n    tag 259\t\t\t\n      JUMPDEST \t\t\t\n      DUP1 \t\t\t\n      ISZERO \t\t\t\n      PUSH [tag] 260\t\t\t\n      JUMPI \t\t\t\n      POP \t\t\t\n      PUSH [tag] 261\t\t\t\n      DUP2 \t\t\t\n      DUP5 \t\t\t\n      PUSH [tag] 95\t\t\t\n      JUMP \t\t\t\n    tag 261\t\t\t\n      JUMPDEST \t\t\t\n      ISZERO \t\t\t\n    tag 260\t\t\t\n      JUMPDEST \t\t\t\n      ISZERO \t\t\t\n      PUSH [tag] 262\t\t\t\n      JUMPI \t\t\t\n      PUSH 40\t\t\t\n      MLOAD \t\t\t\n      PUSH A9FBF51F\t\t\t\n      PUSH E0\t\t\t\n      SHL \t\t\t\n      DUP2 \t\t\t\n      MSTORE \t\t\t\n      PUSH 1\t\t\t\n      PUSH 1\t\t\t\n      PUSH A0\t\t\t\n      SHL \t\t\t\n      SUB \t\t\t\n      DUP5 \t\t\t\n      AND \t\t\t\n      PUSH 4\t\t\t\n      DUP3 \t\t\t\n      ADD \t\t\t\n      MSTORE \t\t\t\n      PUSH 24\t\t\t\n      ADD \t\t\t\n      PUSH [tag] 135\t\t\t\n      JUMP \t\t\t\n    tag 262\t\t\t\n      JUMPDEST \t\t\t\n      DUP2 \t\t\t\n      ISZERO \t\t\t\n      PUSH [tag] 264\t\t\t\n      JUMPI \t\t\t\n      DUP4 \t\t\t\n      DUP6 \t\t\t\n      PUSH 1\t\t\t\n      PUSH 1\t\t\t\n      PUSH A0\t\t\t\n      SHL \t\t\t\n      SUB \t\t\t\n      AND \t\t\t\n      DUP3 \t\t\t\n      PUSH 1\t\t\t\n      PUSH 1\t\t\t\n      PUSH A0\t\t\t\n      SHL \t\t\t\n      SUB \t\t\t\n      AND \t\t\t\n      PUSH 8C5BE1E5EBEC7D5BD14F71427D1E84F3DD0314C0F7B2291E5B200AC8C7C3B925\t\t\t\n      PUSH 40\t\t\t\n      MLOAD \t\t\t\n      PUSH 40\t\t\t\n      MLOAD \t\t\t\n      DUP1 \t\t\t\n      SWAP2 \t\t\t\n      SUB \t\t\t\n      SWAP1 \t\t\t\n      LOG4 \t\t\t\n    tag 264\t\t\t\n      JUMPDEST \t\t\t\n      POP \t\t\t\n    tag 257\t\t\t\n      JUMPDEST \t\t\t\n      POP \t\t\t\n      POP \t\t\t\n      PUSH 0\t\t\t\n      SWAP1 \t\t\t\n      DUP2 \t\t\t\n      MSTORE \t\t\t\n      PUSH 4\t\t\t\n      PUSH 20\t\t\t\n      MSTORE \t\t\t\n      PUSH 40\t\t\t\n      SWAP1 \t\t\t\n      KECCAK256 \t\t\t\n      DUP1 \t\t\t\n      SLOAD \t\t\t\n      PUSH 1\t\t\t\n      PUSH 1\t\t\t\n      PUSH A0\t\t\t\n      SHL \t\t\t\n      SUB \t\t\t\n      NOT \t\t\t\n      AND \t\t\t\n      PUSH 1\t\t\t\n      PUSH 1\t\t\t\n      PUSH A0\t\t\t\n      SHL \t\t\t\n      SUB \t\t\t\n      SWAP3 \t\t\t\n      SWAP1 \t\t\t\n      SWAP3 \t\t\t\n      AND \t\t\t\n      SWAP2 \t\t\t\n      SWAP1 \t\t\t\n      SWAP2 \t\t\t\n      OR \t\t\t\n      SWAP1 \t\t\t\n      SSTORE \t\t\t\n      JUMP \t\t\t\n    tag 200\t\t\t\n      JUMPDEST \t\t\t\n      PUSH [tag] 266\t\t\t\n      DUP4 \t\t\t\n      DUP4 \t\t\t\n      PUSH [tag] 267\t\t\t\n      JUMP \t\t\t\n    tag 266\t\t\t\n      JUMPDEST \t\t\t\n      PUSH [tag] 143\t\t\t\n      PUSH 0\t\t\t\n      DUP5 \t\t\t\n      DUP5 \t\t\t\n      DUP5 \t\t\t\n      PUSH [tag] 169\t\t\t\n      JUMP \t\t\t\n    tag 205\t\t\t\n      JUMPDEST \t\t\t\n      PUSH [tag] 270\t\t\t\n      DUP4 \t\t\t\n      DUP4 \t\t\t\n      DUP4 \t\t\t\n      PUSH [tag] 271\t\t\t\n      JUMP \t\t\t\n    tag 270\t\t\t\n      JUMPDEST \t\t\t\n      PUSH [tag] 143\t\t\t\n      JUMPI \t\t\t\n      PUSH 1\t\t\t\n      PUSH 1\t\t\t\n      PUSH A0\t\t\t\n      SHL \t\t\t\n      SUB \t\t\t\n      DUP4 \t\t\t\n      AND \t\t\t\n      PUSH [tag] 273\t\t\t\n      JUMPI \t\t\t\n      PUSH 40\t\t\t\n      MLOAD \t\t\t\n      PUSH 7E273289\t\t\t\n      PUSH E0\t\t\t\n      SHL \t\t\t\n      DUP2 \t\t\t\n      MSTORE \t\t\t\n      PUSH 4\t\t\t\n      DUP2 \t\t\t\n      ADD \t\t\t\n      DUP3 \t\t\t\n      SWAP1 \t\t\t\n      MSTORE \t\t\t\n      PUSH 24\t\t\t\n      ADD \t\t\t\n      PUSH [tag] 135\t\t\t\n      JUMP \t\t\t\n    tag 273\t\t\t\n      JUMPDEST \t\t\t\n      PUSH 40\t\t\t\n      MLOAD \t\t\t\n      PUSH 177E802F\t\t\t\n      PUSH E0\t\t\t\n      SHL \t\t\t\n      DUP2 \t\t\t\n      MSTORE \t\t\t\n      PUSH 1\t\t\t\n      PUSH 1\t\t\t\n      PUSH A0\t\t\t\n      SHL \t\t\t\n      SUB \t\t\t\n      DUP4 \t\t\t\n      AND \t\t\t\n      PUSH 4\t\t\t\n      DUP3 \t\t\t\n      ADD \t\t\t\n      MSTORE \t\t\t\n      PUSH 24\t\t\t\n      DUP2 \t\t\t\n      ADD \t\t\t\n      DUP3 \t\t\t\n      SWAP1 \t\t\t\n      MSTORE \t\t\t\n      PUSH 44\t\t\t\n      ADD \t\t\t\n      PUSH [tag] 135\t\t\t\n      JUMP \t\t\t\n    tag 243\t\t\t\n      JUMPDEST \t\t\t\n      PUSH 0\t\t\t\n      DUP1 \t\t\t\n      PUSH 184F03E93FF9F4DAA797ED6E38ED64BF6A1F01\t\t\t\n      PUSH 40\t\t\t\n      SHL \t\t\t\n      DUP4 \t\t\t\n      LT \t\t\t\n      PUSH [tag] 279\t\t\t\n      JUMPI \t\t\t\n      PUSH 184F03E93FF9F4DAA797ED6E38ED64BF6A1F01\t\t\t\n      PUSH 40\t\t\t\n      SHL \t\t\t\n      DUP4 \t\t\t\n      DIV \t\t\t\n      SWAP3 \t\t\t\n      POP \t\t\t\n      PUSH 40\t\t\t\n      ADD \t\t\t\n    tag 279\t\t\t\n      JUMPDEST \t\t\t\n      PUSH 4EE2D6D415B85ACEF8100000000\t\t\t\n      DUP4 \t\t\t\n      LT \t\t\t\n      PUSH [tag] 282\t\t\t\n      JUMPI \t\t\t\n      PUSH 4EE2D6D415B85ACEF8100000000\t\t\t\n      DUP4 \t\t\t\n      DIV \t\t\t\n      SWAP3 \t\t\t\n      POP \t\t\t\n      PUSH 20\t\t\t\n      ADD \t\t\t\n    tag 282\t\t\t\n      JUMPDEST \t\t\t\n      PUSH 2386F26FC10000\t\t\t\n      DUP4 \t\t\t\n      LT \t\t\t\n      PUSH [tag] 285\t\t\t\n      JUMPI \t\t\t\n      PUSH 2386F26FC10000\t\t\t\n      DUP4 \t\t\t\n      DIV \t\t\t\n      SWAP3 \t\t\t\n      POP \t\t\t\n      PUSH 10\t\t\t\n      ADD \t\t\t\n    tag 285\t\t\t\n      JUMPDEST \t\t\t\n      PUSH 5F5E100\t\t\t\n      DUP4 \t\t\t\n      LT \t\t\t\n      PUSH [tag] 288\t\t\t\n      JUMPI \t\t\t\n      PUSH 5F5E100\t\t\t\n      DUP4 \t\t\t\n      DIV \t\t\t\n      SWAP3 \t\t\t\n      POP \t\t\t\n      PUSH 8\t\t\t\n      ADD \t\t\t\n    tag 288\t\t\t\n      JUMPDEST \t\t\t\n      PUSH 2710\t\t\t\n      DUP4 \t\t\t\n      LT \t\t\t\n      PUSH [tag] 291\t\t\t\n      JUMPI \t\t\t\n      PUSH 2710\t\t\t\n      DUP4 \t\t\t\n      DIV \t\t\t\n      SWAP3 \t\t\t\n      POP \t\t\t\n      PUSH 4\t\t\t\n      ADD \t\t\t\n    tag 291\t\t\t\n      JUMPDEST \t\t\t\n      PUSH 64\t\t\t\n      DUP4 \t\t\t\n      LT \t\t\t\n      PUSH [tag] 294\t\t\t\n      JUMPI \t\t\t\n      PUSH 64\t\t\t\n      DUP4 \t\t\t\n      DIV \t\t\t\n      SWAP3 \t\t\t\n      POP \t\t\t\n      PUSH 2\t\t\t\n      ADD \t\t\t\n    tag 294\t\t\t\n      JUMPDEST \t\t\t\n      PUSH A\t\t\t\n      DUP4 \t\t\t\n      LT \t\t\t\n      PUSH [tag] 107\t\t\t\n      JUMPI \t\t\t\n      PUSH 1\t\t\t\n      ADD \t\t\t\n      SWAP3 \t\t\t\n      SWAP2 \t\t\t\n      POP \t\t\t\n      POP \t\t\t\n      JUMP \t\t\t\n    tag 267\t\t\t\n      JUMPDEST \t\t\t\n      PUSH 1\t\t\t\n      PUSH 1\t\t\t\n      PUSH A0\t\t\t\n      SHL \t\t\t\n      SUB \t\t\t\n      DUP3 \t\t\t\n      AND \t\t\t\n      PUSH [tag] 299\t\t\t\n      JUMPI \t\t\t\n      PUSH 40\t\t\t\n      MLOAD \t\t\t\n      PUSH 32505749\t\t\t\n      PUSH E1\t\t\t\n      SHL \t\t\t\n      DUP2 \t\t\t\n      MSTORE \t\t\t\n      PUSH 0\t\t\t\n      PUSH 4\t\t\t\n      DUP3 \t\t\t\n      ADD \t\t\t\n      MSTORE \t\t\t\n      PUSH 24\t\t\t\n      ADD \t\t\t\n      PUSH [tag] 135\t\t\t\n      JUMP \t\t\t\n    tag 299\t\t\t\n      JUMPDEST \t\t\t\n      PUSH 0\t\t\t\n      PUSH [tag] 301\t\t\t\n      DUP4 \t\t\t\n      DUP4 \t\t\t\n      PUSH 0\t\t\t\n      PUSH [tag] 138\t\t\t\n      JUMP \t\t\t\n    tag 301\t\t\t\n      JUMPDEST \t\t\t\n      SWAP1 \t\t\t\n      POP \t\t\t\n      PUSH 1\t\t\t\n      PUSH 1\t\t\t\n      PUSH A0\t\t\t\n      SHL \t\t\t\n      SUB \t\t\t\n      DUP2 \t\t\t\n      AND \t\t\t\n      ISZERO \t\t\t\n      PUSH [tag] 143\t\t\t\n      JUMPI \t\t\t\n      PUSH 40\t\t\t\n      MLOAD \t\t\t\n      PUSH 39E35637\t\t\t\n      PUSH E1\t\t\t\n      SHL \t\t\t\n      DUP2 \t\t\t\n      MSTORE \t\t\t\n      PUSH 0\t\t\t\n      PUSH 4\t\t\t\n      DUP3 \t\t\t\n      ADD \t\t\t\n      MSTORE \t\t\t\n      PUSH 24\t\t\t\n      ADD \t\t\t\n      PUSH [tag] 135\t\t\t\n      JUMP \t\t\t\n    tag 271\t\t\t\n      JUMPDEST \t\t\t\n      PUSH 0\t\t\t\n      PUSH 1\t\t\t\n      PUSH 1\t\t\t\n      PUSH A0\t\t\t\n      SHL \t\t\t\n      SUB \t\t\t\n      DUP4 \t\t\t\n      AND \t\t\t\n      ISZERO \t\t\t\n      DUP1 \t\t\t\n      ISZERO \t\t\t\n      SWAP1 \t\t\t\n      PUSH [tag] 308\t\t\t\n      JUMPI \t\t\t\n      POP \t\t\t\n      DUP3 \t\t\t\n      PUSH 1\t\t\t\n      PUSH 1\t\t\t\n      PUSH A0\t\t\t\n      SHL \t\t\t\n      SUB \t\t\t\n      AND \t\t\t\n      DUP5 \t\t\t\n      PUSH 1\t\t\t\n      PUSH 1\t\t\t\n      PUSH A0\t\t\t\n      SHL \t\t\t\n      SUB \t\t\t\n      AND \t\t\t\n      EQ \t\t\t\n      DUP1 \t\t\t\n      PUSH [tag] 307\t\t\t\n      JUMPI \t\t\t\n      POP \t\t\t\n      PUSH [tag] 307\t\t\t\n      DUP5 \t\t\t\n      DUP5 \t\t\t\n      PUSH [tag] 95\t\t\t\n      JUMP \t\t\t\n    tag 307\t\t\t\n      JUMPDEST \t\t\t\n      DUP1 \t\t\t\n      PUSH [tag] 308\t\t\t\n      JUMPI \t\t\t\n      POP \t\t\t\n      PUSH 0\t\t\t\n      DUP3 \t\t\t\n      DUP2 \t\t\t\n      MSTORE \t\t\t\n      PUSH 4\t\t\t\n      PUSH 20\t\t\t\n      MSTORE \t\t\t\n      PUSH 40\t\t\t\n      SWAP1 \t\t\t\n      KECCAK256 \t\t\t\n      SLOAD \t\t\t\n      PUSH 1\t\t\t\n      PUSH 1\t\t\t\n      PUSH A0\t\t\t\n      SHL \t\t\t\n      SUB \t\t\t\n      DUP5 \t\t\t\n      DUP2 \t\t\t\n      AND \t\t\t\n      SWAP2 \t\t\t\n      AND \t\t\t\n      EQ \t\t\t\n    tag 308\t\t\t\n      JUMPDEST \t\t\t\n      SWAP5 \t\t\t\n      SWAP4 \t\t\t\n      POP \t\t\t\n      POP \t\t\t\n      POP \t\t\t\n      POP \t\t\t\n      JUMP \t\t\t\n    tag 310\t\t\te-Identifier: MIT\\npragma soli...\n      JUMPDEST \t\t\te-Identifier: MIT\\npragma soli...\n      PUSH 1\t\t\t\n      PUSH 1\t\t\t\n      PUSH E0\t\t\t\n      SHL \t\t\t\n      SUB \t\t\t\n      NOT \t\t\t\n      DUP2 \t\t\t/token/ERC721/ERC721.sol\";\\nim...\n      AND \t\t\t/token/ERC721/ERC721.sol\";\\nim...\n      DUP2 \t\t\t/contracts/token/ERC721/ERC721...\n      EQ \t\t\t/contracts/token/ERC721/ERC721...\n      PUSH [tag] 186\t\t\tenzeppelin/contracts/token/ERC...\n      JUMPI \t\t\tenzeppelin/contracts/token/ERC...\n      PUSH 0\t\t\tn\n      DUP1 \t\t\te\n      REVERT \t\t\tpenzeppelin/\n    tag 28\t\t\tess/Ownable.sol\";\\n\\ncontract ...\n      JUMPDEST \t\t\tess/Ownable.sol\";\\n\\ncontract ...\n      PUSH 0\t\t\t uint2\n      PUSH 20\t\t\tbl\n      DUP3 \t\t\tublic imm\n      DUP5 \t\t\tuint256\n      SUB \t\t\t    uint256 public immu\n      SLT \t\t\tds;\\n    uint256 public immuta...\n      ISZERO \t\t\tenIds;\\n    uint256 public imm...\n      PUSH [tag] 318\t\t\tenIds;\\n    uint256 public imm...\n      JUMPI \t\t\tenIds;\\n    uint256 public imm...\n      PUSH 0\t\t\t/\n      DUP1 \t\t\t;\n      REVERT \t\t\tT_PRICE; // \n    tag 318\t\t\tenIds;\\n    uint256 public imm...\n      JUMPDEST \t\t\tenIds;\\n    uint256 public imm...\n      DUP2 \t\t\t56) publi\n      CALLDATALOAD \t\t\tress => uint256) public\n      PUSH [tag] 175\t\t\tount;\\n    mapping(address => ...\n      DUP2 \t\t\ts => \n      PUSH [tag] 310\t\t\tount;\\n    mapping(address => ...\n      JUMP \t\t\tount;\\n    mapping(address => ...\n    tag 311\t\t\tructor(\\n        uint256 price...\n      JUMPDEST \t\t\tructor(\\n        uint256 price...\n      PUSH 0\t\t\t\"\n    tag 322\t\t\tnable(initialOwner) {\\n       ...\n      JUMPDEST \t\t\tnable(initialOwner) {\\n       ...\n      DUP4 \t\t\twner) \n      DUP2 \t\t\ta\n      LT \t\t\titialOwner) {\n      ISZERO \t\t\tnable(initialOwner) {\\n       ...\n      PUSH [tag] 324\t\t\tnable(initialOwner) {\\n       ...\n      JUMPI \t\t\tnable(initialOwner) {\\n       ...\n      DUP2 \t\t\t     _token\n      DUP2 \t\t\t     _token\n      ADD \t\t\t     _token\n      MLOAD \t\t\t {\\n        _tokenI\n      DUP4 \t\t\tnt() extern\n      DUP3 \t\t\tnt() extern\n      ADD \t\t\tnt() extern\n      MSTORE \t\t\ttion mint() external {\\n      ...\n      PUSH 20\t\t\tIC\n      ADD \t\t\t NFT_PRICE\n      PUSH [tag] 322\t\t\tnable(initialOwner) {\\n       ...\n      JUMP \t\t\tnable(initialOwner) {\\n       ...\n    tag 324\t\t\tnable(initialOwner) {\\n       ...\n      JUMPDEST \t\t\tnable(initialOwner) {\\n       ...\n      POP \t\t\t\n      POP \t\t\t\n      PUSH 0\t\t\t\\n\n      SWAP2 \t\t\tkenId = _tokenId\n      ADD \t\t\tkenId = _tokenId\n      MSTORE \t\t\t6 newTokenId = _tokenIds;\\n \n      JUMP \t\t\tructor(\\n        uint256 price...\n    tag 312\t\t\teMint(msg.sender, newTokenId);...\n      JUMPDEST \t\t\teMint(msg.sender, newTokenId);...\n      PUSH 0\t\t\tstF\n      DUP2 \t\t\tmp;\\n \n      MLOAD \t\t\timestamp;\\n  \n      DUP1 \t\t\tmsg.se\n      DUP5 \t\t\tnte\n      MSTORE \t\t\tt NFTMinted(msg.sen\n      PUSH [tag] 326\t\t\tokenId, true);\\n    }\\n}\n      DUP2 \t\t\t\n      PUSH 20\t\t\t\n      DUP7 \t\t\t\n      ADD \t\t\t\n      PUSH 20\t\t\t\n      DUP7 \t\t\t\n      ADD \t\t\t\n      PUSH [tag] 311\t\t\tokenId, true);\\n    }\\n}\n      JUMP \t\t\tokenId, true);\\n    }\\n}\n    tag 326\t\t\tokenId, true);\\n    }\\n}\n      JUMPDEST \t\t\tokenId, true);\\n    }\\n}\n      PUSH 1F\t\t\t\n      ADD \t\t\t\n      PUSH 1F\t\t\t\n      NOT \t\t\t\n      AND \t\t\t\n      SWAP3 \t\t\t\n      SWAP1 \t\t\t\n      SWAP3 \t\t\t\n      ADD \t\t\t\n      PUSH 20\t\t\t\n      ADD \t\t\t\n      SWAP3 \t\t\t\n      SWAP2 \t\t\teMint(msg.sender, newTokenId);...\n      POP \t\t\t\n      POP \t\t\t\n      JUMP \t\t\teMint(msg.sender, newTokenId);...\n    tag 35\t\t\t\n      JUMPDEST \t\t\t\n      PUSH 20\t\t\t\n      DUP2 \t\t\t\n      MSTORE \t\t\t\n      PUSH 0\t\t\t\n      PUSH [tag] 175\t\t\t\n      PUSH 20\t\t\t\n      DUP4 \t\t\t\n      ADD \t\t\t\n      DUP5 \t\t\t\n      PUSH [tag] 312\t\t\t\n      JUMP \t\t\t\n    tag 38\t\t\t\n      JUMPDEST \t\t\t\n      PUSH 0\t\t\t\n      PUSH 20\t\t\t\n      DUP3 \t\t\t\n      DUP5 \t\t\t\n      SUB \t\t\t\n      SLT \t\t\t\n      ISZERO \t\t\t\n      PUSH [tag] 330\t\t\t\n      JUMPI \t\t\t\n      PUSH 0\t\t\t\n      DUP1 \t\t\t\n      REVERT \t\t\t\n    tag 330\t\t\t\n      JUMPDEST \t\t\t\n      POP \t\t\t\n      CALLDATALOAD \t\t\t\n      SWAP2 \t\t\t\n      SWAP1 \t\t\t\n      POP \t\t\t\n      JUMP \t\t\t\n    tag 313\t\t\t\n      JUMPDEST \t\t\t\n      DUP1 \t\t\t\n      CALLDATALOAD \t\t\t\n      PUSH 1\t\t\t\n      PUSH 1\t\t\t\n      PUSH A0\t\t\t\n      SHL \t\t\t\n      SUB \t\t\t\n      DUP2 \t\t\t\n      AND \t\t\t\n      DUP2 \t\t\t\n      EQ \t\t\t\n      PUSH [tag] 333\t\t\t\n      JUMPI \t\t\t\n      PUSH 0\t\t\t\n      DUP1 \t\t\t\n      REVERT \t\t\t\n    tag 333\t\t\t\n      JUMPDEST \t\t\t\n      SWAP2 \t\t\t\n      SWAP1 \t\t\t\n      POP \t\t\t\n      JUMP \t\t\t\n    tag 44\t\t\t\n      JUMPDEST \t\t\t\n      PUSH 0\t\t\t\n      DUP1 \t\t\t\n      PUSH 40\t\t\t\n      DUP4 \t\t\t\n      DUP6 \t\t\t\n      SUB \t\t\t\n      SLT \t\t\t\n      ISZERO \t\t\t\n      PUSH [tag] 335\t\t\t\n      JUMPI \t\t\t\n      PUSH 0\t\t\t\n      DUP1 \t\t\t\n      REVERT \t\t\t\n    tag 335\t\t\t\n      JUMPDEST \t\t\t\n      PUSH [tag] 336\t\t\t\n      DUP4 \t\t\t\n      PUSH [tag] 313\t\t\t\n      JUMP \t\t\t\n    tag 336\t\t\t\n      JUMPDEST \t\t\t\n      SWAP5 \t\t\t\n      PUSH 20\t\t\t\n      SWAP4 \t\t\t\n      SWAP1 \t\t\t\n      SWAP4 \t\t\t\n      ADD \t\t\t\n      CALLDATALOAD \t\t\t\n      SWAP4 \t\t\t\n      POP \t\t\t\n      POP \t\t\t\n      POP \t\t\t\n      JUMP \t\t\t\n    tag 50\t\t\t\n      JUMPDEST \t\t\t\n      PUSH 0\t\t\t\n      DUP1 \t\t\t\n      PUSH 0\t\t\t\n      PUSH 60\t\t\t\n      DUP5 \t\t\t\n      DUP7 \t\t\t\n      SUB \t\t\t\n      SLT \t\t\t\n      ISZERO \t\t\t\n      PUSH [tag] 338\t\t\t\n      JUMPI \t\t\t\n      PUSH 0\t\t\t\n      DUP1 \t\t\t\n      REVERT \t\t\t\n    tag 338\t\t\t\n      JUMPDEST \t\t\t\n      PUSH [tag] 339\t\t\t\n      DUP5 \t\t\t\n      PUSH [tag] 313\t\t\t\n      JUMP \t\t\t\n    tag 339\t\t\t\n      JUMPDEST \t\t\t\n      SWAP3 \t\t\t\n      POP \t\t\t\n      PUSH [tag] 340\t\t\t\n      PUSH 20\t\t\t\n      DUP6 \t\t\t\n      ADD \t\t\t\n      PUSH [tag] 313\t\t\t\n      JUMP \t\t\t\n    tag 340\t\t\t\n      JUMPDEST \t\t\t\n      SWAP2 \t\t\t\n      POP \t\t\t\n      PUSH 40\t\t\t\n      DUP5 \t\t\t\n      ADD \t\t\t\n      CALLDATALOAD \t\t\t\n      SWAP1 \t\t\t\n      POP \t\t\t\n      SWAP3 \t\t\t\n      POP \t\t\t\n      SWAP3 \t\t\t\n      POP \t\t\t\n      SWAP3 \t\t\t\n      JUMP \t\t\t\n    tag 65\t\t\t\n      JUMPDEST \t\t\t\n      PUSH 0\t\t\t\n      PUSH 20\t\t\t\n      DUP3 \t\t\t\n      DUP5 \t\t\t\n      SUB \t\t\t\n      SLT \t\t\t\n      ISZERO \t\t\t\n      PUSH [tag] 343\t\t\t\n      JUMPI \t\t\t\n      PUSH 0\t\t\t\n      DUP1 \t\t\t\n      REVERT \t\t\t\n    tag 343\t\t\t\n      JUMPDEST \t\t\t\n      PUSH [tag] 175\t\t\t\n      DUP3 \t\t\t\n      PUSH [tag] 313\t\t\t\n      JUMP \t\t\t\n    tag 78\t\t\t\n      JUMPDEST \t\t\t\n      PUSH 0\t\t\t\n      DUP1 \t\t\t\n      PUSH 40\t\t\t\n      DUP4 \t\t\t\n      DUP6 \t\t\t\n      SUB \t\t\t\n      SLT \t\t\t\n      ISZERO \t\t\t\n      PUSH [tag] 346\t\t\t\n      JUMPI \t\t\t\n      PUSH 0\t\t\t\n      DUP1 \t\t\t\n      REVERT \t\t\t\n    tag 346\t\t\t\n      JUMPDEST \t\t\t\n      PUSH [tag] 347\t\t\t\n      DUP4 \t\t\t\n      PUSH [tag] 313\t\t\t\n      JUMP \t\t\t\n    tag 347\t\t\t\n      JUMPDEST \t\t\t\n      SWAP2 \t\t\t\n      POP \t\t\t\n      PUSH 20\t\t\t\n      DUP4 \t\t\t\n      ADD \t\t\t\n      CALLDATALOAD \t\t\t\n      DUP1 \t\t\t\n      ISZERO \t\t\t\n      ISZERO \t\t\t\n      DUP2 \t\t\t\n      EQ \t\t\t\n      PUSH [tag] 348\t\t\t\n      JUMPI \t\t\t\n      PUSH 0\t\t\t\n      DUP1 \t\t\t\n      REVERT \t\t\t\n    tag 348\t\t\t\n      JUMPDEST \t\t\t\n      DUP1 \t\t\t\n      SWAP2 \t\t\t\n      POP \t\t\t\n      POP \t\t\t\n      SWAP3 \t\t\t\n      POP \t\t\t\n      SWAP3 \t\t\t\n      SWAP1 \t\t\t\n      POP \t\t\t\n      JUMP \t\t\t\n    tag 246\t\t\t\n      JUMPDEST \t\t\t\n      PUSH 4E487B71\t\t\t\n      PUSH E0\t\t\t\n      SHL \t\t\t\n      PUSH 0\t\t\t\n      MSTORE \t\t\t\n      PUSH 41\t\t\t\n      PUSH 4\t\t\t\n      MSTORE \t\t\t\n      PUSH 24\t\t\t\n      PUSH 0\t\t\t\n      REVERT \t\t\t\n    tag 86\t\t\t\n      JUMPDEST \t\t\t\n      PUSH 0\t\t\t\n      DUP1 \t\t\t\n      PUSH 0\t\t\t\n      DUP1 \t\t\t\n      PUSH 80\t\t\t\n      DUP6 \t\t\t\n      DUP8 \t\t\t\n      SUB \t\t\t\n      SLT \t\t\t\n      ISZERO \t\t\t\n      PUSH [tag] 351\t\t\t\n      JUMPI \t\t\t\n      PUSH 0\t\t\t\n      DUP1 \t\t\t\n      REVERT \t\t\t\n    tag 351\t\t\t\n      JUMPDEST \t\t\t\n      PUSH [tag] 352\t\t\t\n      DUP6 \t\t\t\n      PUSH [tag] 313\t\t\t\n      JUMP \t\t\t\n    tag 352\t\t\t\n      JUMPDEST \t\t\t\n      SWAP4 \t\t\t\n      POP \t\t\t\n      PUSH [tag] 353\t\t\t\n      PUSH 20\t\t\t\n      DUP7 \t\t\t\n      ADD \t\t\t\n      PUSH [tag] 313\t\t\t\n      JUMP \t\t\t\n    tag 353\t\t\t\n      JUMPDEST \t\t\t\n      SWAP3 \t\t\t\n      POP \t\t\t\n      PUSH 40\t\t\t\n      DUP6 \t\t\t\n      ADD \t\t\t\n      CALLDATALOAD \t\t\t\n      SWAP2 \t\t\t\n      POP \t\t\t\n      PUSH 60\t\t\t\n      DUP6 \t\t\t\n      ADD \t\t\t\n      CALLDATALOAD \t\t\t\n      PUSH FFFFFFFFFFFFFFFF\t\t\t\n      DUP1 \t\t\t\n      DUP3 \t\t\t\n      GT \t\t\t\n      ISZERO \t\t\t\n      PUSH [tag] 354\t\t\t\n      JUMPI \t\t\t\n      PUSH 0\t\t\t\n      DUP1 \t\t\t\n      REVERT \t\t\t\n    tag 354\t\t\t\n      JUMPDEST \t\t\t\n      DUP2 \t\t\t\n      DUP8 \t\t\t\n      ADD \t\t\t\n      SWAP2 \t\t\t\n      POP \t\t\t\n      DUP8 \t\t\t\n      PUSH 1F\t\t\t\n      DUP4 \t\t\t\n      ADD \t\t\t\n      SLT \t\t\t\n      PUSH [tag] 355\t\t\t\n      JUMPI \t\t\t\n      PUSH 0\t\t\t\n      DUP1 \t\t\t\n      REVERT \t\t\t\n    tag 355\t\t\t\n      JUMPDEST \t\t\t\n      DUP2 \t\t\t\n      CALLDATALOAD \t\t\t\n      DUP2 \t\t\t\n      DUP2 \t\t\t\n      GT \t\t\t\n      ISZERO \t\t\t\n      PUSH [tag] 357\t\t\t\n      JUMPI \t\t\t\n      PUSH [tag] 357\t\t\t\n      PUSH [tag] 246\t\t\t\n      JUMP \t\t\t\n    tag 357\t\t\t\n      JUMPDEST \t\t\t\n      PUSH 40\t\t\t\n      MLOAD \t\t\t\n      PUSH 1F\t\t\t\n      DUP3 \t\t\t\n      ADD \t\t\t\n      PUSH 1F\t\t\t\n      NOT \t\t\t\n      SWAP1 \t\t\t\n      DUP2 \t\t\t\n      AND \t\t\t\n      PUSH 3F\t\t\t\n      ADD \t\t\t\n      AND \t\t\t\n      DUP2 \t\t\t\n      ADD \t\t\t\n      SWAP1 \t\t\t\n      DUP4 \t\t\t\n      DUP3 \t\t\t\n      GT \t\t\t\n      DUP2 \t\t\t\n      DUP4 \t\t\t\n      LT \t\t\t\n      OR \t\t\t\n      ISZERO \t\t\t\n      PUSH [tag] 359\t\t\t\n      JUMPI \t\t\t\n      PUSH [tag] 359\t\t\t\n      PUSH [tag] 246\t\t\t\n      JUMP \t\t\t\n    tag 359\t\t\t\n      JUMPDEST \t\t\t\n      DUP2 \t\t\t\n      PUSH 40\t\t\t\n      MSTORE \t\t\t\n      DUP3 \t\t\t\n      DUP2 \t\t\t\n      MSTORE \t\t\t\n      DUP11 \t\t\t\n      PUSH 20\t\t\t\n      DUP5 \t\t\t\n      DUP8 \t\t\t\n      ADD \t\t\t\n      ADD \t\t\t\n      GT \t\t\t\n      ISZERO \t\t\t\n      PUSH [tag] 360\t\t\t\n      JUMPI \t\t\t\n      PUSH 0\t\t\t\n      DUP1 \t\t\t\n      REVERT \t\t\t\n    tag 360\t\t\t\n      JUMPDEST \t\t\t\n      DUP3 \t\t\t\n      PUSH 20\t\t\t\n      DUP7 \t\t\t\n      ADD \t\t\t\n      PUSH 20\t\t\t\n      DUP4 \t\t\t\n      ADD \t\t\t\n      CALLDATACOPY \t\t\t\n      PUSH 0\t\t\t\n      PUSH 20\t\t\t\n      DUP5 \t\t\t\n      DUP4 \t\t\t\n      ADD \t\t\t\n      ADD \t\t\t\n      MSTORE \t\t\t\n      DUP1 \t\t\t\n      SWAP6 \t\t\t\n      POP \t\t\t\n      POP \t\t\t\n      POP \t\t\t\n      POP \t\t\t\n      POP \t\t\t\n      POP \t\t\t\n      SWAP3 \t\t\t\n      SWAP6 \t\t\t\n      SWAP2 \t\t\t\n      SWAP5 \t\t\t\n      POP \t\t\t\n      SWAP3 \t\t\t\n      POP \t\t\t\n      JUMP \t\t\t\n    tag 94\t\t\t\n      JUMPDEST \t\t\t\n      PUSH 0\t\t\t\n      DUP1 \t\t\t\n      PUSH 40\t\t\t\n      DUP4 \t\t\t\n      DUP6 \t\t\t\n      SUB \t\t\t\n      SLT \t\t\t\n      ISZERO \t\t\t\n      PUSH [tag] 362\t\t\t\n      JUMPI \t\t\t\n      PUSH 0\t\t\t\n      DUP1 \t\t\t\n      REVERT \t\t\t\n    tag 362\t\t\t\n      JUMPDEST \t\t\t\n      PUSH [tag] 363\t\t\t\n      DUP4 \t\t\t\n      PUSH [tag] 313\t\t\t\n      JUMP \t\t\t\n    tag 363\t\t\t\n      JUMPDEST \t\t\t\n      SWAP2 \t\t\t\n      POP \t\t\t\n      PUSH [tag] 364\t\t\t\n      PUSH 20\t\t\t\n      DUP5 \t\t\t\n      ADD \t\t\t\n      PUSH [tag] 313\t\t\t\n      JUMP \t\t\t\n    tag 364\t\t\t\n      JUMPDEST \t\t\t\n      SWAP1 \t\t\t\n      POP \t\t\t\n      SWAP3 \t\t\t\n      POP \t\t\t\n      SWAP3 \t\t\t\n      SWAP1 \t\t\t\n      POP \t\t\t\n      JUMP \t\t\t\n    tag 111\t\t\t\n      JUMPDEST \t\t\t\n      PUSH 1\t\t\t\n      DUP2 \t\t\t\n      DUP2 \t\t\t\n      SHR \t\t\t\n      SWAP1 \t\t\t\n      DUP3 \t\t\t\n      AND \t\t\t\n      DUP1 \t\t\t\n      PUSH [tag] 366\t\t\t\n      JUMPI \t\t\t\n      PUSH 7F\t\t\t\n      DUP3 \t\t\t\n      AND \t\t\t\n      SWAP2 \t\t\t\n      POP \t\t\t\n    tag 366\t\t\t\n      JUMPDEST \t\t\t\n      PUSH 20\t\t\t\n      DUP3 \t\t\t\n      LT \t\t\t\n      DUP2 \t\t\t\n      SUB \t\t\t\n      PUSH [tag] 367\t\t\t\n      JUMPI \t\t\t\n      PUSH 4E487B71\t\t\t\n      PUSH E0\t\t\t\n      SHL \t\t\t\n      PUSH 0\t\t\t\n      MSTORE \t\t\t\n      PUSH 22\t\t\t\n      PUSH 4\t\t\t\n      MSTORE \t\t\t\n      PUSH 24\t\t\t\n      PUSH 0\t\t\t\n      REVERT \t\t\t\n    tag 367\t\t\t\n      JUMPDEST \t\t\t\n      POP \t\t\t\n      SWAP2 \t\t\t\n      SWAP1 \t\t\t\n      POP \t\t\t\n      JUMP \t\t\t\n    tag 128\t\t\t\n      JUMPDEST \t\t\t\n      PUSH 0\t\t\t\n      PUSH 1\t\t\t\n      DUP3 \t\t\t\n      ADD \t\t\t\n      PUSH [tag] 369\t\t\t\n      JUMPI \t\t\t\n      PUSH 4E487B71\t\t\t\n      PUSH E0\t\t\t\n      SHL \t\t\t\n      PUSH 0\t\t\t\n      MSTORE \t\t\t\n      PUSH 11\t\t\t\n      PUSH 4\t\t\t\n      MSTORE \t\t\t\n      PUSH 24\t\t\t\n      PUSH 0\t\t\t\n      REVERT \t\t\t\n    tag 369\t\t\t\n      JUMPDEST \t\t\t\n      POP \t\t\t\n      PUSH 1\t\t\t\n      ADD \t\t\t\n      SWAP1 \t\t\t\n      JUMP \t\t\t\n    tag 179\t\t\t\n      JUMPDEST \t\t\t\n      PUSH 0\t\t\t\n      DUP4 \t\t\t\n      MLOAD \t\t\t\n      PUSH [tag] 373\t\t\t\n      DUP2 \t\t\t\n      DUP5 \t\t\t\n      PUSH 20\t\t\t\n      DUP9 \t\t\t\n      ADD \t\t\t\n      PUSH [tag] 311\t\t\t\n      JUMP \t\t\t\n    tag 373\t\t\t\n      JUMPDEST \t\t\t\n      DUP4 \t\t\t\n      MLOAD \t\t\t\n      SWAP1 \t\t\t\n      DUP4 \t\t\t\n      ADD \t\t\t\n      SWAP1 \t\t\t\n      PUSH [tag] 374\t\t\t\n      DUP2 \t\t\t\n      DUP4 \t\t\t\n      PUSH 20\t\t\t\n      DUP9 \t\t\t\n      ADD \t\t\t\n      PUSH [tag] 311\t\t\t\n      JUMP \t\t\t\n    tag 374\t\t\t\n      JUMPDEST \t\t\t\n      ADD \t\t\t\n      SWAP5 \t\t\t\n      SWAP4 \t\t\t\n      POP \t\t\t\n      POP \t\t\t\n      POP \t\t\t\n      POP \t\t\t\n      JUMP \t\t\t\n    tag 224\t\t\t\n      JUMPDEST \t\t\t\n      PUSH 1\t\t\t\n      PUSH 1\t\t\t\n      PUSH A0\t\t\t\n      SHL \t\t\t\n      SUB \t\t\t\n      DUP6 \t\t\t\n      DUP2 \t\t\t\n      AND \t\t\t\n      DUP3 \t\t\t\n      MSTORE \t\t\t\n      DUP5 \t\t\t\n      AND \t\t\t\n      PUSH 20\t\t\t\n      DUP3 \t\t\t\n      ADD \t\t\t\n      MSTORE \t\t\t\n      PUSH 40\t\t\t\n      DUP2 \t\t\t\n      ADD \t\t\t\n      DUP4 \t\t\t\n      SWAP1 \t\t\t\n      MSTORE \t\t\t\n      PUSH 80\t\t\t\n      PUSH 60\t\t\t\n      DUP3 \t\t\t\n      ADD \t\t\t\n      DUP2 \t\t\t\n      SWAP1 \t\t\t\n      MSTORE \t\t\t\n      PUSH 0\t\t\t\n      SWAP1 \t\t\t\n      PUSH [tag] 376\t\t\t\n      SWAP1 \t\t\t\n      DUP4 \t\t\t\n      ADD \t\t\t\n      DUP5 \t\t\t\n      PUSH [tag] 312\t\t\t\n      JUMP \t\t\t\n    tag 376\t\t\t\n      JUMPDEST \t\t\t\n      SWAP7 \t\t\t\n      SWAP6 \t\t\t\n      POP \t\t\t\n      POP \t\t\t\n      POP \t\t\t\n      POP \t\t\t\n      POP \t\t\t\n      POP \t\t\t\n      JUMP \t\t\t\n    tag 227\t\t\t\n      JUMPDEST \t\t\t\n      PUSH 0\t\t\t\n      PUSH 20\t\t\t\n      DUP3 \t\t\t\n      DUP5 \t\t\t\n      SUB \t\t\t\n      SLT \t\t\t\n      ISZERO \t\t\t\n      PUSH [tag] 378\t\t\t\n      JUMPI \t\t\t\n      PUSH 0\t\t\t\n      DUP1 \t\t\t\n      REVERT \t\t\t\n    tag 378\t\t\t\n      JUMPDEST \t\t\t\n      DUP2 \t\t\t\n      MLOAD \t\t\t\n      PUSH [tag] 175\t\t\t\n      DUP2 \t\t\t\n      PUSH [tag] 310\t\t\t\n      JUMP \t\t\t\n    .data\n"
}